:100000000C946E050C9496050C9496050C9496052C
:100010000C9496050C9496050C9496050C949605F4
:100020000C9496050C9496050C9496050C946721F7
:100030000C9496050C9496050C9496050C949605D4
:100040000C9491250C9496050C9496050C949605A9
:100050000C9496050C9496050C9496050C949605B4
:100060000C94E2230C94960540240000000000004C
:1000700000000000000000000000FF000000180069
:100080000000FF00000018000000C0C3E6001800D8
:100090000000C0C67A0018000000C0CE54F319E07A
:1000A000FC67C0D9CCF319E0FC67FF11C6CCDE1B9E
:1000B0000378FF13FECCDE1B0378C0DFFECCD81B19
:1000C000FF60C0DFFECCD81BFF60C0CFFCCCDE1BC6
:1000D0000060C0C7F8CCDE1B0060FF03F0CCD9E0A5
:1000E000FC60FF01E0CCD9E0FC60000000000000F3
:1000F00000002060000000088004209000000444FC
:100100004F8823FC00000A22B9D0240200001111FC
:1001100009400801000024AA213029F900004944BF
:1001200051180A950000920089F80A950000494488
:1001300050F809F9000024AA20F804020000111365
:1001400000F00FFF00000A248FE0130C8000044928
:1001500053C812948000001220040F0F000000000A
:10016000000004F2000000000000039C800000007A
:1001700001000000B29D1DDD9D007FFFB91111D16E
:1001800049FE0000B11DDD5D49004E6F206D6173B9
:1001900074657200536C61766520646973636F6E79
:1001A0006E65637465640057726F6E6720736C616F
:1001B000766520646174610031206D6173746572CD
:1001C000206D617800536C61766520706175736590
:1001D0006400581B00000000000000001100000037
:1001E00008800030180CFF22220004444F80381C85
:1001F0000CC1D445000A22B840681C1CC008888085
:10020000111100204C1E14C045524024AA20204C3D
:100210001A24C0A2292049445000C41A24FD100405
:100220009092008800861B24C0A22920494451E1F5
:10023000FE1944C045524024AA2021821944C00C12
:100240008880111300210319C4C01245000A2480BC
:1002500023011884C0A9220004495E62019884FF2A
:10026000448000001221800000000000000000080F
:1002700080040000000011000004444F8900DFE307
:10028000F9A222000A22B9D18090020A5445001135
:100290001109408190020408888024AA2130C1906D
:1002A00002024552404944511841100202A229203D
:1002B000920089F8431FE20D100490494450F862FF
:1002C0001003F8A2292024AA20F826100230455253
:1002D00040111300F0341002180C88800A248FE0BB
:1002E0001410020F124500044953C818100204A943
:1002F000220000122004081FE202448000507265B0
:10030000737320616E79206B657900506C6179653B
:100310007220312057494E2100506C61796572205E
:10032000322057494E2100594F55204C4F4F5345CD
:100330002100594F552057494E210001010101016B
:10034000010101010101010101010101010101019D
:100350000100000002020202020202020202020284
:100360000200000001010002010201000000000083
:100370000102020202020102000101020202020263
:100380000202020202020202020002020202010151
:100390000202010202010202020202020102000143
:1003A0000202020101020100000000010202020239
:1003B0000202020002020202010102020202000223
:1003C0000202020202010000000001020201010219
:1003D0000201020001020202020202010202010203
:1003E00002020101020202020002020202020202F1
:1003F00002020202020202010100020102020102E3
:1004000002010000000000020201020001010000E0
:1004100000020202020202020202020202020000C2
:1004200000010101010101010101010101010101BD
:1004300001010101010101010101010101010101AC
:10044000010101010101010101010101010000009F
:100450000202020202020202020202020200000082
:100460000101000102010201020102010201020177
:100470000201020100010102020202020202020262
:100480000202020202020202020201010201020150
:100490000201020102010201020102010201020144
:1004A000010201020202020202020202010202022F
:1004B000020202020101020202020202020102021F
:1004C0000202020202020201020101020102010211
:1004D0000102010201020102010201020102010105
:1004E00002020202020202020202020202020202EC
:1004F00002020201010001020102010201020102E5
:1005000001020102010201000101000000020202D9
:1005100002020202020202020202000000010101C4
:1005200001010101010101010101010101010101BB
:1005300001010101010101010101010101010101AB
:10054000010101010101010101000000020202029A
:100550000202020202020202020000000101000285
:10056000020202020202020202020202020202026B
:10057000000101020202020202020202020202025F
:10058000020202020202010102020201020202024E
:100590000101010202020201020202010102020241
:1005A0000202020202010000020202020202020230
:1005B0000101020202020202020200000102020222
:1005C000020202020201010202020102020202010F
:1005D0000101020202020102020201010202020200
:1005E00002020202020202020202020202020201EC
:1005F00001000202020202020202020202020202DE
:1006000002020200010100000002020202020202D4
:1006100002020202020200000001010101010101C7
:1006200001010101010101010101010101010101BA
:1006300001010101010101010101010101010101AA
:100640000101010101000000010202020202020296
:100650000202020201000000010100010202020187
:100660000202010101020201020202010001010075
:10067000020202020202020202020202020202025A
:100680000200010101020201020102020101010254
:10069000020202010202010101020202020202023E
:1006A0000202000002020201020102010101010234
:1006B0000102010202020000020202020202020220
:1006C0000201010102020102010202010101020212
:1006D00002020102020201010002020202020202FF
:1006E00002020202020202020202000101000102F1
:1006F00002020102020101010202010202020100E2
:1007000001010000000102020202020202020202D2
:1007100002010000000101010101010101010101CB
:100720000101010101010101010101080420C030A2
:10073000A008057088D8A8D8080570A8F8F87045F2
:1007400007520760075369676C6520706C617965B3
:100750007200486F737420286D617374657229008C
:100760004A6F696E2028736C617665290003053F26
:10077000213F1208120A100A0E1C0E0C1E0C141A2D
:1007800014161F161E131E1E1B1E1E1F1E3F213F6A
:100790003A2F3A173D173F213F181F02040A041F42
:1007A0000E04040E1F0A1F0A0E0E1F04110E2E2522
:1007B0002E2F2A2E262929021F02081F08150E0493
:1007C000040E150E15151B151B040604040C04005D
:1007D00000000017000300031F0A1F16371A190430
:1007E000130A153A000300000E11110E000A040A44
:1007F000040E040030000404040010001804031F59
:10080000111F121F101D151711151F07041F171593
:100810001D1F151D01011F1F151F17151F000A00A1
:10082000003200040A110A0A0A110A040115020E14
:1008300011171E051E1F150A0E110A1F110E1F1576
:10084000111F05010E111D1F041F111F1108100F8C
:100850001F041B1F10101F061F1E040F0E110E1F5A
:1008600009060E112E1F051A121509011F011F106E
:100870001F0F180F1F0C1F1B041B031C031915133C
:10088000001F11030418111F000201022020200084
:1008900001020C121E1F120C0C12120C121F0C1A49
:1008A00014041E05242A1E1F021C141D1020201DC6
:1008B0001F0814111F101E041E1E021C0C120C3ED9
:1008C0000A040C123E1E040214160A020F120E1025
:1008D0001E0E100E1E081E120C1226281E322A266C
:1008E000041E21001F00211E040102013F213F0AB6
:1008F0004E6F2053442063617264206F720A6E6FE2
:10090000204C4F414445522E4845580A0A153A4555
:10091000786974001D20466C617368696E670A20EF
:10092000206C6F616465722E2E2E0A0A444F4E278A
:1009300054205455524E204F464621006D560A0A07
:10094000504C454153450A5455524E204F4646009F
:100950004C4F5720424154544552590A0017736175
:10096000766500166261636B001574797065000A24
:100970000A0A153A6F6B617920163A65646974004A
:10098000596F7520656E74657265640A00540A03B8
:10099000E181867F3E186D830F0F0E0183866033E1
:1009A000186DC3198F1803C38E6033186DE330CFF1
:1009B0001803C39E603630CDE360CF3006C79E7EFD
:1009C0003E30CDB360CF300CC6F6603330D9B66060
:1009D000CF33CFCCF66061B0DB1E60CF30D86CE691
:1009E000C061B0DB1E618F19986CC6C063B19B0EED
:1009F000330F0FB078C6FF7E1F1B061E0F17534420
:100A0000001613780016131400151020001520107E
:100A10000000000500893008023802497868140097
:100A2000004500680100000500680138010000056C
:100A300000380168010000F6E8DBCFC3B8AEA49B24
:100A4000928A827B746E68625C57524E4945413E81
:100A50003A3734312E2C29272523211F1D1C1A1922
:100A600017161514131211100F0E0D0C0B0A09088E
:100A70000706760A7A0A0101F7030101FF03000065
:100A80000000240027002A000000000025002800A4
:100A90002B000000000023002600290004040404A9
:100AA0000404040402020202020203030303030318
:100AB00001020408102040800102040810200102F5
:100AC00004081020000000070002010000030406D3
:100AD0000000000000000000A408592211241FBEDD
:100AE000CFEFD8E0DEBFCDBF13E0A0E0B1E0E0E69D
:100AF000F7E502C005900D92A232B107D9F716E0D2
:100B0000A2E2B3E001C01D92A43DB107E1F71AE0F3
:100B1000CCEDDAE004C02297FE010E94122BC83D02
:100B2000D107C9F70E94BF270C94AE2B0C9400008C
:100B300084E08093AF038093B00381E08093B1039E
:100B40008093B2038093B4031092B60308958CE4AB
:100B50008093B70388E28093B80383E18093B9035D
:100B60008AE08093BA0381E08093BC031092BE03B5
:100B7000089584E08093BF0388E28093C00391E0EE
:100B80009093C1038AE08093C2039093C40390932F
:100B9000C60308958CE48093C70384E08093C80360
:100BA00083E18093C90381E08093CA038093CC03DF
:100BB0008093CE030895CF93DF93982FEFECF3E06B
:100BC000CDEED3E0AEEDB3E08481882371F0808177
:100BD00087FD8D5F85958595891739F4818187FD1E
:100BE0008D5F85958595861781F114968C91149764
:100BF000882381F08C9187FD8D5F85958595891778
:100C000049F411968C91119787FD8D5F8595859597
:100C10008617D9F08C81882371F0888187FD8D5FDC
:100C200085958595891739F4898187FD8D5F85952F
:100C30008595861751F035962596159683E0EE3DFD
:100C4000F80709F0C1CF80E001C081E0DF91CF91CA
:100C50000895FC018581882389F12081422F552741
:100C600047FD50958281992787FD9095880F991FA0
:100C7000880F991F4817590789F42181422F55275A
:100C800047FD50958381992787FD9095880F991F7F
:100C9000880F991F4817590749F4089548175907AD
:100CA00014F42F5F01C0215020830895481759077D
:100CB0001CF42F5F21830895215021830895982FDC
:100CC000FA018481882369F0DA01159614968C91D3
:100CD0001497882311F4FD0104C03A968481882377
:100CE00049F480E582838091FC03838381E08483DF
:100CF0009083618308950F931F93082F162F0E94EE
:100D0000DB05882311F040E015C040E0212F30E0E2
:100D100085E190E0289FF001299FF00D389FF00DAC
:100D20001124E00FF11DE05FFE4F80818150823081
:100D300008F041E0842F1F910F9108958F929F92A8
:100D4000AF92BF92CF92DF92EF92FF920F931F93D9
:100D5000CF93DF930FECC02E03E0D02E1DEEE12EDB
:100D600013E0F12E0EED13E0C0E0D0E0882E9924C0
:100D7000A62EBB24F60184818823F9F0808199276F
:100D800087FD909588159905C1F48181992787FD84
:100D900090958A159B0589F41482FE01EE0FFF1FC2
:100DA000EE0FFF1FEC0FFD1FE153FC4F40815181FF
:100DB0006281738184810E946307F80184818823A2
:100DC000F9F08081992787FD909588159905C1F4E0
:100DD0008181992787FD90958A159B0589F4148256
:100DE000FE01EE0FFF1FEE0FFF1FEC0FFD1FE25283
:100DF000FC4F408151816281738184810E9463072D
:100E0000F70184818823F9F08081992787FD9095E7
:100E100088159905C1F48181992787FD90958A15D8
:100E20009B0589F41482FE01EE0FFF1FEE0FFF1FDA
:100E3000EC0FFD1FE351FC4F4081518162817381B2
:100E400084810E946307219685E090E0C80ED91E38
:100E5000E80EF91E0B5F1F4FC330D10509F08ACF92
:100E6000DF91CF911F910F91FF90EF90DF90CF9086
:100E7000BF90AF909F908F9008951F9370E0282FA0
:100E800030E085E190E0689FF001699FF00D789F68
:100E9000F00D1124E20FF31FE05FFE4F10811130BF
:100EA00059F084E18083660F771F660F771F822FCA
:100EB000880F880F0E949E0680E01150123008F4BF
:100EC00081E01F910895EF92FF920F931F93DF939C
:100ED000CF9300D000D00F92CDB7DEB7342F498327
:100EE000252F5A836B837C838D83E72E82E080934A
:100EF000A80383E08093A90347FD3D5FF32EF5949B
:100F0000F59427FD2D5F022F0595059510E00AC089
:100F1000812F8F0D602F0E943D07882311F010E074
:100F20000EC01F5F1E15A0F3FACF8F2D811B602FFF
:100F30000E943D07882311F010E00EC01F5F1E15B0
:100F4000A0F3FACF612F600F8F2D0E943D078823F9
:100F500011F010E00CC01F5F1E15A0F3FACF602F38
:100F6000611B8F2D0E943D07882319F41F5F1E15FA
:100F7000B0F30F900F900F900F900F90CF91DF91E3
:100F80001F910F91FF90EF900895CF92DF92EF9213
:100F9000FF920F931F93CF93DF935FEEC52E53E025
:100FA000D52E40EEE42E43E0F42E01ED13E0C0E038
:100FB000D0E0F80182818823C1F08081882389F400
:100FC0001282FE01EE0FFF1FEE0FFF1FEC0FFD1F41
:100FD000E153FC4F408151816281738184810E9481
:100FE0006307F801808181508083F7018281882323
:100FF000C1F08081882389F41282FE01EE0FFF1F69
:10100000EE0FFF1FEC0FFD1FE252FC4F408151819C
:101010006281738184810E946307F701808181501E
:101020008083F60182818823C1F08081882389F43E
:101030001282FE01EE0FFF1FEE0FFF1FEC0FFD1FD0
:10104000E351FC4F408151816281738184810E9410
:101050006307F601808181508083219685E090E0CE
:10106000C80ED91EE80EF91E0B5F1F4FC330D10505
:1010700009F09FCFDF91CF911F910F91FF90EF90DB
:10108000DF90CF900895BC0120E030E00BC0849148
:101090008D934F5F31964531D1F72B5E3F4F2C3FFB
:1010A000310541F0FB01E20FF31FD901A05FBE4FF4
:1010B00040E0EDCF08958091AE03823091F083300F
:1010C00028F4882341F08130B1F408C0833061F006
:1010D000843089F40CC08BE393E00BC087E394E089
:1010E00008C083E395E005C08FE296E002C08CE083
:1010F00092E00E9443088091AE038F5F65E00E94FA
:10110000A02A9093AE0308950E9498050E94A70517
:101110000E94B9050E94CA050E945B0883E0809383
:10112000FC031092D3031092E2031092F103109289
:10113000D8031092E7031092F6031092DD03109289
:10114000EC031092FB030895109273031092720344
:101150008EE093E09093710380937003089582E290
:1011600093E068E670E00E947B1E0E948408109263
:10117000AE0308951F9311E0ABC081E596E00E9495
:10118000F7218F3009F47BC0803194F48C3009F45E
:1011900061C08D3034F48A30E1F08B3009F098C0B2
:1011A0001FC08D3009F45DC08E3009F091C060C061
:1011B000873109F476C0883134F48531C1F0863145
:1011C00009F086C063C08E3149F1883209F080C0D1
:1011D00031C081E596E00E94F7218093B10378C089
:1011E00081E596E00E94F7218093B20371C081E50A
:1011F00096E00E94F721C19709F06AC08091B1037F
:101200006091B203772767FD7095660F771F660FB1
:10121000771F880F880F4FEC53E058C081E596E0A8
:101220000E94F7211092B403C19709F051C01093A6
:10123000B4034EC081E596E00E94F721982F80917B
:10124000AE03891709F444C091509093AE030E94F5
:101250005B083EC081E596E00E94F7218093C103C0
:1012600037C081E596E00E94F7218093C20330C029
:1012700081E596E00E94F7218093C90329C081E5AA
:1012800096E00E94F7218093CA0322C081E596E090
:101290000E94F721C197E1F48091C1036091C203DC
:1012A0000AC081E596E00E94F721C19789F48091F8
:1012B000C9036091CA03772767FD7095660F771F92
:1012C000660F771F880F880F4DEE53E00E945F0670
:1012D00081E596E00E94EE21892B09F04ECF81E056
:1012E0008093AC031092AB031F910895CF93DF93CB
:1012F000EC016115710519F420E030E00FC0DB014D
:101300000D900020E9F71197A61BB70BE881F98132
:101310000280F381E02DAD0109959C01C901DF91A7
:10132000CF9108958AE0809301048091B90380935E
:1013300002048BE0809303048091BA038093040439
:1013400085E1809305048091BD03882311F480E337
:1013500001C081E3809306048EE1809307048091AD
:10136000BC03882311F480E301C081E38093080467
:1013700080910F01882389F081E08093010480939C
:1013800002048093030480930404809305048093F3
:10139000060480930704809308048091AA0388239D
:1013A00089F082E080930104809302048093030417
:1013B00080930404809305048093060480930704BB
:1013C0008093080481E596E061E074E00E9476096C
:1013D00008951F9310920F0110E016C061E070E0B5
:1013E00080E090E00E940D261F5F143169F482E2D4
:1013F00093E06AE871E042E00E94301981E0809356
:10140000AB0380930F0104C08091AC03882331F3B8
:101410001092AC031F9108950F931F9301E516E0FE
:10142000C80162E070E00E941823C8016AEB78E00E
:101430000E944F22C80162E979E00E9454221F9164
:101440000F91089581E596E062E070E00E94E4214A
:1014500081E596E06AE00E94A1226091B1037727BE
:1014600067FD709581E596E00E94A12281E596E0F6
:101470006BE00E94A1226091B203772767FD70950F
:1014800081E596E00E94A12281E596E065E10E9457
:10149000A1228091B503882319F460E370E002C0B3
:1014A00061E370E081E596E00E94A12281E596E08B
:1014B0006EE10E94A1228091B403882319F460E0B8
:1014C00071E002C062E071E081E596E00E94760979
:1014D00081E596E068E20E94A12281E596E06091B4
:1014E000AE030E94A12281E596E06CE00E94A12259
:1014F0006091C103772767FD709581E596E00E94B2
:10150000A12281E596E06DE00E94A1226091C203D4
:10151000772767FD709581E596E00E94A12281E51D
:1015200096E06EE00E94A1226091C903772767FDD3
:10153000709581E596E00E94A12281E596E06FE03A
:101540000E94A1226091CA03772767FD709581E50B
:1015500096E00E94A12281E596E066E10E94A12228
:101560008091C503882319F460E370E002C061E351
:1015700070E081E596E00E94A12281E596E067E1B6
:101580000E94A1228091CD03882319F460E370E0CA
:1015900002C061E370E081E596E00E94A12281E54E
:1015A00096E00E94E42208950F931F9381E596E050
:1015B00062E070E048E050E00E94F522882309F4E0
:1015C0006FC01092AB0310920F0101E061C081E582
:1015D00096E00E94F721182F8A3089F08B303CF476
:1015E000813009F43DC0823009F049C043C08531E3
:1015F000A1F08E3151F18B3009F041C007C081E577
:1016000096E00E94F7218093B90342C081E596E0FD
:101610000E94F7218093BA033BC081E596E00E94C7
:10162000F721C197A9F58091B9036091BA03772793
:1016300067FD7095660F771F660F771F880F880FFD
:101640004EED53E00E945F0623C081E596E00E94C4
:10165000F7211092BC03C197D9F40093BC0318C0C2
:1016600082E293E065EC71E042E00E943019109351
:101670000F010EC082E293E068EB71E004C082E2E9
:1016800093E067EA71E042E00E94301900930F0195
:1016900081E596E00E94EE21892B09F098CF0CC0DD
:1016A00082E293E064E971E042E00E94301981E057
:1016B00080930F018093AB031F910F9108950E94B7
:1016C000D40A0E94220A089581E596E00E94F92238
:1016D0000895DF93CF93CDB7DEB728970FB6F89470
:1016E000DEBF0FBECDBFF22F29833A834B835C83CD
:1016F0006D837E838F8398876F2F432F772369F0C5
:10170000992329F480E793E021E337E004C080E7E0
:1017100093E028E337E00E94601628960FB6F8940D
:10172000DEBF0FBECDBFCF91DF9108952091AF03F3
:101730003091B0034091B1035091B2036091B30373
:101740007091B4038091B5039091B6030E94690B28
:101750008091AD03882391F42091B7033091B803B1
:101760004091B9035091BA036091BB037091BC03DF
:101770008091BD039091BE030E94690B2091BF032D
:101780003091C0034091C1035091C2036091C303E3
:101790007091C4038091C5039091C6030E94690BA8
:1017A0002091C7033091C8034091C9035091CA03E7
:1017B0006091CB037091CC038091CD039091CE03C7
:1017C0000E94690B08951F93142F0E94DB05882344
:1017D00079F060E070E080E090E02AE030E040E006
:1017E00050E00E9446296B5C7F4F611B71090AC063
:1017F00060E070E080E090E02AE030E040E050E01F
:101800000E944629CB011F9108959F92AF92BF92EB
:10181000CF92DF92EF92FF920F931F93CF93DF93BC
:10182000C82ED62E962E85E1689F50011124EC2CEF
:1018300000E010E0FF24E501C05FDE4FFE01EE0D89
:10184000F11D80818150823030F4EC2CFF24E501C1
:10185000C05FDE4F0DC08E2D6D2D4F2D0E94E30B0E
:10186000080F191FF394E39483E0F81639F7EDCFCE
:10187000FE01EE0DF11D80818150823040F4ED2C8F
:10188000FF24CC2DD0E085E1A82EB12C0DC08E2DEB
:101890006D2D4F2D0E94E30B080F191FF394EA944E
:1018A00083E0F81629F7EBCF8E2D90E08A9DF001AA
:1018B0008B9DF00D9A9DF00D1124EC0FFD1FE05F44
:1018C000FE4F80818150823028F4FF24B5E1AB2E99
:1018D000B12C0DC08C2D6E2D4F2D0E94E30B080FE7
:1018E000191FF394E39483E0F816F1F6EECF892DF7
:1018F00090E08A9DF0018B9DF00D9A9DF00D1124D2
:10190000EC0FFD1FE05FFE4F80818150823060F060
:101910008C2D692D4F2D0E94E30B080F191FF39496
:101920009A9483E0F81619F7C801DF91CF911F91BF
:101930000F91FF90EF90DF90CF90BF90AF909F906E
:1019400008950F931F93CF93DF938C01EB018FE0EA
:1019500097E2F801918380839383828395838483C4
:10196000978386834A816B816F5F262F30E085E104
:1019700090E0289FF001299FF00D389FF00D112471
:10198000E40FF11DE05FFE4F8081882331F4842F46
:101990000E94050CF801918380834A814F5F6B811F
:1019A000262F30E085E190E0289FF001299FF00D7F
:1019B000389FF00D1124E40FF11DE05FFE4F808190
:1019C000882331F4842F0E94050CF80193838283CD
:1019D0004A816B816150262F30E085E190E0289F9D
:1019E000F001299FF00D389FF00D1124E40FF11D37
:1019F000E05FFE4F8081882331F4842F0E94050C24
:101A0000F801958384834A8141506B81262F30E011
:101A100085E190E0289FF001299FF00D389FF00D9F
:101A20001124E40FF11DE05FFE4F8081882331F423
:101A3000842F0E94050CF80197838683DF91CF9154
:101A40001F910F910895CF92DF92EF92FF920F9323
:101A50001F93DF93CF93CDB7DEB728970FB6F894D7
:101A6000DEBF0FBECDBF29833A834B835C836D837A
:101A70007E838F839887042F152F16160CF46BC066
:101A8000D42EDA948D2D652F0E94050CC3970CF08F
:101A900062C0E02EE3948E2D612F0E94050CC39747
:101AA0000CF059C0F12EFA94802F6F2D0E94050C76
:101AB000C3970CF050C0C12EC394802F6C2D0E9490
:101AC000050CC3970CF047C060E070E080E090E048
:101AD0002EE130E040E050E00E944629611571059A
:101AE00081059105D1F185E1189FB0011124605F56
:101AF0007E4FFB01ED0DF11D8081823071F1FB0104
:101B0000EE0DF11D8081823041F1402F50E08F2D8C
:101B100090E065E170E0869FF001879FF00D969F51
:101B2000F00D1124E40FF51FE05FFE4F808182303D
:101B3000A1F020E08C2D90E0869FF001879FF00DB2
:101B4000969FF00D1124E40FF51FE05FFE4F80819A
:101B5000823021F402C020E001C021E0822F2896CB
:101B60000FB6F894DEBF0FBECDBFCF91DF911F91AE
:101B70000F91FF90EF90DF90CF900895EF92FF923A
:101B80000F931F93DF93CF93CDB7DEB728970FB690
:101B9000F894DEBF0FBECDBF7C01FC018581882398
:101BA00009F4D0C016822081332727FD3095828129
:101BB000992787FD9095880F991F880F991F2817DF
:101BC000390709F0A9C02181332727FD309583818A
:101BD000992787FD9095880F991F880F991F2817BF
:101BE000390709F099C08E010F5F1F4FC801B70177
:101BF0000E94A10CF80106E910E08FE097E240E0B6
:101C000050E0608171816817790714F0BC0101C050
:101C10008A014F5F5F4F32964430510511F0CB017E
:101C2000F0CF6333710544F0F701828163810E9434
:101C3000050CC2970CF470C00130110589F0023018
:101C400011051CF4012B41F03FC00230110561F079
:101C500003301105C9F521C0F70153815F5F07C04B
:101C6000F70142814F5F1CC0F70153815150252F6E
:101C700030E0428185E190E0289FF001299FF00D3E
:101C8000389FF00D1124E40FF11DE05FFE4F8081BD
:101C90008823D1F4F701538317C0F70142814150E3
:101CA000838190E025E130E0829FF001839FF00D79
:101CB000929FF00D1124E40FF11DE05FFE4F808133
:101CC000882311F4F7014283F70120813181428199
:101CD000538164817581868197810E94230D8823B9
:101CE000A9F0F70182816381772767FD7095660F00
:101CF000771F660F771F880F880F4DEE53E00E9405
:101D00005F0681E0F701868384E105C0F7018481E5
:101D1000181614F481508483F701838190E0428186
:101D200025E130E0829FF001839FF00D929FF00D3E
:101D30001124E40FF11DE05FFE4F8081833010F02D
:101D4000F701158228960FB6F894DEBF0FBECDBFFF
:101D5000CF91DF911F910F91FF90EF9008958FEB3E
:101D600093E00E94BE0D87EC93E00E94BE0D0895A3
:101D70000F931F938091A903882309F459C08150C0
:101D80008093A9030091FD031091FE032091A80305
:101D900030E066277727621B730B882777FD8095D5
:101DA000982F2F5F3F4F442737FD4095542F0E94B7
:101DB0004629060F171F1093FE030093FD030091A1
:101DC000FF03109100042091A80330E066277727D5
:101DD000621B730B882777FD8095982F2F5F3F4FED
:101DE000442737FD4095542F0E944629060F171FA0
:101DF000109300040093FF03109125032091270303
:101E0000269526958091A803289F900111244427A8
:101E100037FD4095542F60E070E080E090E00E9434
:101E20004629161B82E293E0612F0E94181208C017
:101E30001092FE031092FD03109200041092FF0313
:101E40001F910F910895CF92DF92EF92FF920F931F
:101E50001F93CF93DF930E94B80EEE24FF24DD245E
:101E60003BC00881002359F1013079F48091FD03D2
:101E7000612F681B8091FF034D2D481B80E793E085
:101E800024E004E00E9427141AC0033078F080E7B1
:101E900093E0612F4D2D2BE237E00E946016802FDA
:101EA0008150823009F480E0888309C0612F6F5F20
:101EB00080E793E04C2D22E002E00E945D14219621
:101EC0001C5F143571F685E190E0E80EF91E94E090
:101ED000D90E80E3D81639F0CD2CC394E701C05F4A
:101EE000DE4F10E0BECFDF91CF911F910F91FF9099
:101EF000EF90DF90CF900895EF92FF920F931F9392
:101F0000CF93DF93CFECD3E06DEEE62E63E0F62EB9
:101F10000EED13E08C81882379F08A8164E10E94C0
:101F2000A02A963048F068816E5F49814E5F80E755
:101F300093E021E00E94AB15F8018481882379F0B9
:101F4000828164E10E94A02A963048F060816E5F31
:101F500041814E5F80E793E021E00E94AB15F701DD
:101F60008481882379F0828164E10E94A02A9630DE
:101F700048F060816E5F41814E5F80E793E021E031
:101F80000E94AB15259685E090E0E80EF91E0B5FE8
:101F90001F4F93E0CE3DD90709F0BCCFDF91CF9121
:101FA0001F910F91FF90EF900895EF92FF920F9382
:101FB0001F9310E0E4E5EE2E7CE0F72E82E293E042
:101FC0000E94FD1A8823D1F30E94230F0E94960BD2
:101FD0000E947C0F80E793E060E00E948E1380E710
:101FE00093E060E040E0212F00E30E9427146E2D73
:101FF000611B80E793E040E0212F0E94271480E7D7
:1020000093E061E040E00E949213F092790381E056
:1020100080937A031E5F1E3389F61F910F91FF9004
:10202000EF9008951F930E94D50F1AE282E293E089
:102030000E94FD1A8823D1F380E793E060E040E03E
:1020400022ED31E00E94601660E070E080E090E0F8
:1020500022E030E040E050E00E944629625E60935A
:10206000790360E070E080E090E022E030E040E062
:1020700050E00E944629605E60937A038091AD0330
:10208000882371F08091B403882329F080E793E0DE
:1020900062E373E012C080E793E067E273E00DC093
:1020A0008091B403882329F480E793E069E173E029
:1020B00004C080E793E06BE073E00E944328109235
:1020C000790310937A0380E793E06DEF72E00E944A
:1020D000F8278CE293E064E00E94DB12882379F415
:1020E0008CE293E065E00E94DB12882341F48CE2ED
:1020F00093E066E00E94DB12882309F497CF81E029
:102100008093B4038093BC031F910895CF93DF9312
:10211000EC018D81882309F4B1C080910F018823DF
:1021200009F0ACC01E822881332727FD30958A81B3
:10213000992787FD9095880F991F880F991F281759
:10214000390709F052C02981332727FD30958B814B
:10215000992787FD9095880F991F880F991F281739
:10216000390709F042C080C08A818F5F6B810E946D
:102170007B068823D1F18A818F5F11C08CE293E0C6
:1021800060E041E00E94E512882359F08A81815085
:102190006B810E947B06882341F18A8181508A836A
:1021A00024C08CE293E061E041E00E94E5128823C4
:1021B00051F06B8161508A810E947B068823A9F0CF
:1021C0008B81815011C08CE293E063E041E00E947A
:1021D000E512882351F06B816F5F8A810E947B0634
:1021E000882319F08B818F5F8B838CE293E064E00E
:1021F0000E94DB12882319F18091AA039A816B81D6
:10220000882369F0772767FD7095660F771F660F43
:10221000771F892F880F880F4FEC53E00CC077276A
:1022200067FD7095660F771F660F771F892F880FE0
:10223000880F4EED53E00E945F0681E08E838B8114
:1022400090E04A8125E130E0829FF001839FF00D0C
:10225000929FF00D1124E40FF11DE05FFE4F80818D
:10226000833060F01D820AC08CE293E062E041E0BE
:102270000E94E512882309F077CF80CFDF91CF91BC
:1022800008951F9311E010930F0182E293E06FE332
:1022900077E043E00E94B61B813069F0823091F014
:1022A0008823C9F410920F011093AB031093AA0373
:1022B0001093AD0312C010920F011092AB038093E4
:1022C000AA0306C010920F011092AB031092AA034A
:1022D0001092AD0302C00E94AF0882E293E00E9418
:1022E000FD1A882309F43FC08CE293E066E00E9467
:1022F000DB12882309F053C08FEA93E00E9429067D
:102300008091AD03882321F487EB93E00E94290696
:102310008FEB93E00E94290687EC93E00E94290648
:102320008091AA03882369F08FEA93E00E948610C7
:102330000E94AF0E8091AD03882369F40E945F0B69
:102340000AC087EB93E00E9486108091AD0388233A
:1023500011F40E94E9090E94C5070E94230F0E9400
:10236000960B0E947C0F8091B403882399F0809192
:10237000BC03882379F08091AD03882309F4ADCFA5
:102380008091C403882309F0A8CF8091CC038823CF
:1023900009F0A3CF0E9412100E9484089ECF1F91C3
:1023A000089582E293E00E94811E0E94AF0810927D
:1023B0003A030E94640B0E940C0A0895882319F4C2
:1023C0008CB5806202C08CB58F7D8CBD08959CB5A4
:1023D000937F982B9CBD08952CB5382F33702C7F9C
:1023E000322B3CBD2DB590E09595879595958795B9
:1023F00081702E7F822B8DBD08958AE061E00E945E
:102400005C278AE061E00E94F0268CB580618CBD7B
:102410008CB580648CBD8DE061E00E94F0268BE07D
:1024200061E00E94F0260895FC0181E08083089518
:1024300085E070E00E94902608956F927F928F92BF
:102440009F92AF92BF92CF92DF92EF92FF920F9343
:102450001F93CF93DF93EC0189819A818C0124E053
:10246000000F111F2A95E1F7081B190B85E10E9447
:102470006E26BC01600F711F84E0769567958A9582
:10248000E1F77A8369838881882381F12E813F81F6
:102490006217730710F4B90106C0888599858617FD
:1024A000970708F4BC0100D000D080E090E040E045
:1024B00050E0E884F98400E010E0AD80BB24CC2437
:1024C000DD246C80772488249924EDB7FEB76182DF
:1024D0007282838294820E94DB286B830F900F901C
:1024E0000F900F9085E070E00E949026DF91CF91D1
:1024F0001F910F91FF90EF90DF90CF90BF90AF9022
:102500009F908F907F906F900895FC018CE39FE0E7
:102510009383828384E0818381E084870895CF93CD
:10252000DF93EC018C8590E08F719070892B69F5B9
:1025300084E10E946E26AA2797FDA095BA2FBC01C0
:10254000CD010E94922926EE3FE34EEC50E40E941A
:102550001E2A0E9464299B01AC017B836A8361155A
:10256000710589F084E08983B901FE0120E084814E
:1025700095816817790710F429830AC02F5F329676
:102580002430A9F702C08FEF89838C858F5F8C87F9
:10259000DF91CF910895FC0188E0808389E08183F9
:1025A00087E0828386E0838384E0848382E085837E
:1025B00081E18683089520E0FC01E60FF11D87810B
:1025C000813009F421E0822F0895E62FF0E04230B7
:1025D00040F420E0E80FF91F878181508E3F88F496
:1025E0000FC0E80FF91F87818F3F11F420E009C069
:1025F00020E090E0642F70E00E94AC2A019709F47B
:1026000021E0822F08950F931F93CF93DF93EC0166
:1026100010E00FEF888162E00E94F02688810E941E
:102620008F272F81892B19F42F5F2F8307C0222337
:1026300049F02F3F11F41F8201C00F83888160E0B1
:102640000E94F0261F5F2196173021F7DF91CF916E
:102650001F910F910895FC01742F643508F05DC03F
:1026600047FD5BC040330CF058C0878D823019F5B0
:10267000842F859585958595992787FD9095462F7B
:10268000552747FD509524E530E0829FF001839F58
:10269000F00D929FF00D1124E40FF51FE75FFB4F43
:1026A000808190E0272F277002C0959587952A9505
:1026B000E2F780958170972F959595959595462F82
:1026C000552747FD5095272F27708823A1F4E4E56F
:1026D0009E02F0011124E40FF51FE75FFB4F81E03C
:1026E00090E002C0880F991F2A95E2F7809520811B
:1026F000282320830895E4E59E02F0011124E40FCD
:10270000F51FE75FFB4F81E090E002C0880F991F43
:102710002A95E2F72081282B20830895FC01678FFA
:1027200060A30895FC01678F40A30895AF92BF9204
:10273000CF92DF92EF92FF920F931F93CF93DF938D
:10274000EC01162FF42EE22EAA24402F552747FD28
:1027500050958F2D992787FD9095481B590B57FF52
:1027600003C0509541955F4F2E2D332727FD30959F
:10277000812F992787FD9095281B390B37FF03C0C0
:10278000309521953F4F2417350744F4AA24A3948C
:102790008F2DF12E182F802F0E2DE82EE11634F4F8
:1027A0008E2DE12E182F802F0F2DF82EDE2CD11A12
:1027B000202F332727FD30958F2D992787FD909562
:1027C000281B390B37FF03C0309521953F4FB22EA0
:1027D000F0161CF0CC24CA9402C0CC24C3948D2DD6
:1027E000D7FC8F5F082F059511C0AA2021F0CE01DC
:1027F0006F2D412F03C0CE01612F4F2D0E942B134F
:102800000B1907FF02C0FC0C0D0D1F5FE1166CF7E2
:10281000DF91CF911F910F91FF90EF90DF90CF90BC
:10282000BF90AF9008950F93042F322F262F215081
:10283000230F0E9496130F9108950F93362F042FA4
:102840000150020F232F0E9496130F9108959F921B
:10285000AF92BF92CF92DF92EF92FF920F931F93AE
:10286000CF93DF936C01B62E942EA02EC0E0D0E063
:10287000E62EFF24E7FCF094022F112707FD1095A8
:102880000E0D1F1D06C0C601492D2A2D0E941D14C4
:1028900021966B2D6C0FCE018E0D9F1D8017910719
:1028A00094F3DF91CF911F910F91FF90EF90DF9004
:1028B000CF90BF90AF909F900895CF92DF92EF920C
:1028C000FF920F931F937C01162FD42EC22E0E94CD
:1028D00013144D2D4150400FC701612F2C2D0E9424
:1028E0001314C701612F4D2D202F0E941D1411506C
:1028F0001C0DC701612F4D2D202F0E941D141F910B
:102900000F91FF90EF90DF90CF9008952F923F921C
:102910005F926F927F928F929F92AF92BF92CF926F
:10292000DF92EF92FF920F931F93DF93CF9300D02C
:1029300000D000D0CDB7DEB79E838D83C62ED42EB7
:10294000EE24E394E21A8EEF289F502C1124842E5B
:102950008A94962E9A94A42EA394B62EB394F22E13
:10296000662423E0722E10E0C801847090709A8370
:102970008983F801E270F070FC83EB8398E0292EE4
:10298000312C202231220170107054C0E7FC04C0A9
:10299000FA94F2E05F0EE50C639489819A81892BA9
:1029A00071F04F2D4D0D8D819E816B2D0E942B134B
:1029B0006F2D6C0D8D819E814A2D0E942B13EB8112
:1029C000FC81EF2B71F04D2D4F198D819E816B2D68
:1029D0000E942B136F2D6C0D8D819E81482D0E94BE
:1029E0002B132114310471F06C2D6F198D819E8190
:1029F0004A2D0E942B134F2D4D0D8D819E81692DE7
:102A00000E942B130115110571F06C2D6F198D812A
:102A10009E81482D0E942B134D2D4F198D819E8133
:102A2000692D0E942B13E70CF2E07F0E8A949A9492
:102A3000A394B3946F140CF4A9CF26960FB6F89410
:102A4000DEBF0FBECDBFCF91DF911F910F91FF90E1
:102A5000EF90DF90CF90BF90AF909F908F907F903E
:102A60006F905F903F902F9008954F925F926F927A
:102A70007F928F929F92AF92BF92CF92DF92EF920E
:102A8000FF920F931F93CF93DF93EC01A62E742E2A
:102A90009E2DFF24F394F21A8EEF289F802C112490
:102AA000B42EBA9453E0C52ECE0CE22EDD2443E0C2
:102AB000942E10E031E0432E512C40225122692EF9
:102AC00063940270107034C0F7FC04C0EA9482E092
:102AD000880EF80CD3944114510489F06D2D6A0DC1
:102AE000472D4E192E2D220F260DCE010E941D14AA
:102AF0006E2D6A0DCE014B2D2C2D0E941D1401153B
:102B0000110589F06A2D6D19472D4E192E2D220FB2
:102B1000260DCE010E941D146A2D6E19CE014B2D7B
:102B20002C2D0E941D14F90C82E0980EBA94C80E48
:102B3000DE1454F2DF91CF911F910F91FF90EF902F
:102B4000DF90CF90BF90AF909F908F907F906F90CD
:102B50005F904F900895DF92EF92FF920F931F9333
:102B60007C01062FD42E122F421B220F2F5F0E94B2
:102B70001D14C701602F4D2D212F03E0EE240E946C
:102B800035151F910F91FF90EF90DF9008957F9280
:102B90008F929F92AF92BF92CF92DF92EF92FF926D
:102BA0000F931F936C01962EA42EF22E7E2C760E80
:102BB0001EEFE19E102D1124812E820E672D282DEF
:102BC0000E941314B02EBA0CBA94C601672D4B2D77
:102BD000282D0E941314AE0C100FC601692D4A2D2A
:102BE000212F0E941D14F90CFA94C6016F2D4A2D55
:102BF000212F0E941D14C601672D4A2D2E2D01E0A4
:102C00000E948614FE18C6016F2D4A2D2E2D02E05B
:102C10000E948614BE18C6016F2D4B2D2E2D04E088
:102C20000E948614C601672D4B2D2E2D08E00E94B0
:102C300086141F910F91FF90EF90DF90CF90BF907F
:102C4000AF909F908F907F9008958F929F92AF92B8
:102C5000BF92CF92DF92EF92FF920F931F936C017E
:102C6000162FA42E922EF02EBE2C8E2C860E2EEF1A
:102C7000E29EE02C11242E2D290D682D0E94271490
:102C8000AB0CFA94FE0C1150190D1B19C601612FE3
:102C90004A2D2B2D01E0EF2C0E943515C601682D21
:102CA0004A2D2B2D02E00E9435151F910F91FF90A8
:102CB000EF90DF90CF90BF90AF909F908F9008954E
:102CC0003F924F925F926F927F928F929F92AF92BC
:102CD000BF92CF92DF92EF92FF920F931F93CF9309
:102CE000DF934C01362E442EF901A4903196549076
:102CF0006F010894C11CD11C8A2D992787FD9095DE
:102D0000079668E070E00E94C02AE62EFF24E7FCE8
:102D1000F09400E0C0E0D0E060E8662E712C26C0A0
:102D2000E12FE595E595E595FF27E7FDF095EC0F9B
:102D3000FD1FEC0DFD1DE4912E2F30E0812F8770DB
:102D4000A30102C0559547958A95E2F724233523C0
:102D5000232B31F0612F630DC4014B2D0E942B13E7
:102D60001F5F1A15ECF20F5FCE0DDF1D051524F461
:102D700010E0B02EB40CF5CFDF91CF911F910F91E1
:102D8000FF90EF90DF90CF90BF90AF909F908F908B
:102D90007F906F905F904F903F900895DC01FB0112
:102DA00084918F5F14968C931497319684918F5FE2
:102DB00015968C93159731965E96FC93EE935D97DE
:102DC00008953F924F925F926F927F928F929F925F
:102DD000AF92BF92CF92DF92EF92FF920F931F9329
:102DE000CF93DF93EC01862EA42E422F102F3F8C21
:102DF00023E526170CF4ABC03FE23A150CF4A7C04C
:102E0000C02EDD248C8190E001979C01C29EC00100
:102E1000C39E900DD29E900D1124262F332727FD9F
:102E20003095820F931F181619060CF090C08D81F3
:102E300090E09C01C29EC001C39E900DD29E900D59
:102E400011242A2D332727FD3095820F931F181642
:102E500019060CF07CC09924442E55246DC09C01A9
:102E6000215030404217530711F460E00EC0429EDB
:102E7000C001439E900D529E900D1124840F951F0A
:102E8000ED8DFE8DE80FF91F64914C9DC0014D9DA5
:102E9000900D5C9D900D1124682C680EBB24792C3C
:102EA000780C3FC0E62EFF2460FF19C0113039F4C2
:102EB0004B2D4A0DCE01672D0E942B132EC02C9D49
:102EC000C0012D9D900D3C9D900D11244A2D480F61
:102ED000CE01662D212F012F0E9427141EC098A11C
:102EE0008F8D9817D1F09F8F113039F44B2D4A0DEB
:102EF000CE01672D0E942B130FC02C9DC0012D9D6C
:102F0000900D3C9D900D11244A2D480FCE01662D49
:102F1000212F012F0E9427143F8EF594E7946E2DE8
:102F2000B3942B2D332727FD30958D8190E0281702
:102F300039070CF4B7CF9394492D552747FD509589
:102F40008C8190E0481759070CF489CF3F8EDF91B0
:102F5000CF911F910F91FF90EF90DF90CF90BF9096
:102F6000AF909F908F907F906F905F904F903F9029
:102F700008950F93CF93DF93EC01262F6A3049F425
:102F80008D819885899F802D11249A85980F9A8725
:102F900026C06D3029F169854A8508850E94E116B1
:102FA0009C816885969F402D11248985480F49870B
:102FB0008F818823A9F0552747FD5095699F90017F
:102FC000112484E590E0821B930B8417950744F449
:102FD0009D81699F902D11248A85890F8A87198682
:102FE00081E090E0DF91CF910F9108951F93CF93EF
:102FF000DF93EC01162FF8948E8560E00E945C2729
:103000008F8518161CF460E00E945C271EBD0DB46D
:1030100007FEFDCF8EB58F8518161CF461E00E9467
:103020005C277894DF91CF911F910895FF920F93C1
:103030001F93CF93DF93EC01FF2400E010E06F2D8E
:103040006064CE010E94F617CE0160E80E94F61778
:103050008E8561E00E945C278F8518161CF460E065
:103060000E945C27F801E75FFB4F90E080818EBDF6
:103070000DB407FEFDCF8EB59F5F31969435B1F745
:103080008F8518161CF461E00E945C27F3940C5A9B
:103090001F4F86E0F81699F6CE0160E40E94F617FD
:1030A000DF91CF911F910F91FF900895CF93DF9300
:1030B000DC0188EF91E0E9E0F4E0EF019C01199276
:1030C00021503040E1F719961C9219971A961C92DC
:1030D000DF91CF910895EF920F93CF93DF93EC019F
:1030E0004D876C872E87E88A0F8781E088878F8FCE
:1030F00018A28F83CE016DE677E00E94CE160E9463
:10310000FD1181E00E94DE1185E00E94EC118CE04F
:103110000E94E7118D8561E00E94F0268C8561E0B8
:103120000E94F0268E8561E00E94F026888918169C
:103130001CF461E00E94F0268F8518161CF461E0F3
:103140000E94F026888918166CF460E00E945C27C3
:103150006AE070E080E090E00E940D26888961E0DE
:103160000E945C27EC852E2F332727FD3095F9012F
:10317000E456F54FE491F0E0EE0FFF1FE857F54FEE
:10318000859194919C8B8B8B2055354FF9018491BF
:103190008A8FED852E2F332727FD3095F901E456D0
:1031A000F54FE491F0E0EE0FFF1FE857F54F8591E2
:1031B00094919A8B898B2055354FF9018491898F91
:1031C000EF852E2F332727FD3095F901E456F54F73
:1031D000E491F0E0EE0FFF1FE857F54F85919491D1
:1031E0009E8B8D8B2055354FF90184918B8FEE8509
:1031F0002E2F332727FD3095F901E456F54FE49142
:10320000F0E0EE0FFF1FE857F54F85919491988FEE
:103210008F8B2055354FF90184918C8FCE0161E25F
:103220000E94F617CE0164E10E94F6178B8587FF96
:1032300002C08FE78B876B856068CE010E94F6170E
:10324000CE0160E20E94F617CE016CE00E94F617F4
:10325000CE010E941618DF91CF910F91EF90089543
:10326000FC01ED57FF4F61937193445F40830895D4
:10327000CF93DF93DC01E0E8F7E785919491ED01CE
:10328000C75ADF4FAD0141595F4F8150904C09F053
:103290004EC0E6E9F7E7E491E883E7E9F7E7E49170
:1032A0001496EC931497E8E9F7E7E4911596EC93FC
:1032B0001597E9E9F7E78591949117969C938E937A
:1032C0001697EBE9F7E78591949119969C938E9365
:1032D0001897EDE9F7E7E4919B96EC939B97EEE95D
:1032E000F7E7E4919A96EC939A97EFE9F7E7E49180
:1032F000EA01E883E0EAF7E7859194915D969C9373
:103300008E935C97E2EAF7E7859194915F969C93A0
:103310008E935E97E4EAF7E78591949191969C935A
:103320008E939097E6EAF7E78591949132C08CE30B
:10333000888314961C9214972FEF15962C9315974B
:1033400080E293E017969C938E93169784ED93E01A
:1033500019969C938E93189781E09B968C939B97DC
:103360009A968C939A97FA0120838CEA9DE05D9659
:103370009C938E935C978EED9DE05F969C938E93CD
:103380005E9784E79EE091969C938E9390978CE352
:103390009FE093969C938E939297DF91CF9108959F
:1033A000EF92FF920F931F93CF93DF937C018C01D9
:1033B000025B1F4FC8010E945618C80164E179E002
:1033C0000E94F827C8010E94161883E00E94EC11A1
:1033D00084E091E0EEEFFFE3099584E590E0E80EEC
:1033E000F91EF7011082C8016FEE78E00E944328B1
:1033F000C8010E941618E701CA54D040CE010E94AD
:103400000313CE0164E00E94DB12882339F462E3E7
:1034100070E080E090E00E940D26F0CFDF91CF9128
:103420001F910F91FF90EF9008950F931F93CF93EB
:10343000DF93EC018C01025B1F4FC80161E040E0AB
:103440000E949213FE01E95AFF4FCE5ADF4F85E5E5
:103450009881891B808326961882C855D040698D33
:10346000613009F43EC0613028F0888D653008F085
:1034700051C04BC0CE0185960E94861FCE0160E0F0
:103480000E941812C8010E945618CA5ADF4F81E0E4
:103490008883C655D040C80160E579E00E94F827CE
:1034A0006A8D7B8DC8014AE050E00E94CA28C8019D
:1034B0006CE379E00E94F827C8010E94161883B7D0
:1034C000817F846083BF83B7816083BF83B781605E
:1034D00083BF889583B78E7F83BF83B78E7F83BF7B
:1034E0001FC0C059DF4F88819981AA81BB818F702D
:1034F0009070A070B0700897A105B10518F4C801CC
:1035000067E00CC0C80168E709C0882349F06B5F19
:10351000C80104C0882321F0C8016FE20E941B2863
:10352000DF91CF911F910F910895AF92BF92CF92EB
:10353000DF92EF92FF920F931F93CF93DF93EC01F3
:10354000CB57DF4F8881C558D040882309F44AC043
:103550008C3010F010E002C01CE0181BCA5ADF4F7C
:1035600081E08883C655D0406EE4C62ED12CCC0EA7
:10357000DD1EC60160E00E948E1353E5A52EB12C1E
:10358000AC0EBD1EF50100814DE2F42E4F2D401B07
:10359000410F0D5FC60160E024E533E0E32E0E9499
:1035A0002516C60161E00E948E13F5010081F01A14
:1035B000F10E0D5FC60160E04F2D24E50E94C71596
:1035C000C95ADF4F84E08993F5018081181B115D92
:1035D0001883AB9669917991C6010E94F82788817A
:1035E00081508883DF91CF911F910F91FF90EF90D1
:1035F000DF90CF90BF90AF900895AF92BF92CF92DF
:10360000DF92EF92FF920F931F93CF93DF93EC0122
:10361000EFE7AE2EB12CA80EB91EF501E080F180C7
:10362000028113810E94D925E61AF70A080B190BAB
:103630007EE7C72ED12CCC0EDD1EF601808190E0F6
:10364000A0E0B0E08E159F05A007B10708F081C08B
:103650008E0106581F4FF80180819181A281B381AC
:103660000097A105B10509F474C00E94D925F6019F
:103670002081620F711D811D911DF5016083718391
:1036800082839383FE01E059FF4F80819181A28163
:10369000B3810196A11DB11D80839183A283B38361
:1036A000F80110821182128213820E94E725CA5803
:1036B000DF4F688379838A839B83C657D040CE01CE
:1036C0000E941D12CE010A960E940313CE01489655
:1036D0000E948F1281E032C08E010B5D1F4FC80126
:1036E0000E94D41FC8010E944B20C8010E942E21B5
:1036F000CE010E94951ACE010E94151A8E01025B1E
:103700001F4FC8010E941618CC5ADF4F8881C4553C
:10371000D040882319F4C8010E9456180E94E7255A
:10372000C658DF4F688379838A839B8324972881D7
:103730003981621B730B7A936A9380E0DF91CF919A
:103740001F910F91FF90EF90DF90CF90BF90AF90BF
:103750000895C658DF4F88819981AA81BB81CA57D5
:10376000D0400097A105B10541F7B6CF2F923F9207
:103770004F925F926F927F928F929F92AF92BF9281
:10378000CF92DF92EF92FF920F931F93DF93CF932D
:10379000CDB7DEB762970FB6F894DEBF0FBECDBFD0
:1037A0006C016C837D834B8324E530E0C20ED31E15
:1037B000F60110822CEA3FEFC20ED31E1AE0A12EB2
:1037C000B12CAC0CBD1CB5E22B2E312C2C0C3D1CAD
:1037D000AEE44A2E512C4C0C5D1C1A823FEF39830B
:1037E00010E0F0E37F2E6624A601495A5F4F5F8305
:1037F0004E83C601885A9F4F99878887F601EA5AF7
:10380000FF4FFB87EA8796012B5A3F4F3D872C8756
:10381000E3E58E2E912C8C0C9D1C5B81452F50E096
:103820005F874E878B818150888BC6010E94FD1A6D
:103830008823D9F3C50164E00E94DB12882369F470
:10384000C50165E00E94DB12882339F4C50166E0FA
:103850000E94DB12882309F4D3C0F4010081C50162
:1038600064E00E94DB12882329F0C1010E948B21B1
:103870001983CBC0C1010E949121C7C0C50163E07B
:1038800044E00E94E512882321F01F5FC1010E94DD
:103890009721C50161E044E00E94E512882321F0F0
:1038A0001150C1010E949721812F992787FD909582
:1038B0002E853F858217930711F410E002C017FD93
:1038C0001889F4018081819F902D11248C5F682ECE
:1038D000691A28C0872D992787FD9095262D3327B3
:1038E00027FD3095821B930B0297D4F48981629651
:1038F0000FB6F894DEBF0FBECDBFCF91DF911F9101
:103900000F91FF90EF90DF90CF90BF90AF909F907E
:103910008F907F906F905F904F903F902F90089581
:10392000F1E0FA83862D992787FD9095272D33277F
:1039300027FD3095820F931F62E070E00E94C02A3D
:10394000762EEE81FF811082E885F985608321E083
:10395000EA85FB852083EC85FD8510822C813D81E5
:10396000C9019A8B898B00E0E12EFF24E7FCF094DB
:1039700020C0802F90E08E159F0569F423E0EE8132
:10398000FF812083F40180818E9D802D1124870D7D
:10399000E885F9858083E989FA8965917491C20186
:1039A0000E9443280F5F29893A892E5F3F4F3A8B47
:1039B000298B3B810317E8F2C20160E00E948E135D
:1039C000F40140814E9D402D11244150470DC2010C
:1039D00060E024E50E941314C20161E00E948E138E
:1039E000F40100810E9D402D11244250470D0D5FC2
:1039F000C20160E024E573E0E72E0E94C71515CFF1
:103A0000FA81FF2309F066CF39CF802F90E090959F
:103A100081959F4F2E853F85AC01249FC001259F36
:103A2000900D349F900D11246EEF662E680E52CFCC
:103A30002F923F924F925F926F927F928F929F92BE
:103A4000AF92BF92CF92DF92EF92FF920F931F93AC
:103A5000DF93CF93CDB7DEB72B970FB6F894DEBFC9
:103A60000FBECDBF9B878A877A8369835C834B8334
:103A70008C0101591F4FF8018081882309F422C16C
:103A80008A859B858A5A9F4F9B878A8781E0EA8532
:103A9000FB85808312921292E455F040FB87EA87FF
:103AA000108E9EE4E92EF12CEE0EFF1EC70161E0A0
:103AB0000E948E138AE0282E312C8A859B85280E41
:103AC000391EB5E26B2E712C680E791EE981FA81E0
:103AD000F491FD83A7E58A2E912C880E991EF8E5B6
:103AE000CF2ED12CC80ED91EE2E54E2E512C480EF9
:103AF000591E8D5A9F4F9F838E8370E7A72EB12C3E
:103B00008A859B85A80EB91E198708878A859B859B
:103B10000E94FD1A8823D1F39D81992311F410E0AE
:103B200003C0EE81FF811081C70160E040E02DE815
:103B300039E00E9460168B819C81892B41F0145FD3
:103B4000C70160E0412F2B813C810E946016F40187
:103B500010828CE0F6018083C70169817A810E941E
:103B6000F827F201208130E0C901880F991F820FE8
:103B7000931F909581959F4F8D5AF4018083EE811C
:103B8000FF81208130E0C901880F991F820F931FA8
:103B9000909581959F4F835DF6018083F50180812B
:103BA00084FF04C0C7016DE07AE003C0C70169E08B
:103BB0007AE00E944328F201208130E0C901880F99
:103BC000991F820F931F909581959F4F8D5AF401F5
:103BD0008083F60180818F5F8083EA85FB8582A5E3
:103BE000882321F0C70165E07AE003C0C70161E0E6
:103BF0007AE00E944328F201808190E09C01220F2C
:103C0000331F280F391F309521953F4F2D5AF4014E
:103C10002083F60180818F5F8083C7016DEF79E09B
:103C20000E944328C10165E00E94DB12882351F005
:103C3000EA85FB8562A56F5FC3010E949D21C301D8
:103C40000E949721C10164E00E94DB12882399F44D
:103C5000E885F9856081262F30E040E050E0F501ED
:103C600080819181A281B38182179307A407B50750
:103C700008F16F3FF9F08A859B8581599F4F9B879B
:103C80008A878FEFEA85FB858083EF56F040FB87BC
:103C9000EA87C30160E00E947B1FC3010E948B2161
:103CA00081E0EA85FB85808F0DC08A859B850E9417
:103CB000D0192CCFC10166E00E94DB12882309F4E1
:103CC00025CFF3CF2B960FB6F894DEBF0FBECDBF36
:103CD000CF91DF911F910F91FF90EF90DF90CF90E8
:103CE000BF90AF909F908F907F906F905F904F901C
:103CF0003F902F900895AB0162E17AE00E94181D79
:103D00000895AF92BF92CF92DF92EF920F93CF932D
:103D1000DF936C018EE790E0C80ED91E82E3F601B6
:103D2000808381E090E0A0E0B0E0B293A293929310
:103D300082936F0185EF9FEFC80ED91E8FEFF601BA
:103D4000808381E99FEFC80ED91EC6010E943819F1
:103D5000C6010E941412C6016FEF0E9418124AE0B9
:103D6000A42EB12CAC0CBD1CC5010E94CB12C50108
:103D70000E940313C60148960E948512C601825B09
:103D80009F4F6DE04BE020E10FE03EE0E32E0E940C
:103D90006B18E601A596CE010E94AA21C50165E037
:103DA0000E94DB12882329F0CE0160E00E949D2151
:103DB00006C0CE0163E17AE040E00E948A1FDF91F5
:103DC000CF910F91EF90DF90CF90BF90AF9008957B
:103DD0000F93DC01002309F069C0623009F443C08D
:103DE000633030F4662359F0613009F05FC00DC0D4
:103DF000633009F444C0643009F058C04CC04B3003
:103E000008F04AE056964C9351C0842F90E0880FFA
:103E1000991F1F962D913C915097280F391FF9013A
:103E20008591949190969C938E935F97FC01459118
:103E3000549114968C911497849F602D112491961F
:103E40006C939197252F3327862F90E028173907F9
:103E500008F4652F14968C911497689F802D112477
:103E600092968C9323C014968C911497489F802D22
:103E7000112459968C9359975A962C9317C01496DF
:103E80008C911497489F802D11245B968C935B979F
:103E90005C962C930BC014968C911497489F802DA0
:103EA00011245D968C935D975E962C930F910895E7
:103EB000FC01222371F4648B8481489F802D11249E
:103EC000858B15A214A213A281E0878B8093020632
:103ED000108E0895FC01662369F4178A158A14A2CE
:103EE00013A2108E1092050610920406109202067C
:103EF0001092B4000895CF93DF93EC01662319F478
:103F00000E946A1F1982DF91CF91089560E00E949C
:103F10007B1F08950F931F93CF93DF93EC018B01C9
:103F2000442371F460E00E947B1F1E870D871B8A6B
:103F30001A8A81E0898389E08E8B198E1B8E1D8EF3
:103F4000DF91CF911F910F910895CF93DF93EC01F3
:103F5000662339F58881882321F18981882309F531
:103F6000898590E0880F991FEF81F885E80FF91F88
:103F7000859194912FEF8F3F920711F4188211C011
:103F80009C8790E0880F991FEA85FB85E80FF91F51
:103F900065917491CE0140E00E948A1F89858F5FF0
:103FA0008987DF91CF91089560E00E94A51F089551
:103FB0000F93CF93DF93EC01662309F068C08981EA
:103FC000882309F464C08D89882309F060C0EA89D8
:103FD000FB89EE0FFF1F4D855E85E40FF51F2591D0
:103FE00034912115310509F040C08989813031F4BF
:103FF0001B8A1A8AFA012591349137C01982888167
:10400000882379F0CE0160E00E94A51F8A899B89F0
:10401000880F991FED85FE85E80FF91F25913491D2
:1040200024C0CE0160E00E946A1F31C0E6E03695F0
:104030002795EA95E1F76F70422F4F7175E036953D
:1040400027957A95E1F72051CE0100E00E94E81E05
:104050008A899B8901969B8B8A8B880F991FED8596
:10406000FE85E80FF91F25913491B9017695679582
:104070007695679520FDDACF6F73432FCE0120E050
:104080000E94581F8A899B8901969B8B8A8BDF919E
:10409000CF910F91089560E00E94D81F0895CF93AB
:1040A000DF93EC01662309F0D6C08F89882309F4D9
:1040B000D2C08D89882321F4CE010E946A1FCBC013
:1040C00081508D8B8DA1882309F03BC08BA19CA1D1
:1040D0000196880F991FEF8DF8A1E80FF91F8591C0
:1040E0009491282F27702EA3AC0163E05695479535
:1040F0006A95E1F79A0136952795892F9927869534
:1041000086958FA32F738C81289F202D11242DA39A
:104110004170409306068BA19CA101969CA38BA3A2
:1041200029A130E08217930760F08AA1882329F043
:10413000281B31093CA32BA304C0CE0160E00E94E0
:104140006A1F8DA181508DA3988D9F5F988F2FA19D
:104150008C89280F8C85280F2A836B8D662369F044
:10416000892F992787FD909570E00E94C02A8C8D39
:10417000869F802D1124820F8A838A8190E0CB96BE
:104180006BE370E00E94C02A8A832E892B83698D9D
:10419000662379F0888D772767FD7095992787FDCD
:1041A00090950E94C02A8A8D869F802D1124820FAF
:1041B0008B836D8D662399F0888D992787FD909567
:1041C00070E00E94C02ACB0162E070E00E94C02A29
:1041D0009E8D899F802D11249B81890F8B838B81DC
:1041E0008A300CF089E087FD80E08B838C898F33E7
:1041F00009F41B82F894EA81F0E0E95CF54FE49160
:10420000E09303062D8130E08B81992787FD9095FF
:10421000A901489F9001499F300D589F300D1124EE
:1042200088A590E0A901489F9001499F300D589FB3
:10423000300D11248EA1992787FD9095AC01249F04
:10424000C001259F900D349F900D1124809304068A
:10425000809305067894DF91CF91089560E00E94E5
:104260004F20089560910406662381F18091010634
:104270008F5F8093010690910306891738F130E033
:1042800080910206882309F431E0309302061092EF
:104290000106809106068823A9F08091080323E493
:1042A000829FC0011124895B8093080390E070E035
:1042B0000E94AC2A8093050605C080910506809374
:1042C000B40008953323C9F780E0F9CF08951F9211
:1042D0000F920FB60F9211242F933F934F935F933A
:1042E0006F937F938F939F93AF93BF93EF93FF93BE
:1042F0000E943221FF91EF91BF91AF919F918F91D9
:104300007F916F915F914F913F912F910F900FBED1
:104310000F901F9018956FE27AE040E00E948A1F8C
:10432000089567E27AE040E00E948A1F089561E202
:104330007AE040E00E948A1F0895FC01862F668182
:1043400070E06F5F7F4F992787FD90950E94C02A8C
:10435000858308950F93FC0181E0848384E080A726
:1043600082E79AE0908B8787CF0161E040E020E010
:1043700000E00E94E81E83E061E070E00E94902669
:10438000E1EBF0E08081887F81608083F894109277
:104390008000E1E8F0E01082109285001092840025
:1043A00088E191E090938900809388008081886003
:1043B0008083808181608083EFE6F0E0808182608D
:1043C000808378940F91089581E080934C066093E8
:1043D000290610924A0610924B060895209128064D
:1043E00030E080912706281B3109C90108954091CA
:1043F000270680912806481718F02FEF3FEF0AC0D4
:10440000E42FF0E0E95FF94F8081282F30E04F5F23
:1044100040932706C9010895E09127068091280658
:10442000E81718F0EFEFFFEF06C0F0E0E95FF94F93
:104430008081E82FF0E0CF0108950895AC0120912C
:104440004F063091500621153105E1F09091270675
:10445000809128069817B0F090E008C0FA01EA0FA2
:10446000FB1F8081A95FB94F8C939F5FA92FB0E09C
:10447000A617B7079CF31092270660932806CB0176
:10448000F90109950895E0914D06F0914E06309797
:1044900029F010924A0610924B06099508957093E0
:1044A000500660934F06089570934E0660934D0634
:1044B0000895109254061092530688EE93E0A0E0FF
:1044C000B0E08093550690935606A0935706B0939C
:1044D000580686E193E09093520680935106089522
:1044E000CF92DF92EF92FF920F931F93CF93DF93C0
:1044F0007C016B018A0180914C068823A1F0C0E009
:10450000D0E00DC0D701ED91FC91D601AC0FBD1FDD
:104510000190F081E02DC7016C9109952196C0179B
:10452000D10780F304C0CB01642F0E94BD23C801D2
:10453000DF91CF911F910F91FF90EF90DF90CF907F
:104540000895DF93CF930F92CDB7DEB7FC01698357
:1045500080914C068823C9F080914B06803238F058
:1045600081E090E09383828320E030E015C0809169
:104570004A06E82FF0E0E65DF94F998190838F5F5E
:1045800080934A0680934B0605C0CE01019661E0F8
:104590000E94BD2321E030E0C9010F90CF91DF914F
:1045A00008950F93062F809129066AE276E04091E4
:1045B0004B0621E00E94682310924A0610924B0697
:1045C00010924C060F91089561E00E94D122089547
:1045D000413208F040E2862F67E076E00E941F2318
:1045E0001092270680932806089521E00E94E82271
:1045F0000895109227061092280610924A061092EB
:104600004B060E94732508950F931F938C01862FEC
:104610000E941B2383E492E20E94DD238EE192E25A
:104620000E94D823C8010E94F9221F910F9108957A
:104630000E9404230895880F8093BA000895382FAC
:10464000413210F040E042C080915D068823E1F7DE
:1046500091E090935D0620935F068FEF8093CA06EA
:10466000109285064150409386064F5F90935E06F8
:1046700080915E06330F832B80935E0680916006E7
:10468000813041F41092600680915E068093BB00F9
:1046900085EC01C085EE8093BC0080915D06813081
:1046A000E1F380918506841710F44091850620E09F
:1046B00030E00AC0FB01E20FF31FD901AB59B94F3B
:1046C0008C9180832F5F3F4F2417A0F3842F089590
:1046D0000F931F93582F122F413210F081E04AC0E0
:1046E00080915D068823E1F782E080935D06009368
:1046F0005F068FEF8093CA06109285064093860668
:10470000A5E6B6E0FB0102C081918D938E2F861B3A
:104710008417D0F310925E0680915E06550F852BAC
:1047200080935E0680916006813041F410926006AD
:1047300080915E068093BB0085EC01C085EE80937E
:10474000BC00112321F080915D068230E1F380915D
:10475000CA068F3F11F480E00DC08091CA068032F6
:1047600011F482E007C08091CA06803311F084E022
:1047700001C083E01F910F910895482F613210F01E
:1047800081E0089580915D06843011F082E0089503
:104790006093A806A7E8B6E0842F9C01F90102C047
:1047A00081918D938E2F841B8617D0F380E008951E
:1047B00090936406809363060895909362068093B5
:1047C000610608951F920F920FB60F9211242F9336
:1047D0003F934F935F936F937F938F939F93AF9389
:1047E000BF93EF93FF938091B90090E0887F907022
:1047F0008036910509F4F2C081369105CCF58832F6
:10480000910509F47BC089329105B4F4803191059A
:1048100009F46FC0813191053CF4009709F447C158
:10482000089709F04FC165C08831910509F466C049
:10483000809709F047C182C08034910509F4A4C073
:104840008134910544F48033910509F482C0C897FE
:1048500009F038C189C08035910509F489C08835CF
:10486000910509F496C08834910509F02BC1AEC0BA
:104870008839910509F413C189399105ECF4883719
:10488000910509F4ABC0893791054CF48836910540
:1048900009F4A4C08037910509F014C19FC088387D
:1048A000910509F4FCC08039910509F49DC0803858
:1048B000910509F007C198C0803B910509F4C6C075
:1048C000813B91054CF4803A910509F49FC0883AE8
:1048D000910509F0F7C0BAC0803C910509F4E3C026
:1048E000883C910509F4DFC0883B910509F0EAC0D6
:1048F000C2C080915E068093BB00CFC090918506B8
:1049000080918606981768F490918506E92FF0E06B
:10491000EB59F94F80818093BB009F5F9093850690
:10492000BCC080915F06882309F44BC085ED80935D
:10493000BC008091BC0084FDFCCFC2C080E28093AB
:10494000CA0685ED8093BC008091BC0084FDFCCF3D
:10495000B7C080E38093CA0685ED8093BC00809148
:10496000BC0084FDFCCFACC088E38093CA069BC02A
:10497000809185069091BB00E82FF0E0EB59F94F4C
:1049800090838F5F8093850690918506809186063F
:1049900082C0809185069091BB00E82FF0E0EB5932
:1049A000F94F90838F5F8093850680915F068823FF
:1049B00041F085ED8093BC008091BC0084FDFCCF6C
:1049C0007FC081E08093600684EA6EC085ED8093AD
:1049D000BC008091BC0084FDFCCF72C083E080935A
:1049E0005D061092C90659C08091C906803208F050
:1049F00056C08091C9069091BB00E82FF0E0E755C2
:104A0000F94F90838F5F8093C90647C08091C90694
:104A1000803230F4E091C906F0E0E755F94F10829A
:104A200085ED8093BC008091BC0084FDFCCF10928A
:104A30005D066091C906E0916306F091640689EA1B
:104A400096E070E009951092C9062DC084E080932D
:104A50005D061092A7061092A806E0916106F091FB
:104A6000620609958091A806882329F481E0809345
:104A7000A806109287069091A706E92FF0E0E95763
:104A8000F94F80818093BB009F5F9093A706909120
:104A9000A7068091A806981710F485EC01C085E858
:104AA0008093BC000FC085EC8093BC0009C01092BD
:104AB000CA0685ED8093BC008091BC0084FDFCCFCC
:104AC00010925D06FF91EF91BF91AF919F918F91F1
:104AD0007F916F915F914F913F912F910F900FBEFA
:104AE0000F901F90189510925D0681E080935F06ED
:104AF0001092600682E161E00E945C2783E161E040
:104B00000E945C27E9EBF0E080818E7F80838081CA
:104B10008D7F808388E48093B80085E48093BC0017
:104B200008951F920F920FB60F9211242F933F9367
:104B30008F939F93AF93BF938091CF069091D006B0
:104B4000A091D106B091D2063091D3060196A11D55
:104B5000B11D232F2D5F2D3720F02D570196A11D5C
:104B6000B11D2093D3068093CF069093D006A093D7
:104B7000D106B093D2068091CB069091CC06A0913D
:104B8000CD06B091CE060196A11DB11D8093CB0636
:104B90009093CC06A093CD06B093CE06BF91AF9173
:104BA0009F918F913F912F910F900FBE0F901F906B
:104BB00018958FB7F8942091CF063091D006409188
:104BC000D1065091D2068FBFB901CA0108959FB78F
:104BD000F8942091CB063091CC064091CD065091AF
:104BE000CE0686B5A89B06C08F3F21F02F5F3F4FB2
:104BF0004F4F5F4F9FBF542F432F322F2227280F35
:104C0000311D411D511D82E0220F331F441F551FCE
:104C10008A95D1F7B901CA010895EF92FF920F93D7
:104C20001F93CF93DF937B018C010E94E725EB015B
:104C30000EC00E94E7256C1B7D0B685E7340C8F3B5
:104C40000894E108F10801091109C851DC4FE11489
:104C5000F1040105110569F7DF91CF911F910F91C3
:104C6000FF90EF900895789484B5826084BD84B5F8
:104C7000816084BD85B5826085BD85B5816085BD57
:104C8000EEE6F0E0808181608083E1E8F0E0108270
:104C9000808182608083808181608083E0E8F0E0B1
:104CA000808181608083E1EBF0E08081846080839B
:104CB000E0EBF0E0808181608083EAE7F0E08081D2
:104CC0008460808380818260808380818160808332
:104CD0008081806880831092C1000895982F8E3063
:104CE00008F09E509770809109038295880F880F75
:104CF000807C892B80937C0080917A0080648093F3
:104D00007A0080917A0086FDFCCF20917800409156
:104D10007900942F80E030E0282B392BC9010895C9
:104D20001F93CF93DF93182FEB0161E00E94F026D1
:104D3000209709F44AC0CF3FD10509F449C0E12FBB
:104D4000F0E0EC53F54F84918330C1F0843028F4C7
:104D5000813051F08230B1F50CC0863019F18730C6
:104D600049F1843079F514C084B5806884BDC7BD2D
:104D700033C084B5806284BDC8BD2EC080918000E0
:104D8000806880938000D0938900C093880024C0FD
:104D900080918000806280938000D0938B00C093CC
:104DA0008A001AC08091B00080688093B000C093E0
:104DB000B30012C08091B00080628093B000C093B5
:104DC000B4000AC0C038D1051CF4812F60E002C0D5
:104DD000812F61E00E945C27DF91CF911F910895A0
:104DE000CF93DF93482F50E0CA018055954FFC01C7
:104DF00034914456554FFA018491882369F190E02B
:104E0000880F991FFC01E258F54FA591B491FC0160
:104E1000E857F54FC591D491662351F42FB7F89414
:104E20008C91932F909589238C93888189230BC033
:104E3000623061F42FB7F8948C91932F9095892369
:104E40008C938881832B88832FBF06C09FB7F894EB
:104E50008C91832B8C939FBFDF91CF9108958330EA
:104E600071F0843028F48130A1F0823021F514C033
:104E70008630B1F08730D1F08430E9F404C08091FD
:104E800080008F7703C0809180008F7D80938000A9
:104E9000089584B58F7702C084B58F7D84BD089551
:104EA0008091B0008F778093B00008958091B0001A
:104EB0008F7D8093B0000895FF920F931F93F62E7D
:104EC000482F50E0CA018C53954FFC012491CA0130
:104ED0008055954FFC0114914456554FFA010491A9
:104EE0000023C9F0222319F0822F0E942F27E02FE0
:104EF000F0E0EE0FFF1FE857F54FA591B4919FB773
:104F0000F894FF2021F48C911095812302C08C919C
:104F1000812B8C939FBF1F910F91FF9008950F934A
:104F20001F93482F50E0CA018C53954FFC012491E8
:104F3000CA018055954FFC0104914456554FFA0122
:104F40001491112319F420E030E015C0222319F048
:104F5000822F0E942F27812F90E0880F991F8E5655
:104F6000954FFC01A591B4918C9120E030E0802315
:104F700011F021E030E0C9011F910F910895CF9306
:104F8000DF930E9433260E94D111C0E0D0E00E943E
:104F900041112097E1F30E940000F9CFCF92DF92F8
:104FA000EF92FF920F931F93CF93DF937C016B01DE
:104FB0008A01C0E0D0E00FC0D6016D916D01D7012C
:104FC000ED91FC910190F081E02DC7010995C80F8A
:104FD000D91F015010400115110571F7CE01DF9165
:104FE000CF911F910F91FF90EF90DF90CF90089598
:104FF000EF92FF920F931F93CF93DF937C018B016E
:10500000C0E0D0E0F8010F5F1F4F6491662359F0B4
:10501000D701ED91FC910190F081E02DC701099538
:10502000C80FD91FEFCFCE01DF91CF911F910F9104
:10503000FF90EF900895DC01ED91FC910190F081DB
:10504000E02D09950895EF92FF920F931F938C0125
:10505000DC01ED91FC910190F081E02D6DE009956E
:105060007C01D801ED91FC910190F081E02DC80107
:105070006AE009959C012E0D3F1DC9011F910F91FA
:10508000FF90EF900895EF92FF920F931F937C0192
:105090000E94F8278C01C7010E9423289C01200F41
:1050A000311FC9011F910F91FF90EF9008954F920A
:1050B0005F927F928F929F92AF92BF92CF92DF9238
:1050C000EF92FF920F931F93DF93CF93CDB7DEB78D
:1050D000A1970FB6F894DEBF0FBECDBF2C01742E82
:1050E000CB01223008F42AE019A231E2C32ED12CE0
:1050F000CC0EDD1E822E9924AA24BB24672D752F89
:10510000A50194010E94D32A79018A01C801B7013F
:10511000A50194010E94812A472D461B0894C108CD
:10512000D1084A3014F4405D01C0495CF601408367
:10513000E114F1040105110521F07E2C5F2DC80159
:10514000DDCFC201B6010E947609A1960FB6F89490
:10515000DEBF0FBECDBFCF91DF911F910F91FF90AA
:10516000EF90DF90CF90BF90AF909F908F907F9007
:105170005F904F900895DC012115310541F4ED91C8
:10518000FC910190F081E02D642F099508950E9413
:1051900057280895EF92FF920F931F939A017B0176
:1051A00000E010E0B801A7010E94BB281F910F91F9
:1051B000FF90EF9008952F923F924F925F926F92DF
:1051C0007F928F929F92AF92BF92CF92DF92EF9297
:1051D000FF920F931F93DF93CF93CDB7DEB73B01C1
:1051E0004C0119012A016D897E898F89988D6A1970
:1051F0007B098C099D09621A730A840A950AA40125
:1052000093010E94812AE218F30804091509A801F4
:1052100097010E94F52A2A0D3B1D4C1D5D1DB90109
:10522000CA01CF91DF911F910F91FF90EF90DF9016
:10523000CF90BF90AF909F908F907F906F905F9036
:105240004F903F902F900895EF92FF920F931F93EE
:105250007B018C01611571058105910529F420E020
:1052600030E040E050E00BC00E94692BA80197019C
:105270000E94F52AAC01CB01DA019C01AD01B90114
:10528000CA011F910F91FF90EF900895EF92FF9246
:105290000F931F937B018C01621773078407950797
:1052A00064F4261B370B480B590BCA01B9010E9445
:1052B0002429E60EF71E081F191FB701C8011F9108
:1052C0000F91FF90EF90089598D088F09F5790F03D
:1052D000B92F9927B751A0F0D1F0660F771F881F1B
:1052E000991F1AF0BA95C9F712C0B13081F09FD05A
:1052F000B1E008959CC0672F782F8827B85F39F0F8
:10530000B93FCCF3869577956795B395D9F73EF479
:1053100090958095709561957F4F8F4F9F4F089521
:10532000E89409C097FB3EF490958095709561953F
:105330007F4F8F4F9F4F9923A9F0F92F96E9BB27F5
:105340009395F695879577956795B795F111F8CF71
:10535000FAF4BB0F11F460FF1BC06F5F7F4F8F4FDC
:105360009F4F16C0882311F096E911C0772321F0D2
:105370009EE8872F762F05C0662371F096E8862F6A
:1053800070E060E02AF09A95660F771F881FDAF7C1
:10539000880F9695879597F9089597F99F6780E804
:1053A00070E060E008959FEF80EC089500240A9477
:1053B0001616170618060906089500240A941216F0
:1053C0001306140605060895092E0394000C11F423
:1053D000882352F0BB0F40F4BF2B11F460FF04C0D0
:1053E0006F5F7F4F8F4F9F4F089557FD9058440F29
:1053F000551F59F05F3F71F04795880F97FB991F34
:1054000061F09F3F79F087950895121613061406F0
:10541000551FF2CF4695F1DF08C01616170618067D
:10542000991FF1CF86957105610508940895E89458
:10543000BB2766277727CB0197F908950BD0C4CFF8
:10544000B5DF28F0BADF18F0952309F0A6CFABCF6F
:105450001124EECFCADFA0F3959FD1F3950F50E052
:10546000551F629FF001729FBB27F00DB11D639F16
:10547000AA27F00DB11DAA1F649F6627B00DA11DBC
:10548000661F829F2227B00DA11D621F739FB00D62
:10549000A11D621F839FA00D611D221F749F3327D2
:1054A000A00D611D231F849F600D211D822F762F6B
:1054B0006A2F11249F5750408AF0E1F088234AF068
:1054C000EE0FFF1FBB1F661F771F881F91505040B4
:1054D000A9F79E3F510570F060CFAACF5F3FECF374
:1054E000983EDCF3869577956795B795F795E795A0
:1054F0009F5FC1F7FE2B880F911D9695879597F9B1
:105500000895629FD001739FF001829FE00DF11D0D
:10551000649FE00DF11D929FF00D839FF00D749F2D
:10552000F00D659FF00D9927729FB00DE11DF91FD9
:10553000639FB00DE11DF91FBD01CF011124089536
:10554000991B79E004C0991F961708F0961B881FD5
:105550007A95C9F780950895AA1BBB1B51E107C036
:10556000AA1FBB1FA617B70710F0A61BB70B881FF3
:10557000991F5A95A9F780959095BC01CD01089582
:1055800097FB092E07260AD077FD04D0E5DF06D069
:1055900000201AF4709561957F4F0895F6F7909565
:1055A00081959F4F0895A1E21A2EAA1BBB1BFD01F6
:1055B0000DC0AA1FBB1FEE1FFF1FA217B307E407F2
:1055C000F50720F0A21BB30BE40BF50B661F771F4A
:1055D000881F991F1A9469F760957095809590952A
:1055E0009B01AC01BD01CF01089597FB092E052653
:1055F0000ED057FD04D0D7DF0AD0001C38F45095E8
:105600004095309521953F4F4F4F5F4F0895F6F7E6
:1056100090958095709561957F4F8F4F9F4F08951E
:10562000EE0FFF1F0590F491E02D0994A0E0B0E08B
:10563000ECE1FBE20C947F2BEC01A880B980CA80DE
:10564000DB80A114B104C104D10441F484E2A82E8A
:1056500089EDB82E8BE5C82E87E0D82EC601B5019E
:105660002DE133EF41E050E00E94F52A27EA31E4D2
:1056700040E050E00E94812A7B018C01C601B50107
:105680002DE133EF41E050E00E94F52ACA01B90153
:105690002CEE34EF4FEF5FEF0E94812A6E0D7F1DDD
:1056A000801F911F97FF04C0615070408040904858
:1056B000688379838A839B839B01AC015F77B901FF
:1056C000CA01CDB7DEB7EAE00C949B2B0E94162BE3
:1056D00008958BE091E00E94162B089560930B01D2
:1056E00070930C0180930D0190930E0108952F92F9
:1056F0003F924F925F926F927F928F929F92AF9262
:10570000BF92CF92DF92EF92FF920F931F93CF93AE
:10571000DF93CDB7DEB7CA1BDB0B0FB6F894DEBF45
:105720000FBECDBF09942A88398848885F846E846B
:105730007D848C849B84AA84B984C884DF80EE80B5
:10574000FD800C811B81AA81B981CE0FD11D0FB6BE
:10575000F894DEBF0FBECDBFED010895F894FFCFE2
:10576000300031004C4F414445520001000000011F
:105770000101010101010101010101010101010119
:105780000101010101010000000202020202020205
:1057900002020202020200000001010002010201F5
:1057A00000000000000102020202020102000101E9
:1057B00002020202020202020202020202020002CB
:1057C00002020201010202010202010202020202BD
:1057D00002010200010202020101020100000000B8
:1057E000010202020202020200020202020101029E
:1057F0000202020002020202020201000000000195
:10580000020201010202010200010202020202027E
:10581000010202010202020101020202020002026E
:10582000020202020202020202020202010100025C
:105830000102020102020100000000000202010256
:105840000001010000000202020202020202020242
:105850000202020000000101010101010101010138
:105860000101010101010101010101010101010128
:105870000101010101010101010101010101010118
:105880000101000000020202020202020202020200
:1058900002020000000101000102010201020102F6
:1058A00001020102010201020100010102010201E3
:1058B00002010201020102010201020102010201D0
:1058C00001020102010201020102010201020102C0
:1058D00001020102010102010201020102010201B1
:1058E00002010201020102010201010201020102A0
:1058F0000102010201020102010201020102010191
:10590000020102010201020102010201020102017F
:10591000020102010102010201020102010201026F
:105920000102010201020102010100010201020162
:105930000201020102010201020102010001010053
:10594000000002020202020202020202020202003D
:105950000000010101010101010101010101010139
:105960000101010101010101010100000000B9175D
:10597000CE2700000000A1227022EE21F7210C2288
:025980001D22E6
:00000001FF
