:100000000C9437040C945F040C945F040C945F040C
:100010000C945F040C945F040C945F040C945F04D4
:100020000C945F040C945F040C945F040C946320A4
:100030000C945F040C945F040C945F040C945F04B4
:100040000C948D240C945F040C945F040C945F0456
:100050000C945F040C945F040C945F040C945F0494
:100060000C94DE220C945F044E6F206D61737465F6
:100070007200536C61766520646973636F6E6E65A0
:10008000637465640057726F6E6720736C61766588
:1000900020646174610031206D6173746572206D3C
:1000A000617800536C6176652070617573656400DA
:1000B0000101010101010101010101010101010130
:1000C000010101010101000000020202020202021C
:1000D000020202020202000000010100020102010C
:1000E0000000000000010202020202010200010100
:1000F00002020202020202020202020202020002E2
:1001000002020201010202010202010202020202D3
:1001100002010200010202020101020100000000CE
:1001200001020202020202020002020202010102B4
:1001300002020200020202020202010000000001AB
:100140000202010102020102000102020202020295
:100150000102020102020201010202020200020285
:100160000202020202020202020202020101000273
:10017000010202010202010000000000020201026D
:100180000001010000000202020202020202020259
:10019000020202000000010101010101010101014F
:1001A000010101010101010101010101010101013F
:1001B000010101010101010101010101010101012F
:1001C0000101000000020202020202020202020217
:1001D000020200000001010001020102010201020D
:1001E00001020102010201020100010102020202F8
:1001F00002020202020202020202020202020201E0
:1002000001020102010201020102010201020102D6
:1002100001020102010102010202020202020202C3
:1002200002010202020202020201010202020202B1
:1002300002020102020202020202020201020101A2
:100240000201020102010201020102010201020196
:100250000201020101020202020202020202020281
:100260000202020202020202010100010201020175
:10027000020102010201020102010201000101006A
:100280000000020202020202020202020202020054
:100290000000010101010101010101010101010150
:1002A000010101010101010101010101010101013E
:1002B0000101010101010101010101010101000030
:1002C0000002020202020202020202020202000014
:1002D0000001010002020202020202020202020204
:1002E00002020202020001010202020202020202F2
:1002F00002020202020202020202020101020202E0
:1003000001020202020101010202020201020202D2
:1003100001010202020202020202010000020202C4
:1003200002020202020101020202020202020200B1
:1003300000010202020202020202010102020201A3
:100340000202020201010102020202010202020192
:10035000010202020202020202020202020202027E
:100360000202020201010002020202020202020271
:100370000202020202020202000101000000020267
:100380000202020202020202020202000000010155
:10039000010101010101010101010101010101014D
:1003A000010101010101010101010101010101013D
:1003B000010101010101010101010000000102022E
:1003C0000202020202020202020100000001010018
:1003D0000102020201020201010102020102020203
:1003E00001000101000202020202020202020202F4
:1003F00002020202020200010101020201020102E4
:1004000002010101020202020102020101010202D3
:1004100002020202020202000002020201020102C2
:1004200001010101020102010202020000020202B6
:1004300002020202020201010102020102010202A1
:100440000101010202020201020202010100020294
:10045000020202020202020202020202020202007E
:100460000101000102020201020201010102020176
:100470000202020100010100000001020202020268
:100480000202020202020100000001010101010159
:10049000010101010101010101010101010101014C
:1004A00008057088D8A8D8080570A8F8F870506CAE
:1004B0006179657220312057494E2100506C617975
:1004C000657220322057494E2100D704E404F2041B
:1004D000426F6D626572005369676C6520706C6174
:1004E00079657200486F737420286D61737465724A
:1004F00029004A6F696E2028736C617665290003B4
:10050000053F213F1208120A100A0E1C0E0C1E0C89
:10051000141A14161F161E131E1E1B1E1E1F1E3F0E
:10052000213F3A2F3A173D173F213F181F02040A77
:10053000041F0E04040E1F0A1F0A0E0E1F04110EC4
:100540002E252E2F2A2E262929021F02081F0815C4
:100550000E04040E150E15151B151B040604040CC1
:10056000040000000017000300031F0A1F16371ABB
:100570001904130A153A000300000E11110E000AA7
:10058000040A040E040030000404040010001804DF
:10059000031F111F121F101D151711151F07041F10
:1005A00017151D1F151D01011F1F151F17151F00F2
:1005B0000A00003200040A110A0A0A110A0401158D
:1005C000020E11171E051E1F150A0E110A1F110E0D
:1005D0001F15111F05010E111D1F041F111F1108EA
:1005E000100F1F041B1F10101F061F1E040F0E11DB
:1005F0000E1F09060E112E1F051A121509011F01E3
:100600001F101F0F180F1F0C1F1B041B031C0319A7
:100610001513001F11030418111F000201022020EE
:10062000200001020C121E1F120C0C12120C121FC1
:100630000C1A14041E05242A1E1F021C141D10204F
:10064000201D1F0814111F101E041E1E021C0C1258
:100650000C3E0A040C123E1E040214160A020F126B
:100660000E101E0E100E1E081E120C1226281E3210
:100670002A26041E21001F00211E040102013F2121
:100680003F0A4E6F2053442063617264206F720AE8
:100690006E6F204C4F414445522E4845580A0A156A
:1006A0003A45786974001D20466C617368696E670D
:1006B0000A20206C6F616465722E2E2E0A0A444F48
:1006C0004E2754205455524E204F464621006D5619
:1006D0000A0A504C454153450A5455524E204F4644
:1006E00046004C4F5720424154544552590A001776
:1006F0007361766500166261636B001574797065CD
:10070000000A0A0A153A6F6B617920163A65646926
:100710007400596F7520656E74657265640A0054C3
:100720000A03E181867F3E186D830F0F0E018386D9
:100730006033186DC3198F1803C38E6033186DE3CF
:1007400030CF1803C39E603630CDE360CF3006C78C
:100750009E7E3E30CDB360CF300CC6F6603330D9CC
:10076000B660CF33CFCCF66061B0DB1E60CF30D83F
:100770006CE6C061B0DB1E618F19986CC6C063B1B6
:100780009B0E330F0FB078C6FF7E1F1B061E0F1780
:10079000534400161378001613140015102000158A
:1007A00020100000000500893008023802497868EE
:1007B00014000045006801000005006801380100D0
:1007C000000500380168010000F6E8DBCFC3B8AED1
:1007D000A49B928A827B746E68625C57524E494534
:1007E000413E3A3734312E2C29272523211F1D1C49
:1007F0001A1917161514131211100F0E0D0C0B0ADF
:100800000908070608080C080101F7030101FF03A6
:1008100000000000240027002A000000000025003E
:1008200028002B00000000002300260029000404FB
:100830000404040404040202020202020303030388
:100840000303010204081020408001020408102064
:10085000010204081020000000070002010000034C
:1008600004060000000000000000E70755211124E5
:100870001FBECFEFD8E0DEBFCDBF12E0A0E0B1E0F9
:10088000E0E3F5E502C005900D92A632B107D9F775
:1008900015E0A6E2B2E001C01D92A23DB107E1F76A
:1008A00018E0CEE6D8E004C02297FE010E945B2A41
:1008B000CA36D107C9F70E9406270C94962A0C94D1
:1008C0000000A0E0B0E0E7E6F4E00C94672AEC0159
:1008D000A880B980CA80DB80A114B104C104D1040E
:1008E00041F484E2A82E89EDB82E8BE5C82E87E06E
:1008F000D82EC601B5012DE133EF41E050E00E9452
:100900003E2A27EA31E440E050E00E94CA297B01F8
:100910008C01C601B5012DE133EF41E050E00E94AA
:100920003E2ACA01B9012CEE34EF4FEF5FEF0E946F
:10093000CA296E0D7F1D801F911F97FF04C0615053
:10094000704080409048688379838A839B839B01B1
:10095000AC015F77B901CA01CDB7DEB7EAE00C940C
:10096000832A0E94610408958BE091E00E94610453
:10097000089560930B0170930C0180930D01909387
:100980000E010895CF93DF93982FE1EDF2E0CFEEC3
:10099000D2E0A0EEB2E08481882371F0808187FDEF
:1009A0008D5F85958595891739F4818187FD8D5FE8
:1009B00085958595861781F114968C9114978823D7
:1009C00081F08C9187FD8D5F85958595891749F418
:1009D00011968C91119787FD8D5F8595859586176A
:1009E000D9F08C81882371F0888187FD8D5F859592
:1009F0008595891739F4898187FD8D5F8595859562
:100A0000861751F035962596159682E0E03EF80758
:100A100009F0C1CF80E001C081E0DF91CF9108955E
:100A2000FC018581882389F12081422F552747FDCC
:100A300050958281992787FD9095880F991F880F7F
:100A4000991F4817590789F42181422F552747FDDF
:100A500050958381992787FD9095880F991F880F5E
:100A6000991F4817590749F408954817590714F46E
:100A70002F5F01C0215020830895481759071CF4A7
:100A80002F5F21830895215021830895982FFA0123
:100A90008481882369F0DA01159614968C91149755
:100AA000882311F4FD0104C03A968481882349F417
:100AB00080E582838091FE02838381E0848390833A
:100AC000618308950F931F93082F162F0E94C2046D
:100AD000882311F040E015C040E0212F30E085E18F
:100AE00090E0289FF001299FF00D389FF00D112410
:100AF000E00FF11DE05FFE4F80818150823008F0F1
:100B000041E0842F1F910F9108958F929F92AF9291
:100B1000BF92CF92DF92EF92FF920F931F93CF93EA
:100B2000DF9301EDC02E02E0D02E1FEEE12E12E089
:100B3000F12E00EE12E0C0E0D0E0882E9924A62E1F
:100B4000BB24F60184818823F9F08081992787FDF1
:100B5000909588159905C1F48181992787FD909515
:100B60008A159B0589F41482FE01EE0FFF1FEE0F1C
:100B7000FF1FEC0FFD1FEF52FD4F4081518162813D
:100B8000738184810E944A06F80184818823F9F0E8
:100B90008081992787FD909588159905C1F48181F9
:100BA000992787FD90958A159B0589F41482FE018B
:100BB000EE0FFF1FEE0FFF1FEC0FFD1FE052FD4F6A
:100BC000408151816281738184810E944A06F701CC
:100BD00084818823F9F08081992787FD9095881575
:100BE0009905C1F48181992787FD90958A159B0508
:100BF00089F41482FE01EE0FFF1FEE0FFF1FEC0FB2
:100C0000FD1FE151FD4F40815181628173818481DB
:100C10000E944A06219685E090E0C80ED91EE80E93
:100C2000F91E0B5F1F4FC330D10509F08ACFDF914A
:100C3000CF911F910F91FF90EF90DF90CF90BF90D9
:100C4000AF909F908F9008951F9370E0282F30E011
:100C500085E190E0689FF001699FF00D789FF00DAD
:100C60001124E20FF31FE05FFE4F1081113059F0A5
:100C700084E18083660F771F660F771F822F880FAE
:100C8000880F0E94850580E01150123008F481E041
:100C90001F910895EF92FF920F931F93DF93CF93CD
:100CA00000D000D00F92CDB7DEB7242F49835A83EE
:100CB0006B837C838D83E72E47FD2D5FF22EF594A9
:100CC000F5946A8167FD6D5F062F0595059510E027
:100CD00008C0812F8F0D602F0E942406882369F49D
:100CE0001F5F1E15B0F309C08F2D811B602F0E945E
:100CF0002406882379F41F5F01C010E01E15A0F3BD
:100D000009C0612F600F8F2D0E942406882379F47B
:100D10001F5F01C010E01E15A0F309C0602F611B0A
:100D20008F2D0E942406882329F41F5F01C010E044
:100D30001E15A0F30F900F900F900F900F90CF9172
:100D4000DF911F910F91FF90EF900895CF92DF9266
:100D5000EF92FF920F931F93CF93DF9351EFC52E26
:100D600052E0D52E42EEE42E42E0F42E03ED12E0E6
:100D7000C0E0D0E0F80182818823C1F0808188231F
:100D800089F41282FE01EE0FFF1FEE0FFF1FEC0F22
:100D9000FD1FEF52FD4F408151816281738184813B
:100DA0000E944A06F801808181508083F701828188
:100DB0008823C1F08081882389F41282FE01EE0F1E
:100DC000FF1FEE0FFF1FEC0FFD1FE052FD4F408194
:100DD00051816281738184810E944A06F70180817A
:100DE00081508083F60182818823C1F0808188232D
:100DF00089F41282FE01EE0FFF1FEE0FFF1FEC0FB2
:100E0000FD1FE151FD4F40815181628173818481D9
:100E10000E944A06F601808181508083219685E0F8
:100E200090E0C80ED91EE80EF91E0B5F1F4FC330AD
:100E3000D10509F09FCFDF91CF911F910F91FF90C6
:100E4000EF90DF90CF9008954091B002413069F06B
:100E5000413070F0423031F0433009F065C020E09D
:100E600030E05CC020E030E043C020E030E02AC049
:100E700020E030E011C0FC01E20FF31FE055FF4F0E
:100E8000E491ED93019685319105A9F72B5E3F4FD3
:100E90002C3F310509F448C0D901A05FBE4F80E066
:100EA00090E0E9CFFC01E20FF31FE455FE4FE4911F
:100EB000ED93019685319105A9F72B5E3F4F2C3FAD
:100EC000310591F1D901A05FBE4F80E090E0EACFFB
:100ED000FC01E20FF31FE855FD4FE491ED930196FD
:100EE00085319105A9F72B5E3F4F2C3F3105E1F08D
:100EF000D901A05FBE4F80E090E0EACFFC01E20F95
:100F0000F31FEC55FC4FE491ED930196853191056B
:100F1000A9F72B5E3F4F2C3F310531F0D901A05F7F
:100F2000BE4F80E090E0EACF4F5F43704093B00245
:100F3000089524E02093B1022093B20281E08093CF
:100F4000B3028093B4028093B6021092B8025CE4BC
:100F50005093B90238E23093BA0243E14093BB02A6
:100F60009AE09093BC028093BE021092C00220933C
:100F7000C1023093C2028093C3029093C402809353
:100F8000C6028093C8025093C9022093CA024093BC
:100F9000CB028093CC028093CE028093D0020E9439
:100FA000240783E08093FE021092D5021092E4029F
:100FB0001092F3021092DA021092E9021092F802F3
:100FC0001092DF021092EE021092FD02089510922C
:100FD00077021092760282E192E0909375028093FC
:100FE000740208951F9311E0ABC08FE495E00E9456
:100FF000F3208F3009F47BC0803194F48C3009F4F5
:1010000061C08D3034F48A30E1F08B3009F098C043
:101010001FC08D3009F45DC08E3009F091C060C0F2
:10102000873109F476C0883134F48531C1F08631D6
:1010300009F086C063C08E3149F1883209F080C062
:1010400031C08FE495E00E94F3208093B30278C012
:101050008FE495E00E94F3208093B40271C08FE486
:1010600095E00E94F320C19709F06AC08091B30215
:101070006091B402772767FD7095660F771F660F42
:10108000771F880F880F41ED52E058C08FE495E03C
:101090000E94F3201092B602C19709F051C010933C
:1010A000B6024EC08FE495E00E94F320982F809105
:1010B000B002891709F444C091509093B0020E9485
:1010C00024073EC08FE495E00E94F3208093C30282
:1010D00037C08FE495E00E94F3208093C40230C0B3
:1010E0008FE495E00E94F3208093CB0229C08FE427
:1010F00095E00E94F3208093CC0222C08FE495E01B
:101100000E94F320C197E1F48091C3026091C40270
:101110000AC08FE495E00E94F320C19789F4809182
:10112000CB026091CC02772767FD7095660F771F21
:10113000660F771F880F880F4FEE52E00E9446051A
:101140008FE495E00E94EA20892B09F04ECF81E0E0
:101150008093AE021092AD021F910895CF93DF935A
:10116000EC016115710519F420E030E00FC0DB01DE
:101170000D900020E9F71197A61BB70BE881F981C4
:101180000280F381E02DAD0109959C01C901DF9139
:10119000CF9108958AE08093FF028091BB028093F3
:1011A00000038BE0809301038091BC0280930203D3
:1011B00085E1809303038091BF02882311F480E3CB
:1011C00001C081E3809304038EE180930503809145
:1011D000BE02882311F480E301C081E380930603FB
:1011E00080910F01882389F081E08093FF02809332
:1011F0000003809301038093020380930303809391
:10120000040380930503809306038091AC02882336
:1012100089F082E08093FF028093000380930103B2
:101220008093020380930303809304038093050358
:10123000809306038FE495E06FEF72E00E94AE08A2
:1012400008951F9310920F0110E016C061E070E046
:1012500080E090E00E9409251F5F143169F486E266
:1012600092E068E670E042E00E94231881E08093FB
:10127000AD0280930F0104C08091AE02882331F348
:101280001092AE021F9108950F931F930FE415E083
:10129000C80162E070E00E941422C80162EF77E0AA
:1012A0000E944B21C8016AEC78E00E9450211F91F6
:1012B0000F9108958FE495E062E070E00E94E020D5
:1012C0008FE495E06AE00E949D216091B302772748
:1012D00067FD70958FE495E00E949D218FE495E075
:1012E0006BE00E949D216091B402772767FD7095A5
:1012F0008FE495E00E949D218FE495E065E10E94D6
:101300009D218091B702882319F460E370E002C048
:1013100061E370E08FE495E00E949D218FE495E009
:101320006EE10E949D218091B602882319F460E04D
:1013300071E002C062E071E08FE495E00E94AE08C7
:101340008FE495E068E20E949D218FE495E0609132
:10135000B0020E949D218FE495E06CE00E949D21E7
:101360006091C302772767FD70958FE495E00E9436
:101370009D218FE495E06DE00E949D216091C40263
:10138000772767FD70958FE495E00E949D218FE49B
:1013900095E06EE00E949D216091CB02772767FD6A
:1013A00070958FE495E00E949D218FE495E06FE0B9
:1013B0000E949D216091CC02772767FD70958FE494
:1013C00095E00E949D218FE495E066E10E949D21B9
:1013D0008091C702882319F460E370E002C061E3E2
:1013E00070E08FE495E00E949D218FE495E067E135
:1013F0000E949D218091CF02882319F460E370E060
:1014000002C061E370E08FE495E00E949D218FE4CB
:1014100095E00E94E02108950F931F938FE495E0DB
:1014200062E070E048E050E00E94F121882309F476
:101430006FC01092AD0210920F0101E061C08FE405
:1014400095E00E94F320182F8A3089F08B303CF40D
:10145000813009F43DC0823009F049C043C0853174
:10146000A1F08E3151F18B3009F041C007C08FE4FB
:1014700095E00E94F3208093BB0242C08FE495E088
:101480000E94F3208093BC023BC08FE495E00E9451
:10149000F320C197A9F58091BB026091BC02772728
:1014A00067FD7095660F771F660F771F880F880F8F
:1014B00040EE52E00E94460523C08FE495E00E9472
:1014C000F3201092BE02C197D9F40093BE0218C057
:1014D00086E292E063EA70E042E00E9423181093F3
:1014E0000F010EC086E292E066E970E004C086E279
:1014F00092E065E870E042E00E94231800930F013B
:101500008FE495E00E94EA20892B09F098CF0CC067
:1015100086E292E062E770E042E00E94231881E0F8
:1015200080930F018093AD021F910F9108950E9447
:101530000C0A0E945A0908958FE495E00E94F52153
:1015400008951F93142F0E94C204882379F060E04D
:1015500070E080E090E02AE030E040E050E00E945F
:101560008F286B5C7F4F611B71090AC060E070E0DF
:1015700080E090E02AE030E040E050E00E948F28D8
:10158000CB011F9108959F92AF92BF92CF92DF92AD
:10159000EF92FF920F931F93CF93DF93C82ED62E17
:1015A000962E85E1689F50011124EC2C00E010E09C
:1015B000FF24E501C05FDE4FFE01EE0DF11D8081CD
:1015C0008150823030F4EC2CFF24E501C05FDE4F07
:1015D0000DC08E2D6D2D4F2D0E94A10A080F191FD1
:1015E000F394E39483E0F81639F7EDCFFE01EE0DA6
:1015F000F11D80818150823040F4ED2CFF24CC2DF0
:10160000D0E085E1A82EB12C0DC08E2D6D2D4F2D73
:101610000E94A10A080F191FF394EA9483E0F816B8
:1016200029F7EBCF8E2D90E08A9DF0018B9DF00D78
:101630009A9DF00D1124EC0FFD1FE05FFE4F80819D
:101640008150823028F4FF24B5E1AB2EB12C0DC0BF
:101650008C2D6E2D4F2D0E94A10A080F191FF39497
:10166000E39483E0F816F1F6EECF892D90E08A9DA1
:10167000F0018B9DF00D9A9DF00D1124EC0FFD1FD4
:10168000E05FFE4F80818150823060F08C2D692DAB
:101690004F2D0E94A10A080F191FF3949A9483E01A
:1016A000F81619F7C801DF91CF911F910F91FF90A4
:1016B000EF90DF90CF90BF90AF909F9008950F93E1
:1016C0001F93CF93DF938C01EB018FE097E2F8013A
:1016D0009183808393838283958384839783868396
:1016E0004A816B816F5F262F30E085E190E0289F73
:1016F000F001299FF00D389FF00D1124E40FF11D2A
:10170000E05FFE4F8081882331F4842F0E94C30A5A
:10171000F801918380834A814F5F6B81262F30E0EF
:1017200085E190E0289FF001299FF00D389FF00D92
:101730001124E40FF11DE05FFE4F8081882331F416
:10174000842F0E94C30AF801938382834A816B81AC
:101750006150262F30E085E190E0289FF001299F1D
:10176000F00D389FF00D1124E40FF11DE05FFE4FE6
:101770008081882331F4842F0E94C30AF801958365
:1017800084834A8141506B81262F30E085E190E0CF
:10179000289FF001299FF00D389FF00D1124E40FD0
:1017A000F11DE05FFE4F8081882331F4842F0E9479
:1017B000C30AF80197838683DF91CF911F910F9120
:1017C0000895CF92DF92EF92FF920F931F93DF93D2
:1017D000CF93CDB7DEB728970FB6F894DEBF0FBE14
:1017E000CDBF29833A834B835C836D837E838F8354
:1017F0009887042F152F16160CF46BC0D42EDA948C
:101800008D2D652F0E94C30AC3970CF062C0E02E95
:10181000E3948E2D612F0E94C30AC3970CF059C028
:10182000F12EFA94802F6F2D0E94C30AC3970CF0FB
:1018300050C0C12EC394802F6C2D0E94C30AC39741
:101840000CF047C060E070E080E090E02EE130E016
:1018500040E050E00E948F286115710581059105D7
:10186000D1F185E1189FB0011124605F7E4FFB012B
:10187000ED0DF11D8081823071F1FB01EE0DF11D46
:101880008081823041F1402F50E08F2D90E065E162
:1018900070E0869FF001879FF00D969FF00D112458
:1018A000E40FF51FE05FFE4F80818230A1F020E061
:1018B0008C2D90E0869FF001879FF00D969FF00D94
:1018C0001124E40FF51FE05FFE4F8081823021F488
:1018D00002C020E001C021E0822F28960FB6F894C4
:1018E000DEBF0FBECDBFCF91DF911F910F91FF9053
:1018F000EF90DF90CF900895EF92FF920F931F9398
:10190000DF93CF93CDB7DEB728970FB6F894DEBF3D
:101910000FBECDBF7C01FC018581882309F4D0C0B6
:1019200016822081332727FD30958281992787FDF4
:101930009095880F991F880F991F2817390709F06C
:10194000A9C02181332727FD30958381992787FD01
:101950009095880F991F880F991F2817390709F04C
:1019600099C08E010F5F1F4FC801B7010E945F0B26
:10197000F80106E910E08FE097E240E050E0608176
:1019800071816817790714F0BC0101C08A014F5FAB
:101990005F4F32964430510511F0CB01F0CF6333E5
:1019A000710544F0F701828163810E94C30AC297E6
:1019B0000CF470C00130110589F0023011051CF4DF
:1019C000012B41F03FC00230110561F003301105D9
:1019D000C9F521C0F70153815F5F07C0F70142815C
:1019E0004F5F1CC0F70153815150252F30E04281D9
:1019F00085E190E0289FF001299FF00D389FF00DC0
:101A00001124E40FF11DE05FFE4F80818823D1F4A3
:101A1000F701538317C0F70142814150838190E061
:101A200025E130E0829FF001839FF00D929FF00D41
:101A30001124E40FF11DE05FFE4F8081882311F433
:101A4000F7014283F7012081318142815381648112
:101A50007581868197810E94E10B8823A9F0F701A7
:101A600082816381772767FD7095660F771F660F08
:101A7000771F880F880F4FEE52E00E94460581E0E5
:101A8000F701868384E105C0F7018481181614F4F8
:101A900081508483F701838190E0428125E130E029
:101AA000829FF001839FF00D929FF00D1124E40FAF
:101AB000F11DE05FFE4F8081833010F0F701158249
:101AC00028960FB6F894DEBF0FBECDBFCF91DF9141
:101AD0001F910F91FF90EF90089581EC92E00E948A
:101AE0007C0C89EC92E00E947C0C08952F923F922E
:101AF0004F925F926F927F928F929F92AF92BF921E
:101B0000CF92DF92EF92FF920F931F93DF93CF93C9
:101B1000CDB7DEB72A970FB6F894DEBF0FBECDBFA4
:101B20006624772440E050E060E070E0F1E04F2E62
:101B3000512CB8C0A985BA851C91112309F494C011
:101B4000113049F484E792E06C2D498124E004E0EF
:101B50000E94261389C0133008F47DC0A7019601A6
:101B60002C5F3F4F4F4F5F4FC701B6010E948F2838
:101B7000062F6D817E818F8198852A813B814C81E2
:101B8000522D0E948F28043508F05CC067FD5AC0B2
:101B900060330CF057C090919302923021F5862F5C
:101BA000859585958595992787FD9095202F3327D5
:101BB00027FD309544E550E0849FF001859FF00DAE
:101BC000949FF00D1124E20FF31FE95FFC4F808119
:101BD00090E0262F277002C0959587952A95E2F709
:101BE00091E098279170462F459545954595202F72
:101BF000332727FD30956770992399F454E5450202
:101C0000F0011124E20FF31FE95FFC4FC20102C093
:101C1000880F991F6A95E2F78095208128232083F9
:101C200011C084E54802F0011124E20FF31FE95FBF
:101C3000FC4F920102C0220F331F6A95E2F78081A8
:101C4000822B8083812F8150823009F480E0A98526
:101C5000BA858C9309C06C2D6F5F84E792E0432DA9
:101C600022E002E00E945C13E985FA853196FA874A
:101C7000E98784E090E0A0E0B0E0C80ED91EEA1E3B
:101C8000FB1E94E5C916D104E104F10409F052CF1A
:101C9000A5E1B0E06A0E7B1EBCEF6B167104F9F093
:101CA000B501A40149834D835E836F837887E4E0A7
:101CB0008E2E912CA12CB12C840E951EA61EB71E23
:101CC0008A829B82AC822B2C342E3394F301E05F0A
:101CD000FE4FFA87E987CC24DD2476012BCF2A96A4
:101CE0000FB6F894DEBF0FBECDBFCF91DF911F912D
:101CF0000F91FF90EF90DF90CF90BF90AF909F90AB
:101D00008F907F906F905F904F903F902F900895AD
:101D1000DF93CF93CDB7DEB728970FB6F894DEBF29
:101D20000FBECDBFF22F29833A834B835C836D8333
:101D30007E838F8398876F2F432F772369F09923B2
:101D400029F484E792E020EA34E004C084E792E0DA
:101D500027EA34E00E945F1528960FB6F894DEBF9C
:101D60000FBECDBFCF91DF9108952091B102309188
:101D7000B2024091B3025091B4026091B5027091E9
:101D8000B6028091B7029091B8020E94880E20910D
:101D9000B9023091BA024091BB025091BC026091ED
:101DA000BD027091BE028091BF029091C0020E945C
:101DB000880E2091C1023091C2024091C30250911D
:101DC000C4026091C5027091C6028091C7029091D1
:101DD000C8020E94880E2091C9023091CA02409127
:101DE000CB025091CC026091CD027091CE028091D5
:101DF000CF029091D0020E94880E0895EF92FF9238
:101E00000F931F93CF93DF93C1EDD2E0AFEEEA2E95
:101E1000A2E0FA2E00EE12E08C81882379F08A810C
:101E200064E10E94E929963048F068816E5F49813B
:101E30004E5F84E792E021E00E94AA14F8018481B9
:101E4000882379F0828164E10E94E929963048F084
:101E500060816E5F41814E5F84E792E021E00E94E5
:101E6000AA14F7018481882379F0828164E10E94B9
:101E7000E929963048F060816E5F41814E5F84E7CA
:101E800092E021E00E94AA14259685E090E0E80EF9
:101E9000F91E0B5F1F4F92E0C03ED90709F0BCCF7F
:101EA000DF91CF911F910F91FF90EF900895CF9305
:101EB000DF93EC018D81882309F4B1C080910F017B
:101EC000882309F0ACC01E822881332727FD309576
:101ED0008A81992787FD9095880F991F880F991FF0
:101EE0002817390709F052C02981332727FD30957B
:101EF0008B81992787FD9095880F991F880F991FCF
:101F00002817390709F042C080C08A818F5F6B8132
:101F10000E9462058823D1F18A818F5F11C080E31E
:101F200092E060E041E00E94E411882359F08A8148
:101F300081506B810E946205882341F18A81815022
:101F40008A8324C080E392E061E041E00E94E411D2
:101F5000882351F06B8161508A810E946205882339
:101F6000A9F08B81815011C080E392E063E041E0F1
:101F70000E94E411882351F06B816F5F8A810E9477
:101F80006205882319F08B818F5F8B8380E392E059
:101F900064E00E94DA11882319F18091AC029A81E1
:101FA0006B81882369F0772767FD7095660F771F2F
:101FB000660F771F892F880F880F41ED52E00CC004
:101FC000772767FD7095660F771F660F771F892F3C
:101FD000880F880F40EE52E00E94460581E08E8314
:101FE0008B8190E04A8125E130E0829FF001839F60
:101FF000F00D929FF00D1124E40FF11DE05FFE4FF4
:102000008081833060F01D820AC080E392E062E04C
:1020100041E00E94E411882309F077CF80CFDF915F
:10202000CF9108958091B602882321F08091BE025D
:10203000882379F586E292E00E94F0198823D1F393
:102040008091B602882329F484E792E06CEB74E077
:1020500004C084E792E06EEA74E00E94412780E3C6
:1020600092E064E00E94DA11882371F480E392E048
:1020700065E00E94DA11882339F480E392E066E09B
:102080000E94DA118823B1F281E08093B602809336
:10209000BE02089586E292E060ED74E00E946E1D3B
:1020A0000E9499071092B00208951F9311E01093B7
:1020B0000F0186E292E06AEC74E043E00E94A91A04
:1020C000813069F0823091F08823B9F410920F01C9
:1020D0001093AD021093AC021093AF0210C0109297
:1020E0000F011092AD028093AC0209C010920F0153
:1020F0001092AD021092AC0202C00E944A1086E219
:1021000092E00E94F0198823D9F180E392E066E022
:102110000E94DA11882309F041C081EB92E00E940D
:10212000100589EB92E00E94100581EC92E00E947C
:10213000100589EC92E00E9410058091AC02882382
:1021400069F081EB92E00E94570F0E946D0D809123
:10215000AF02882369F40E94970A0AC089EB92E0D3
:102160000E94570F8091AF02882311F40E94210929
:102170000E94A6060E94760D0E94B50E0E94FE0ED9
:102180008091B602882329F08091BE02882309F04D
:10219000B6CF0E9412100E949907B1CF1F910895E7
:1021A00086E292E00E94731D0E944A1010923E0245
:1021B0000E949C0A0E9444090895882319F48CB552
:1021C000806202C08CB58F7D8CBD08959CB5937FD5
:1021D000982B9CBD08952CB5382F33702C7F322B53
:1021E0003CBD2DB590E09595879595958795817027
:1021F0002E7F822B8DBD08958AE061E00E945E26CD
:102200008AE061E00E941F268CB580618CBD8CB590
:1022100080648CBD8DE061E00E941F268BE061E050
:102220000E941F260895FC0181E08083089585E0C7
:1022300070E00E94BF2508956F927F928F929F92C7
:10224000AF92BF92CF92DF92EF92FF920F931F93C4
:10225000CF93DF93EC0189819A818C0124E0000FF8
:10226000111F2A95E1F7081B190B85E10E949D2596
:10227000BC01600F711F84E0769567958A95E1F740
:102280007A8369838881882381F12E813F81621757
:10229000730710F4B90106C08885998586179707DA
:1022A00008F4BC0100D000D080E090E040E050E0B5
:1022B000E884F98400E010E0AD80BB24CC24DD2468
:1022C0006C80772488249924EDB7FEB761827282EE
:1022D000838294820E9424286B830F900F900F902A
:1022E0000F9085E070E00E94BF25DF91CF911F9194
:1022F0000F91FF90EF90DF90CF90BF90AF909F90A5
:102300008F907F906F900895FC018CE39FE0938302
:10231000828384E0818381E084870895CF93DF9373
:10232000EC018C8590E08F719070892B69F584E1C8
:102330000E949D25AA2797FDA095BA2FBC01CD012B
:102340000E94DB2826EE3FE34EEC50E40E94672912
:102350000E94AD289B01AC017B836A8361157105E6
:1023600089F084E08983B901FE0120E084819581B0
:102370006817790710F429830AC02F5F329624303A
:10238000A9F702C08FEF89838C858F5F8C87DF91DF
:10239000CF910895FC0188E0808389E0818387E004
:1023A000828386E0838384E0848382E0858381E185
:1023B0008683089520E0FC01E60FF11D87818130BE
:1023C00009F421E0822F0895E62FF0E0423040F436
:1023D00020E0E80FF91F878181508E3F88F40FC0FD
:1023E000E80FF91F87818F3F11F420E009C020E03A
:1023F00090E0642F70E00E94F529019709F421E034
:10240000822F08950F931F93CF93DF93EC0110E079
:102410000FEF888162E00E941F2688810E94B22609
:102420002F81892B19F42F5F2F8307C0222349F0B6
:102430002F3F11F41F8201C00F83888160E00E944A
:102440001F261F5F2196173021F7DF91CF911F9133
:102450000F910895FC01742F643508F05DC047FDAD
:102460005BC040330CF058C0878D823019F5842F43
:10247000859585958595992787FD9095462F5527B4
:1024800047FD509524E530E0829FF001839FF00DD9
:10249000929FF00D1124E40FF51FE95FFC4F80813E
:1024A00090E0272F277002C0959587952A95E2F72F
:1024B00080958170972F959595959595462F5527E1
:1024C00047FD5095272F27708823A1F4E4E59E024D
:1024D000F0011124E40FF51FE95FFC4F81E090E06B
:1024E00002C0880F991F2A95E2F780952081282342
:1024F00020830895E4E59E02F0011124E40FF51F06
:10250000E95FFC4F81E090E002C0880F991F2A9597
:10251000E2F72081282B20830895FC01678F60A3B8
:102520000895FC01678F40A30895AF92BF92CF92A8
:10253000DF92EF92FF920F931F93CF93DF93EC0103
:10254000162FF42EE22EAA24402F552747FD509532
:102550008F2D992787FD9095481B590B57FF03C076
:10256000509541955F4F2E2D332727FD3095812FB4
:10257000992787FD9095281B390B37FF03C03095AD
:1025800021953F4F2417350744F4AA24A3948F2D97
:10259000F12E182F802F0E2DE82EE11634F48E2DFB
:1025A000E12E182F802F0F2DF82EDE2CD11A202F80
:1025B000332727FD30958F2D992787FD9095281B70
:1025C000390B37FF03C0309521953F4FB22EF016DF
:1025D0001CF0CC24CA9402C0CC24C3948D2DD7FC0B
:1025E0008F5F082F059511C0AA2021F0CE016F2D15
:1025F000412F03C0CE01612F4F2D0E942A120B19CB
:1026000007FF02C0FC0C0D0D1F5FE1166CF7DF9198
:10261000CF911F910F91FF90EF90DF90CF90BF90DF
:10262000AF9008950F93042F322F262F2150230FA0
:102630000E9495120F9108950F93362F042F015089
:10264000020F232F0E9495120F9108959F92AF922F
:10265000BF92CF92DF92EF92FF920F931F93CF938F
:10266000DF936C01B62E942EA02EC0E0D0E0E62EB3
:10267000FF24E7FCF094022F112707FD10950E0DA3
:102680001F1D06C0C601492D2A2D0E941C1321962C
:102690006B2D6C0FCE018E0D9F1D8017910794F34B
:1026A000DF91CF911F910F91FF90EF90DF90CF902E
:1026B000BF90AF909F900895CF92DF92EF92FF92DC
:1026C0000F931F937C01162FD42EC22E0E9412133B
:1026D0004D2D4150400FC701612F2C2D0E94121328
:1026E000C701612F4D2D202F0E941C1311501C0D6E
:1026F000C701612F4D2D202F0E941C131F910F9198
:10270000FF90EF90DF90CF9008952F923F925F92CD
:102710006F927F928F929F92AF92BF92CF92DF92F1
:10272000EF92FF920F931F93DF93CF9300D000D0CF
:1027300000D0CDB7DEB79E838D83C62ED42EEE2477
:10274000E394E21A8EEF289F502C1124842E8A9451
:10275000962E9A94A42EA394B62EB394F22E6624A9
:1027600023E0722E10E0C801847090709A838983F0
:10277000F801E270F070FC83EB8398E0292E312C95
:10278000202231220170107054C0E7FC04C0FA947A
:10279000F2E05F0EE50C639489819A81892B71F0D8
:1027A0004F2D4D0D8D819E816B2D0E942A126F2D14
:1027B0006C0D8D819E814A2D0E942A12EB81FC8135
:1027C000EF2B71F04D2D4F198D819E816B2D0E9445
:1027D0002A126F2D6C0D8D819E81482D0E942A1228
:1027E0002114310471F06C2D6F198D819E814A2D59
:1027F0000E942A124F2D4D0D8D819E81692D0E94C0
:102800002A120115110571F06C2D6F198D819E81B1
:10281000482D0E942A124D2D4F198D819E81692DC0
:102820000E942A12E70CF2E07F0E8A949A94A394F5
:10283000B3946F140CF4A9CF26960FB6F894DEBFAC
:102840000FBECDBFCF91DF911F910F91FF90EF9001
:10285000DF90CF90BF90AF909F908F907F906F90C0
:102860005F903F902F9008954F925F926F927F926A
:102870008F929F92AF92BF92CF92DF92EF92FF9290
:102880000F931F93CF93DF93EC01A62E742E9E2DF2
:10289000FF24F394F21A8EEF289F802C1124B42E7B
:1028A000BA9453E0C52ECE0CE22EDD2443E0942EE4
:1028B00010E031E0432E512C40225122692E6394C6
:1028C0000270107034C0F7FC04C0EA9482E0880EF5
:1028D000F80CD3944114510489F06D2D6A0D472DE5
:1028E0004E192E2D220F260DCE010E941C136E2D87
:1028F0006A0DCE014B2D2C2D0E941C1301151105C4
:1029000089F06A2D6D19472D4E192E2D220F260D97
:10291000CE010E941C136A2D6E19CE014B2D2C2D59
:102920000E941C13F90C82E0980EBA94C80EDE14B3
:1029300054F2DF91CF911F910F91FF90EF90DF90B4
:10294000CF90BF90AF909F908F907F906F905F904F
:102950004F900895DF92EF92FF920F931F937C01A7
:10296000062FD42E122F421B220F2F5F0E941C1302
:10297000C701602F4D2D212F03E0EE240E94341457
:102980001F910F91FF90EF90DF9008957F928F92AB
:102990009F92AF92BF92CF92DF92EF92FF920F93EE
:1029A0001F936C01962EA42EF22E7E2C760E1EEF17
:1029B000E19E102D1124812E820E672D282D0E945C
:1029C0001213B02EBA0CBA94C601672D4B2D282DC8
:1029D0000E941213AE0C100FC601692D4A2D212F33
:1029E0000E941C13F90CFA94C6016F2D4A2D212F59
:1029F0000E941C13C601672D4A2D2E2D01E00E9456
:102A00008513FE18C6016F2D4A2D2E2D02E00E945F
:102A10008513BE18C6016F2D4B2D2E2D04E00E948C
:102A20008513C601672D4B2D2E2D08E00E948513BE
:102A30001F910F91FF90EF90DF90CF90BF90AF90DC
:102A40009F908F907F9008958F929F92AF92BF92A8
:102A5000CF92DF92EF92FF920F931F936C01162F8C
:102A6000A42E922EF02EBE2C8E2C860E2EEFE29EE1
:102A7000E02C11242E2D290D682D0E942613AB0C5D
:102A8000FA94FE0C1150190D1B19C601612F4A2D25
:102A90002B2D01E0EF2C0E943414C601682D4A2D25
:102AA0002B2D02E00E9434141F910F91FF90EF90A4
:102AB000DF90CF90BF90AF909F908F9008953F92FE
:102AC0004F925F926F927F928F929F92AF92BF923E
:102AD000CF92DF92EF92FF920F931F93CF93DF93EA
:102AE0004C01362E442EF901A490319654906F017A
:102AF0000894C11CD11C8A2D992787FD90950796B3
:102B000068E070E00E94092AE62EFF24E7FCF094BA
:102B100000E0C0E0D0E060E8662E712C26C0E12F16
:102B2000E595E595E595FF27E7FDF095EC0FFD1F91
:102B3000EC0DFD1DE4912E2F30E0812F8770A30155
:102B400002C0559547958A95E2F724233523232B18
:102B500031F0612F630DC4014B2D0E942A121F5FBB
:102B60001A15ECF20F5FCE0DDF1D051524F410E0F1
:102B7000B02EB40CF5CFDF91CF911F910F91FF9044
:102B8000EF90DF90CF90BF90AF909F908F907F900D
:102B90006F905F904F903F9008953F924F925F9259
:102BA0006F927F928F929F92AF92BF92CF92DF925D
:102BB000EF92FF920F931F93CF93DF93EC01862E3A
:102BC000A42E422F102F3F8C23E526170CF4ABC008
:102BD0003FE23A150CF4A7C0C02EDD248C8190E0B2
:102BE00001979C01C29EC001C39E900DD29E900D84
:102BF0001124262F332727FD3095820F931F181697
:102C000019060CF090C08D8190E09C01C29EC0011D
:102C1000C39E900DD29E900D11242A2D332727FD9F
:102C20003095820F931F181619060CF07CC099245A
:102C3000442E55246DC09C0121503040421753074B
:102C400011F460E00EC0429EC001439E900D529E62
:102C5000900D1124840F951FED8DFE8DE80FF91F47
:102C600064914C9DC0014D9D900D5C9D900D112473
:102C7000682C680EBB24792C780C3FC0E62EFF240C
:102C800060FF19C0113039F44B2D4A0DCE01672D6C
:102C90000E942A122EC02C9DC0012D9D900D3C9D9E
:102CA000900D11244A2D480FCE01662D212F012FA2
:102CB0000E9426131EC098A18F8D9817D1F09F8F68
:102CC000113039F44B2D4A0DCE01672D0E942A1286
:102CD0000FC02C9DC0012D9D900D3C9D900D112489
:102CE0004A2D480FCE01662D212F012F0E94261359
:102CF0003F8EF594E7946E2DB3942B2D332727FD4B
:102D000030958D8190E0281739070CF4B7CF939454
:102D1000492D552747FD50958C8190E0481759075C
:102D20000CF489CF3F8EDF91CF911F910F91FF90CF
:102D3000EF90DF90CF90BF90AF909F908F907F905B
:102D40006F905F904F903F9008950F93CF93DF93D4
:102D5000EC01262F6A3049F48D819885899F802D5A
:102D600011249A85980F9A8726C06D3029F16985BC
:102D70004A8508850E94CD159C816885969F402DC7
:102D800011248985480F49878F818823A9F0552709
:102D900047FD5095699F9001112484E590E0821BC6
:102DA000930B8417950744F49D81699F902D1124FE
:102DB0008A85890F8A87198681E090E0DF91CF911B
:102DC0000F9108951F93CF93DF93EC01162FF89482
:102DD0008E8560E00E945E268F8518161CF460E0E8
:102DE0000E945E261EBD0DB407FEFDCF8EB58F85F9
:102DF00018161CF461E00E945E267894DF91CF9152
:102E00001F910895FF920F931F93CF93DF93EC01CF
:102E1000FF2400E010E06F2D6064CE010E94E216F6
:102E2000CE0160E80E94E2168E8561E00E945E2677
:102E30008F8518161CF460E00E945E26F801E95F99
:102E4000FC4F90E080818EBD0DB407FEFDCF8EB5A6
:102E50009F5F31969435B1F78F8518161CF461E0A9
:102E60000E945E26F3940C5A1F4F86E0F81699F6DE
:102E7000CE0160E40E94E216DF91CF911F910F9185
:102E8000FF900895CF93DF93DC0188EF91E0E7E0B6
:102E9000F3E0EF019C01199221503040E1F71996BF
:102EA0001C9219971A961C92DF91CF910895EF9278
:102EB0000F93CF93DF93EC014D876C872E87E88AC1
:102EC0000F8781E088878F8F18A28F83EFEFF4E060
:102ED00084918F5F8C83319684918F5F8D8331963F
:102EE000FE8FED8F0E94FC1081E00E94DD1085E0D6
:102EF0000E94EB108CE00E94E6108D8561E00E943C
:102F00001F268C8561E00E941F268E8561E00E944D
:102F10001F26888918161CF461E00E941F268F85E1
:102F200018161CF461E00E941F26888918166CF49C
:102F300060E00E945E266AE070E080E090E00E941F
:102F40000925888961E00E945E26EC852E2F3327B3
:102F500027FD3095F901E25DF74FE491F0E0EE0FC7
:102F6000FF1FE65EF74F859194919C8B8B8B2E5BB8
:102F7000374FF90184918A8FED852E2F332727FD56
:102F80003095F901E25DF74FE491F0E0EE0FFF1F9D
:102F9000E65EF74F859194919A8B898B2E5B374F24
:102FA000F9018491898FEF852E2F332727FD3095E6
:102FB000F901E25DF74FE491F0E0EE0FFF1FE65EEE
:102FC000F74F859194919E8B8D8B2E5B374FF90136
:102FD00084918B8FEE852E2F332727FD3095F901B5
:102FE000E25DF74FE491F0E0EE0FFF1FE65EF74F72
:102FF00085919491988F8F8B2E5B374FF901849137
:103000008C8FCE0161E20E94E216CE0164E10E9443
:10301000E2168B8587FF02C08FE78B876B85606820
:10302000CE010E94E216CE0160E20E94E216CE01BD
:103030006CE00E94E216CE010E940217DF91CF9150
:103040000F91EF900895FC01ED57FF4F619371933D
:10305000445F40830895CF93DF93DC01E0E8F7E716
:1030600085919491ED01C75ADF4FAD0141595F4FF2
:103070008150904C09F04EC0E6E9F7E7E491E8830F
:10308000E7E9F7E7E4911496EC931497E8E9F7E79A
:10309000E4911596EC931597E9E9F7E785919491FA
:1030A00017969C938E931697EBE9F7E78591949189
:1030B00019969C938E931897EDE9F7E7E4919B9608
:1030C000EC939B97EEE9F7E7E4919A96EC939A9745
:1030D000EFE9F7E7E491EA01E883E0EAF7E78591B1
:1030E00094915D969C938E935C97E2EAF7E78591C5
:1030F00094915F969C938E935E97E4EAF7E78591AF
:10310000949191969C938E939097E6EAF7E7859138
:10311000949132C08CE3888314961C9214972FEFFD
:1031200015962C93159780E293E017969C938E93B7
:10313000169784ED93E019969C938E93189781E0EF
:103140009B968C939B979A968C939A97FA012083DF
:103150008CEA9DE05D969C938E935C978EED9DE04E
:103160005F969C938E935E9784E79EE091969C93E6
:103170008E9390978CE39FE093969C938E93929777
:10318000DF91CF910895EF92FF920F931F93CF930A
:10319000DF937C018C01025B1F4FC8010E94421724
:1031A000C80166EA76E00E944127C8010E94021722
:1031B00083E00E94EB1084E091E0EEEFFFE30995DD
:1031C00084E590E0E80EF91EF7011082C80161E87D
:1031D00076E00E948C27C8010E940217E701CA54BA
:1031E000D040CE010E940212CE0164E00E94DA11AA
:1031F000882339F462E370E080E090E00E940925C2
:10320000F0CFDF91CF911F910F91FF90EF90089534
:103210000F931F93CF93DF93EC018C01025B1F4F41
:10322000C80161E040E00E949112FE01E95AFF4F9F
:10323000CE5ADF4F85E59881891B808326961882B8
:10324000C855D040698D613009F43EC0613028F026
:10325000888D653008F051C04BC0CE0185960E9424
:103260003A1ECE0160E00E941711C8010E94421769
:10327000CA5ADF4F81E08883C655D040C80162EE4C
:1032800076E00E9441276A8D7B8DC8014AE050E0BC
:103290000E941328C8016EEC76E00E944127C80105
:1032A0000E94021783B7817F846083BF83B78160E8
:1032B00083BF83B7816083BF889583B78E7F83BFC9
:1032C00083B78E7F83BF1FC0C059DF4F888199812C
:1032D000AA81BB818F709070A070B0700897A10513
:1032E000B10518F4C80167E00CC0C80168E709C05F
:1032F000882349F06B5FC80104C0882321F0C8010E
:103300006FE20E946427DF91CF911F910F91089582
:10331000AF92BF92CF92DF92EF92FF920F931F93E3
:10332000CF93DF93EC01CB57DF4F8881C558D04056
:10333000882309F44AC08C3010F010E002C01CE071
:10334000181BCA5ADF4F81E08883C655D0406EE40F
:10335000C62ED12CCC0EDD1EC60160E00E948D125F
:1033600053E5A52EB12CAC0EBD1EF50100814DE23A
:10337000F42E4F2D401B410F0D5FC60160E024E588
:1033800033E0E32E0E942415C60161E00E948D12F5
:10339000F5010081F01AF10E0D5FC60160E04F2DBE
:1033A00024E50E94C614C95ADF4F84E08993F501D1
:1033B0008081181B115D1883AB9669917991C601C4
:1033C0000E944127888181508883DF91CF911F918E
:1033D0000F91FF90EF90DF90CF90BF90AF90089546
:1033E000AF92BF92CF92DF92EF92FF920F931F9313
:1033F000CF93DF93EC01EFE7AE2EB12CA80EB91EF0
:10340000F501E080F180028113810E94D524E61A43
:10341000F70A080B190B7EE7C72ED12CCC0EDD1E48
:10342000F601808190E0A0E0B0E08E159F05A00736
:10343000B10708F081C08E0106581F4FF801808146
:103440009181A281B3810097A105B10509F474C0EF
:103450000E94D524F6012081620F711D811D911DEE
:10346000F5016083718382839383FE01E059FF4FEE
:1034700080819181A281B3810196A11DB11D8083BC
:103480009183A283B383F801108211821282138286
:103490000E94E324CA58DF4F688379838A839B8321
:1034A000C657D040CE010E941C11CE010A960E9440
:1034B0000212CE0148960E948E1181E032C08E0128
:1034C0000B5D1F4FC8010E94361EC8010E94341FA9
:1034D000C8010E942A20CE010E948819CE010E94B4
:1034E00008198E01025B1F4FC8010E940217CC5AB7
:1034F000DF4F8881C455D040882319F4C8010E9449
:1035000042170E94E324C658DF4F688379838A8379
:103510009B83249728813981621B730B7A936A936A
:1035200080E0DF91CF911F910F91FF90EF90DF909E
:10353000CF90BF90AF900895C658DF4F8881998192
:10354000AA81BB81CA57D0400097A105B10541F7B8
:10355000B6CF2F923F924F925F926F927F928F924F
:103560009F92AF92BF92CF92DF92EF92FF920F9312
:103570001F93DF93CF93CDB7DEB762970FB6F89462
:10358000DEBF0FBECDBF6C016C837D834B8324E512
:1035900030E0C20ED31EF60110822CEA3FEFC20EBD
:1035A000D31E1AE0A12EB12CAC0CBD1CB5E22B2E03
:1035B000312C2C0C3D1CAEE44A2E512C4C0C5D1CC5
:1035C00010E0F0E37F2E66241A823FEF3983A601D4
:1035D000495A5F4F5F834E83C601885A9F4F998730
:1035E0008887F601EA5AFF4FFB87EA8796012B5A34
:1035F0003F4F3D872C87E3E58E2E912C8C0C9D1C34
:103600005B81452F50E05F874E878B818150888B8F
:10361000C6010E94F0198823D9F3C50164E00E9415
:10362000DA11882369F4C50165E00E94DA11882364
:1036300039F4C50166E00E94DA11882309F4D3C089
:10364000F4010081C50164E00E94DA11882329F0A9
:10365000C1010E9487201983CBC0C1010E948D2027
:10366000C7C0C50163E044E00E94E411882321F053
:103670001F5FC1010E949320C50161E044E00E94E8
:10368000E411882321F01150C1010E949320812F61
:10369000992787FD90952E853F858217930711F412
:1036A00010E002C017FD1889F4018081819F902DE0
:1036B00011248C5F682E691A28C0872D992787FDF1
:1036C0009095262D332727FD3095821B930B02976B
:1036D000D4F4898162960FB6F894DEBF0FBECDBFD9
:1036E000CF91DF911F910F91FF90EF90DF90CF90DE
:1036F000BF90AF909F908F907F906F905F904F9012
:103700003F902F900895F1E0FA83862D992787FD49
:103710009095272D332727FD3095820F931F62E068
:1037200070E00E94092A762EEE81FF811082E885E2
:10373000F985608321E0EA85FB852083EC85FD85A2
:1037400010822C813D81C9019A8B898B00E0E12E8A
:10375000FF24E7FCF09420C0802F90E08E159F0599
:1037600069F423E0EE81FF812083F40180818E9D46
:10377000802D1124870DE885F9858083E989FA89F0
:1037800065917491C2010E948C270F5F29893A8943
:103790002E5F3F4F3A8B298B3B810317E8F2C20122
:1037A00060E00E948D12F40140814E9D402D112455
:1037B0004150470DC20160E024E50E941213C2018E
:1037C00061E00E948D12F40100810E9D402D1124B4
:1037D0004250470D0D5FC20160E024E573E0E72E23
:1037E0000E94C61415CFFA81FF2309F066CF39CFA6
:1037F000802F90E0909581959F4F2E853F85AC015D
:10380000249FC001259F900D349F900D11246EEFD1
:10381000662E680E52CF2F923F924F925F926F9218
:103820007F928F929F92AF92BF92CF92DF92EF9250
:10383000FF920F931F93DF93CF93CDB7DEB72B97F4
:103840000FB6F894DEBF0FBECDBF9B878A877A8301
:1038500069835C834B838C0101591F4FF801808180
:10386000882309F422C18A859B858A5A9F4F9B87AA
:103870008A8781E0EA85FB85808312921292E45563
:10388000F040FB87EA87108E9EE4E92EF12CEE0EC5
:10389000FF1EC70161E00E948D128AE0282E312CA4
:1038A0008A859B85280E391EB5E26B2E712C680E19
:1038B000791EE981FA81F491FD83A7E58A2E912C86
:1038C000880E991EF8E5CF2ED12CC80ED91EE2E540
:1038D0004E2E512C480E591E8D5A9F4F9F838E831A
:1038E00070E7A72EB12C8A859B85A80EB91E198773
:1038F00008878A859B850E94F0198823D1F39D81D2
:10390000992311F410E003C0EE81FF811081C701FB
:1039100060E040E02FE137E00E945F158B819C81E1
:10392000892B41F0145FC70160E0412F2B813C815E
:103930000E945F15F40110828CE0F6018083C701BC
:1039400069817A810E944127F201208130E0C9011A
:10395000880F991F820F931F909581959F4F8D5AC5
:10396000F4018083EE81FF81208130E0C901880F5E
:10397000991F820F931F909581959F4F835DF6014C
:103980008083F501808184FF04C0C7016FE977E07F
:1039900003C0C7016BE977E00E948C27F201208108
:1039A00030E0C901880F991F820F931F9095819570
:1039B0009F4F8D5AF4018083F60180818F5F808351
:1039C000EA85FB8582A5882321F0C70167E977E0B6
:1039D00003C0C70163E977E00E948C27F201808170
:1039E00090E09C01220F331F280F391F309521953D
:1039F0003F4F2D5AF4012083F60180818F5F808331
:103A0000C7016FE877E00E948C27C10165E00E9442
:103A1000DA11882351F0EA85FB8562A56F5FC30147
:103A20000E949920C3010E949320C10164E00E947A
:103A3000DA11882399F4E885F9856081262F30E032
:103A400040E050E0F50180819181A281B38182172D
:103A50009307A407B50708F16F3FF9F08A859B85A6
:103A600081599F4F9B878A878FEFEA85FB858083EB
:103A7000EF56F040FB87EA87C30160E00E94DA1D41
:103A8000C3010E94872081E0EA85FB85808F0DC0FD
:103A90008A859B850E94C3182CCFC10166E00E94D5
:103AA000DA11882309F425CFF3CF2B960FB6F894BB
:103AB000DEBF0FBECDBFCF91DF911F910F91FF9061
:103AC000EF90DF90CF90BF90AF909F908F907F90BE
:103AD0006F905F904F903F902F90089540E050E09E
:103AE0000E940B1C0895AF92BF92CF92DF92EF928B
:103AF0000F93CF93DF936C018EE790E0C80ED91E31
:103B000082E3F601808381E090E0A0E0B0E0B29330
:103B1000A293929382936F0185EF9FEFC80ED91EF7
:103B20008FEFF601808381E99FEFC80ED91EC60191
:103B30000E942B18C6010E941311C6016FEF0E944C
:103B400017114AE0A42EB12CAC0CBD1CC5010E947B
:103B5000CA11C5010E940212C60148960E94841132
:103B6000C601825B9F4F6DE04BE020E10FE03EE03D
:103B7000E32E0E945717E601A596CE010E94A620CB
:103B8000C50165E00E94DA11882329F0CE0160E0CA
:103B90000E94992006C0CE0165EA77E040E00E94CD
:103BA000EC1DDF91CF910F91EF90DF90CF90BF9000
:103BB000AF900895FC01662371F4178A158A14A248
:103BC00013A2108E109203051092020510920005A8
:103BD0001092B400118208950F931F93CF93DF9337
:103BE000EC018B01442371F460E00E94DA1D1E8712
:103BF0000D871B8A1A8A81E0898389E08E8B198E52
:103C00001B8E1D8EDF91CF911F910F910895CF9341
:103C1000DF93EC01662339F58881882321F18981BE
:103C2000882309F5898590E0880F991FEF81F88531
:103C3000E80FF91F859194912FEF8F3F920711F4B0
:103C4000188211C09C8790E0880F991FEA85FB8538
:103C5000E80FF91F65917491CE0140E00E94EC1DC0
:103C600089858F5F8987DF91CF91089560E00E94F9
:103C7000071E089560E00E94DA1D08950F93DC018D
:103C8000002309F069C0623009F443C0633030F4A6
:103C9000662359F0613009F05FC00DC0633009F44C
:103CA00044C0643009F058C04CC04B3008F04AE0C2
:103CB00056964C9351C0842F90E0880F991F1F9601
:103CC0002D913C915097280F391FF90185919491BE
:103CD00090969C938E935F97FC0145915491149616
:103CE0008C911497849F602D112491966C939197D9
:103CF000252F3327862F90E02817390708F4652FE2
:103D000014968C911497689F802D112492968C9311
:103D100023C014968C911497489F802D1124599696
:103D20008C9359975A962C9317C014968C9114978C
:103D3000489F802D11245B968C935B975C962C9307
:103D40000BC014968C911497489F802D11245D967A
:103D50008C935D975E962C930F9108950F93CF935C
:103D6000DF93EC01662309F07BC08981882309F485
:103D700077C08D89882309F073C0EA89FB89EE0F2B
:103D8000FF1F4D855E85E40FF51F259134912115A8
:103D9000310509F049C08989813031F41B8A1A8ABA
:103DA000FA012591349140C019828881882379F0E5
:103DB000CE0160E00E94071E8A899B89880F991FA7
:103DC000ED85FE85E80FF91F259134912DC01F8ADE
:103DD0001D8A1CA21BA2188E1092030510920205C8
:103DE000109200051092B4003BC006E0369527956E
:103DF0000A95E1F76F70422F4F71B5E03695279520
:103E0000BA95E1F72051CE0100E00E943E1E8A895A
:103E10009B8901969B8B8A8B880F991FED85FE8568
:103E2000E80FF91F25913491B9017695679576953C
:103E3000679520FDDACF862F8F738C8B8C81839FC3
:103E4000802D11248D8B1DA21CA21BA281E08F8BC3
:103E500080930005188E8A899B8901969B8B8A8B9B
:103E6000DF91CF910F91089560E00E94AE1E0895FA
:103E7000CF93DF93EC01662309F0E9C08F89882393
:103E800009F4E5C08D89882371F41F8A1D8A1CA25C
:103E90001BA2188E109203051092020510920005C5
:103EA0001092B400D4C081508D8B8DA1882309F06D
:103EB00044C08BA19CA10196880F991FEF8DF8A19A
:103EC000E80FF91F85919491282F27702EA3AC013C
:103ED00073E0569547957A95E1F79A0136952795BF
:103EE000892F9927869586958FA32F738C81289F7C
:103EF000202D11242DA34170409304058BA19CA17A
:103F000001969CA38BA329A130E082179307A8F008
:103F10008AA1882329F0281B31093CA32BA30DC0BB
:103F20001F8A1D8A1CA21BA2188E109203051092D4
:103F30000205109200051092B4008DA181508DA34E
:103F4000988D9F5F988F2FA18C89280F8C85280FC3
:103F50002A836B8D662369F0892F992787FD9095B9
:103F600070E00E94092A8C8D869F802D1124820F7B
:103F70008A838A8190E0CB966BE370E00E94092AE5
:103F80008A832E892B83698D662379F0888D772724
:103F900067FD7095992787FD90950E94092A8A8D63
:103FA000869F802D1124820F8B836D8D662399F05F
:103FB000888D992787FD909570E00E94092ACB0192
:103FC00062E070E00E94092A9E8D899F802D112455
:103FD0009B81890F8B838B818A300CF089E087FD70
:103FE00080E08B838C898F3309F41B82F894EA81FB
:103FF000F0E0E753F84FE491E09301052D8130E0C4
:104000008B81992787FD9095A901489F9001499F31
:10401000300D589F300D112488A590E0A901489FCC
:104020009001499F300D589F300D11248EA1992782
:1040300087FD9095AC01249FC001259F900D349F72
:10404000900D112480930205809303057894DF91ED
:10405000CF91089560E00E94381F08956091020595
:10406000662381F18091FF048F5F8093FF0490911C
:104070000105891738F130E080910005882309F4A3
:1040800031E0309300051092FF04809104058823ED
:10409000A9F080910C0223E4829FC0011124895B66
:1040A00080930C0290E070E00E94F5298093030554
:1040B00005C0809103058093B40008953323C9F7A8
:1040C00080E0F9CF08951F920F920FB60F9211243E
:1040D0002F933F934F935F936F937F938F939F9310
:1040E000AF93BF93EF93FF930E942E20FF91EF9128
:1040F000BF91AF919F918F917F916F915F914F9100
:104100003F912F910F900FBE0F901F90189561EC6B
:1041100077E040E00E94EC1D089569EB77E040E015
:104120000E94EC1D089563EB77E040E00E94EC1DD7
:104130000895FC01862F668170E06F5F7F4F99279D
:1041400087FD90950E94092A858308950F93FC01AD
:1041500081E0848384E080A784E098E0908B878767
:10416000CF0161E040E020E000E00E943E1E83E0DD
:1041700061E070E00E94BF25E1EBF0E08081887F84
:1041800081608083F89410928000E1E8F0E0108272
:10419000109285001092840088E191E0909389004C
:1041A00080938800808188608083808181608083A3
:1041B000EFE6F0E080818260808378940F9108952B
:1041C00081E080934A05609327051092480510927C
:1041D000490508952091260530E080912505281B8A
:1041E0003109C90108954091250580912605481798
:1041F00018F02FEF3FEF0AC0E42FF0E0EB5FFA4F2B
:104200008081282F30E04F5F40932505C901089534
:10421000E091250580912605E81718F0EFEFFFEFF4
:1042200006C0F0E0EB5FFA4F8081E82FF0E0CF01AD
:1042300008950895AC0120914D0530914E0521154A
:104240003105E1F090912505809126059817B0F091
:1042500090E008C0FA01EA0FFB1F8081AB5FBA4F04
:104260008C939F5FA92FB0E0A617B7079CF310921D
:10427000250560932605CB01F90109950895E09184
:104280004B05F0914C05309729F01092480510929B
:1042900049050995089570934E0560934D0508955D
:1042A00070934C0560934B0508951092520510923F
:1042B000510588EE93E0A0E0B0E080935305909321
:1042C0005405A0935505B09356058AE192E090936A
:1042D000500580934F050895CF92DF92EF92FF92A1
:1042E0000F931F93CF93DF937C016B018A01809121
:1042F0004A058823A1F0C0E0D0E00DC0D701ED91C0
:10430000FC91D601AC0FBD1F0190F081E02DC701DB
:104310006C9109952196C017D10780F304C0CB0199
:10432000642F0E94B922C801DF91CF911F910F9194
:10433000FF90EF90DF90CF900895DF93CF930F928F
:10434000CDB7DEB7FC01698380914A058823C9F0A7
:1043500080914905803238F081E090E09383828338
:1043600020E030E015C080914805E82FF0E0E85DDE
:10437000FA4F998190838F5F809348058093490518
:1043800005C0CE01019661E00E94B92221E030E033
:10439000C9010F90CF91DF9108950F93062F80915F
:1043A000270568E275E04091490521E00E946422FA
:1043B000109248051092490510924A050F910895F0
:1043C00061E00E94CD210895413208F040E2862F3D
:1043D00065E075E00E941B2210922505809326055A
:1043E000089521E00E94E42108951092250510927D
:1043F000260510924805109249050E946F240895E1
:104400000F931F938C01862F0E9417228FE391E256
:104410000E94D9228AE191E20E94D422C8010E941E
:10442000F5211F910F9108950E9400220895880F91
:104430008093BA000895382F413210F040E042C016
:1044400080915B058823E1F791E090935B052093D1
:104450005D058FEF8093C80510928305415040930E
:1044600084054F5F90935C0580915C05330F832B2F
:1044700080935C0580915E05813041F410925E0569
:1044800080915C058093BB0085EC01C085EE809334
:10449000BC0080915B058130E1F380918305841736
:1044A00010F44091830520E030E00AC0FB01E20FE8
:1044B000F31FD901AD59BA4F8C9180832F5F3F4FC5
:1044C0002417A0F3842F08950F931F93582F122FB2
:1044D000413210F081E04AC080915B058823E1F70A
:1044E00082E080935B0500935D058FEF8093C805A4
:1044F0001092830540938405A3E6B5E0FB0102C05A
:1045000081918D938E2F861B8417D0F310925C05BA
:1045100080915C05550F852B80935C0580915E052D
:10452000813041F410925E0580915C058093BB0060
:1045300085EC01C085EE8093BC00112321F08091B1
:104540005B058230E1F38091C8058F3F11F480E074
:104550000DC08091C805803211F482E007C08091BF
:10456000C805803311F084E001C083E01F910F91F2
:104570000895482F613210F081E0089580915B0525
:10458000843011F082E008956093A605A5E8B5E0B7
:10459000842F9C01F90102C081918D938E2F841B81
:1045A0008617D0F380E008959093620580936105AB
:1045B00008959093600580935F0508951F920F9270
:1045C0000FB60F9211242F933F934F935F936F93E6
:1045D0007F938F939F93AF93BF93EF93FF938091BC
:1045E000B90090E0887F90708036910509F4F2C0A0
:1045F00081369105CCF58832910509F47BC089326A
:104600009105B4F48031910509F46FC081319105B1
:104610003CF4009709F447C1089709F04FC165C001
:104620008831910509F466C0809709F047C182C0BE
:104630008034910509F4A4C08134910544F4803399
:10464000910509F482C0C89709F038C189C0803546
:10465000910509F489C08835910509F496C088341C
:10466000910509F02BC1AEC08839910509F413C139
:1046700089399105ECF48837910509F4ABC0893785
:1046800091054CF48836910509F4A4C08037910552
:1046900009F014C19FC08838910509F4FCC0803925
:1046A000910509F49DC08038910509F007C198C0B3
:1046B000803B910509F4C6C0813B91054CF4803ADA
:1046C000910509F49FC0883A910509F0F7C0BAC076
:1046D000803C910509F4E3C0883C910509F4DFC0F2
:1046E000883B910509F0EAC0C2C080915C058093C7
:1046F000BB00CFC09091830580918405981768F422
:1047000090918305E92FF0E0ED59FA4F8081809375
:10471000BB009F5F90938305BCC080915D0588239B
:1047200009F44BC085ED8093BC008091BC0084FDF2
:10473000FCCFC2C080E28093C80585ED8093BC00A9
:104740008091BC0084FDFCCFB7C080E38093C80596
:1047500085ED8093BC008091BC0084FDFCCFACC093
:1047600088E38093C8059BC0809183059091BB002E
:10477000E82FF0E0ED59FA4F90838F5F8093830527
:10478000909183058091840582C0809183059091EA
:10479000BB00E82FF0E0ED59FA4F90838F5F8093D4
:1047A000830580915D05882341F085ED8093BC00F1
:1047B0008091BC0084FDFCCF7FC081E080935E05CA
:1047C00084EA6EC085ED8093BC008091BC0084FDBE
:1047D000FCCF72C083E080935B051092C70559C07F
:1047E0008091C705803208F056C08091C70590912E
:1047F000BB00E82FF0E0E955FA4F90838F5F80937C
:10480000C70547C08091C705803230F4E091C705E5
:10481000F0E0E955FA4F108285ED8093BC0080915D
:10482000BC0084FDFCCF10925B056091C705E09150
:104830006105F091620587EA95E070E009951092B4
:10484000C7052DC084E080935B051092A5051092EA
:10485000A605E0915F05F091600509958091A60598
:10486000882329F481E08093A60510928505909114
:10487000A505E92FF0E0EB57FA4F80818093BB004C
:104880009F5F9093A5059091A5058091A605981727
:1048900010F485EC01C085E88093BC000FC085EC66
:1048A0008093BC0009C01092C80585ED8093BC00C0
:1048B0008091BC0084FDFCCF10925B05FF91EF91CD
:1048C000BF91AF919F918F917F916F915F914F9128
:1048D0003F912F910F900FBE0F901F90189510923F
:1048E0005B0581E080935D0510925E0582E161E0E9
:1048F0000E945E2683E161E00E945E26E9EBF0E023
:1049000080818E7F808380818D7F808388E4809307
:10491000B80085E48093BC0008951F920F920FB6F3
:104920000F9211242F933F938F939F93AF93BF9335
:104930008091CD059091CE05A091CF05B091D00585
:104940003091D1050196A11DB11D232F2D5F2D376B
:1049500020F02D570196A11DB11D2093D105809304
:10496000CD059093CE05A093CF05B093D00580914F
:10497000C9059091CA05A091CB05B091CC050196CF
:10498000A11DB11D8093C9059093CA05A093CB05C5
:10499000B093CC05BF91AF919F918F913F912F9193
:1049A0000F900FBE0F901F9018958FB7F89420911D
:1049B000CD053091CE054091CF055091D0058FBFE8
:1049C000B901CA0108959FB7F8942091C9053091A3
:1049D000CA054091CB055091CC0586B5A89B06C071
:1049E0008F3F21F02F5F3F4F4F4F5F4F9FBF542F9F
:1049F000432F322F2227280F311D411D511D82E0E8
:104A0000220F331F441F551F8A95D1F7B901CA01E0
:104A100008959B01AC017FB7F8948091C9059091EE
:104A2000CA05A091CB05B091CC0566B5A89B05C081
:104A30006F3F19F00196A11DB11D7FBFBA2FA92F9D
:104A4000982F8827860F911DA11DB11D62E0880F48
:104A5000991FAA1FBB1F6A95D1F7BC012DC0FFB7D4
:104A6000F8948091C9059091CA05A091CB05B091A9
:104A7000CC05E6B5A89B05C0EF3F19F00196A11D36
:104A8000B11DFFBFBA2FA92F982F88278E0F911D18
:104A9000A11DB11DE2E0880F991FAA1FBB1FEA9557
:104AA000D1F7861B970B885E9340C8F221503040A7
:104AB0004040504068517C4F21153105410551055A
:104AC00071F60895789484B5826084BD84B5816060
:104AD00084BD85B5826085BD85B5816085BDEEE606
:104AE000F0E0808181608083E1E8F0E010828081E5
:104AF00082608083808181608083E0E8F0E0808153
:104B000081608083E1EBF0E0808184608083E0EB72
:104B1000F0E0808181608083EAE7F0E0808184605A
:104B200080838081826080838081816080838081B6
:104B3000806880831092C1000895982F8E3008F00D
:104B40009E50977080910D028295880F880F807C0F
:104B5000892B80937C0080917A00806480937A0016
:104B600080917A0086FDFCCF2091780040917900F9
:104B7000942F80E030E0282B392BC90108951F9332
:104B8000CF93DF93182FEB0161E00E941F2620973F
:104B900009F44AC0CF3FD10509F449C0E12FF0E044
:104BA000EA5AF74F84918330C1F0843028F4813081
:104BB00051F08230B1F50CC0863019F1873049F1DF
:104BC000843079F514C084B5806884BDC7BD33C016
:104BD00084B5806284BDC8BD2EC08091800080688D
:104BE00080938000D0938900C093880024C0809176
:104BF0008000806280938000D0938B00C0938A00F5
:104C00001AC08091B00080688093B000C093B30058
:104C100012C08091B00080628093B000C093B40055
:104C20000AC0C038D1051CF4812F60E002C0812F7A
:104C300061E00E945E26DF91CF911F910895CF938E
:104C4000DF93482F50E0CA018E5B974FFC013491EF
:104C5000425D574FFA018491882369F190E0880FF3
:104C6000991FFC01E05FF74FA591B491FC01E65E4E
:104C7000F74FC591D491662351F42FB7F8948C91D6
:104C8000932F909589238C93888189230BC0623060
:104C900061F42FB7F8948C91932F909589238C937E
:104CA0008881832B88832FBF06C09FB7F8948C918F
:104CB000832B8C939FBFDF91CF910895482F50E0B5
:104CC000CA018A5A974FFC012491CA018E5B974F03
:104CD000FC019491425D574FFA013491332309F45A
:104CE00040C0222351F1233071F0243028F42130C8
:104CF000A1F0223011F514C02630B1F02730C1F0F8
:104D00002430D9F404C0809180008F7703C0809153
:104D100080008F7D8093800010C084B58F7702C0A3
:104D200084B58F7D84BD09C08091B0008F7703C0AA
:104D30008091B0008F7D8093B000E32FF0E0EE0F04
:104D4000FF1FE65EF74FA591B4912FB7F894662345
:104D500021F48C919095892302C08C91892B8C939E
:104D60002FBF0895682F70E0CB018A5A974FFC013E
:104D70002491CB018E5B974FFC014491625D774F8C
:104D8000FB019491992319F420E030E03CC02223E8
:104D900051F1233071F0243028F42130A1F0223079
:104DA00011F514C02630B1F02730C1F02430D9F409
:104DB00004C0809180008F7703C0809180008F7D38
:104DC0008093800010C084B58F7702C084B58F7D3A
:104DD00084BD09C08091B0008F7703C08091B0007E
:104DE0008F7D8093B000892F90E0880F991F8C5D94
:104DF000974FFC01A591B4918C9120E030E0842381
:104E000011F021E030E0C90108950895CF93DF93B8
:104E10000E9462250E9405270E94D010C0E0D0E0C9
:104E20000E9455102097E1F30E940000F9CFCF9225
:104E3000DF92EF92FF920F931F93CF93DF937C014A
:104E40006B018A01C0E0D0E00FC0D6016D916D0109
:104E5000D701ED91FC910190F081E02DC7010995FA
:104E6000C80FD91F015010400115110571F7CE016F
:104E7000DF91CF911F910F91FF90EF90DF90CF9036
:104E80000895EF92FF920F931F93CF93DF937C01CE
:104E90008B01C0E0D0E0F8010F5F1F4F64916623E3
:104EA00059F0D701ED91FC910190F081E02DC701FF
:104EB0000995C80FD91FEFCFCE01DF91CF911F9178
:104EC0000F91FF90EF900895DC01ED91FC9101901E
:104ED000F081E02D09950895EF92FF920F931F93B3
:104EE0008C01DC01ED91FC910190F081E02D6DE0F1
:104EF00009957C01D801ED91FC910190F081E02DA4
:104F0000C8016AE009959C012E0D3F1DC9011F9142
:104F10000F91FF90EF900895EF92FF920F931F93E0
:104F20007C010E9441278C01C7010E946C279C01D3
:104F3000200F311FC9011F910F91FF90EF9008952D
:104F40004F925F927F928F929F92AF92BF92CF9239
:104F5000DF92EF92FF920F931F93DF93CF93CDB722
:104F6000DEB7A1970FB6F894DEBF0FBECDBF2C0100
:104F7000742ECB01223008F42AE019A231E2C32EAC
:104F8000D12CCC0EDD1E822E9924AA24BB24672DA1
:104F9000752FA50194010E941C2A79018A01C8017C
:104FA000B701A50194010E94CA29472D461B089408
:104FB000C108D1084A3014F4405D01C0495CF601D3
:104FC0004083E114F1040105110521F07E2C5F2DD1
:104FD000C801DDCFC201B6010E94AE08A1960FB68E
:104FE000F894DEBF0FBECDBFCF91DF911F910F911F
:104FF000FF90EF90DF90CF90BF90AF909F908F90F9
:105000007F905F904F900895DC012115310541F4A8
:10501000ED91FC910190F081E02D642F09950895A8
:105020000E94A0270895EF92FF920F931F939A0179
:105030007B0100E010E0B801A7010E9404281F9145
:105040000F91FF90EF9008952F923F924F925F92B1
:105050006F927F928F929F92AF92BF92CF92DF9288
:10506000EF92FF920F931F93DF93CF93CDB7DEB7ED
:105070003B014C0119012A016D897E898F89988D28
:105080006A197B098C099D09621A730A840A950AB8
:10509000A40193010E94CA29E218F3080409150922
:1050A000A80197010E943E2A2A0D3B1D4C1D5D1D43
:1050B000B901CA01CF91DF911F910F91FF90EF903D
:1050C000DF90CF90BF90AF909F908F907F906F9028
:1050D0005F904F903F902F900895EF92FF920F9323
:1050E0001F937B018C01611571058105910529F4E0
:1050F00020E030E040E050E00BC00E94B404A80182
:1051000097010E943E2AAC01CB01DA019C01AD015E
:10511000B901CA011F910F91FF90EF900895EF928E
:10512000FF920F931F937B018C0162177307840713
:10513000950764F4261B370B480B590BCA01B901BC
:105140000E946D28E60EF71E081F191FB701C8013F
:105150001F910F91FF90EF90089598D088F09F577E
:1051600090F0B92F9927B751A0F0D1F0660F771FB3
:10517000881F991F1AF0BA95C9F712C0B13081F093
:105180009FD0B1E008959CC0672F782F8827B85F23
:1051900039F0B93FCCF3869577956795B395D9F7F4
:1051A0003EF490958095709561957F4F8F4F9F4FFE
:1051B0000895E89409C097FB3EF49095809570950A
:1051C00061957F4F8F4F9F4F9923A9F0F92F96E953
:1051D000BB279395F695879577956795B795F111C8
:1051E000F8CFFAF4BB0F11F460FF1BC06F5F7F4F65
:1051F0008F4F9F4F16C0882311F096E911C0772377
:1052000021F09EE8872F762F05C0662371F096E87F
:10521000862F70E060E02AF09A95660F771F881F4E
:10522000DAF7880F9695879597F9089597F99F670C
:1052300080E870E060E008959FEF80EC089500241E
:105240000A941616170618060906089500240A94EB
:1052500012161306140605060895092E0394000C71
:1052600011F4882352F0BB0F40F4BF2B11F460FF00
:1052700004C06F5F7F4F8F4F9F4F089557FD905829
:10528000440F551F59F05F3F71F04795880F97FB0A
:10529000991F61F09F3F79F08795089512161306C4
:1052A0001406551FF2CF4695F1DF08C016161706F3
:1052B0001806991FF1CF8695710561050894089528
:1052C000E894BB2766277727CB0197F908950BD081
:1052D000C4CFB5DF28F0BADF18F0952309F0A6CFC8
:1052E000ABCF1124EECFCADFA0F3959FD1F3950F7A
:1052F00050E0551F629FF001729FBB27F00DB11D5A
:10530000639FAA27F00DB11DAA1F649F6627B00DE9
:10531000A11D661F829F2227B00DA11D621F739FD2
:10532000B00DA11D621F839FA00D611D221F749FE0
:105330003327A00D611D231F849F600D211D822F27
:10534000762F6A2F11249F5750408AF0E1F088236E
:105350004AF0EE0FFF1FBB1F661F771F881F91507B
:105360005040A9F79E3F510570F060CFAACF5F3F34
:10537000ECF3983EDCF3869577956795B795F795AE
:10538000E7959F5FC1F7FE2B880F911D9695879536
:1053900097F90895629FD001739FF001829FE00DFD
:1053A000F11D649FE00DF11D929FF00D839FF00DA4
:1053B000749FF00D659FF00D9927729FB00DE11D50
:1053C000F91F639FB00DE11DF91FBD01CF0111242D
:1053D0000895991B79E004C0991F961708F0961B51
:1053E000881F7A95C9F780950895AA1BBB1B51E1C8
:1053F00007C0AA1FBB1FA617B70710F0A61BB70B45
:10540000881F991F5A95A9F780959095BC01CD01E9
:10541000089597FB092E07260AD077FD04D0E5DF13
:1054200006D000201AF4709561957F4F0895F6F725
:10543000909581959F4F0895A1E21A2EAA1BBB1B40
:10544000FD010DC0AA1FBB1FEE1FFF1FA217B30750
:10545000E407F50720F0A21BB30BE40BF50B661F66
:10546000771F881F991F1A9469F76095709580952A
:1054700090959B01AC01BD01CF01089597FB092ECA
:1054800005260ED057FD04D0D7DF0AD0001C38F413
:1054900050954095309521953F4F4F4F5F4F089560
:1054A000F6F790958095709561957F4F8F4F9F4F40
:1054B0000895EE0FFF1F0590F491E02D09942F92AF
:1054C0003F924F925F926F927F928F929F92AF9294
:1054D000BF92CF92DF92EF92FF920F931F93CF93E1
:1054E000DF93CDB7DEB7CA1BDB0B0FB6F894DEBF78
:1054F0000FBECDBF09942A88398848885F846E849E
:105500007D848C849B84AA84B984C884DF80EE80E7
:10551000FD800C811B81AA81B981CE0FD11D0FB6F0
:10552000F894DEBF0FBECDBFED010895F894FFCF14
:10553000300031004C4F4144455200010000000151
:10554000010101010101010101010101010101014B
:105550000101010101010000000202020202020237
:105560000202020202020000000101000201020127
:10557000000000000001020202020201020001011B
:1055800002020202020202020202020202020002FD
:1055900002020201010202010202010202020202EF
:1055A00002010200010202020101020100000000EA
:1055B00001020202020202020002020202010102D0
:1055C00002020200020202020202010000000001C7
:1055D00002020101020201020001020202020202B1
:1055E00001020201020202010102020202000202A1
:1055F000020202020202020202020202010100028F
:105600000102020102020100000000000202010288
:105610000001010000000202020202020202020274
:10562000020202000000010101010101010101016A
:10563000010101010101010101010101010100005C
:105640000000A5161727000000009D216C21EA200C
:06565000F32008211921DE
:00000001FF
