:100000000C94AD030C94D5030C94D5030C94D50338
:100010000C94D5030C94D5030C94D5030C94D50300
:100020000C94D5030C94D5030C94D5030C94C31AEB
:100030000C94D5030C94D5030C94D5030C94D503E0
:100040000C94ED1E0C94D5030C94D5030C94D5039D
:100050000C94D5030C94D5030C94D5030C94D503C0
:100060000C943E1D0C94D5034E6F206D6173746526
:100070007200536C61766520646973636F6E6E65A0
:10008000637465640057726F6E6720736C61766588
:1000900020646174610031206D6173746572206D3C
:1000A000617800536C6176652070617573656400DA
:1000B0000101010101010101010101010101010130
:1000C000010101010101000000020202020202021C
:1000D000020202020202000000010100020202020A
:1000E00002020202020202020202020202000101F4
:1000F00002020202020202020202020202020202E0
:1001000002020201010202020202020202020202D1
:1001100002020202020202020101020202020202C1
:1001200002020202020202020202020202010102B1
:10013000020202020202020202020202020202029F
:100140000202010102020202020202020202020291
:100150000202020202020201010202020202020281
:100160000202020202020202020202020101000273
:10017000020202020202020202020202020202025F
:100180000001010000000202020202020202020259
:10019000020202000000010101010101010101014F
:1001A000010101010101010101010101010101013F
:1001B000010101010101010101010101010101012F
:1001C0000101000000020202020202020202020217
:1001D000020200000001010001020102010201020D
:1001E00001020102010201020100010102020202F8
:1001F00002020202020202020202020202020201E0
:1002000001020102010201020102010201020102D6
:1002100001020102010102020202020202020202C2
:1002200002020202020202020201010201020102B2
:1002300001020102010201020102010201020101A7
:10024000020202020202020202020202020202028E
:100250000202020101020102010201020102010285
:100260000102010201020102010100010201020179
:10027000020102010201020102010201000101006A
:100280000000020202020202020202020202020054
:100290000000010101010101010101010101010150
:1002A000010101010101010101010101010101013E
:1002B0000101010101010101010101010101000030
:1002C0000002020202020202020202020202000014
:1002D0000001010002010201000000000001020211
:1002E00002020201020001010202020202020202F3
:1002F00002020202020200020202020101020201E3
:1003000002020102020202020201020001020202D2
:1003100001010201000000000102020202020202C9
:1003200000020202020101020202020002020202B3
:1003300002020100000000010202010102020102AA
:100340000001020202020202010202010202020193
:100350000102020202000202020202020202020280
:100360000202020201010002010202010202010076
:100370000000000002020102000101000000020270
:100380000202020202020202020202000000010155
:10039000010101010101010101010101010101014D
:1003A00001010101506C6179657220312057494E7D
:1003B0002100506C6179657220322057494E21002E
:1003C000D003DE034475656C00426F6D6265720098
:1003D000486F737420286D617374657229004A6FC9
:1003E000696E2028736C617665290003053F213F03
:1003F0001208120A100A0E1C0E0C1E0C141A1416E7
:100400001F161E131E1E1B1E1E1F1E3F213F3A2FAE
:100410003A173D173F213F181F02040A041F0E041C
:10042000040E1F0A1F0A0E0E1F04110E2E252E2F5A
:100430002A2E262929021F02081F08150E04040E61
:10044000150E15151B151B040604040C04000000F2
:100450000017000300031F0A1F16371A1904130A96
:10046000153A000300000E11110E000A040A040ED2
:10047000040030000404040010001804031F111FBE
:10048000121F101D151711151F07041F17151D1F0B
:10049000151D01011F1F151F17151F000A0000322F
:1004A00000040A110A0A0A110A040115020E1117A2
:1004B0001E051E1F150A0E110A1F110E1F15111FF2
:1004C00005010E111D1F041F111F1108100F1F041D
:1004D0001B1F10101F061F1E040F0E110E1F0906F2
:1004E0000E112E1F051A121509011F011F101F0FD3
:1004F000180F1F0C1F1B041B031C03191513001FCF
:1005000011030418111F0002010220202000010223
:100510000C121E1F120C0C12120C121F0C1A1404B7
:100520001E05242A1E1F021C141D1020201D1F083A
:1005300014111F101E041E1E021C0C120C3E0A0475
:100540000C123E1E040214160A020F120E101E0E8A
:10055000100E1E081E120C1226281E322A26041EF9
:1005600021001F00211E040102013F213F0A4E6F9E
:100570002053442063617264206F720A6E6F204CB6
:100580004F414445522E4845580A0A153A45786964
:1005900074001D20466C617368696E670A20206CC8
:1005A0006F616465722E2E2E0A0A444F4E27542026
:1005B0005455524E204F464621006D560A0A504C63
:1005C000454153450A5455524E204F4646004C4F24
:1005D0005720424154544552590A001773617665B9
:1005E00000166261636B001574797065000A0A0A6F
:1005F000153A6F6B617920163A6564697400596F1A
:100600007520656E74657265640A00540A03E181A1
:10061000867F3E186D830F0F0E0183866033186D41
:10062000C3198F1803C38E6033186DE330CF1803DE
:10063000C39E603630CDE360CF3006C79E7E3E302D
:10064000CDB360CF300CC6F6603330D9B660CF334F
:10065000CFCCF66061B0DB1E60CF30D86CE6C061F5
:10066000B0DB1E618F19986CC6C063B19B0E330F4F
:100670000FB078C6FF7E1F1B061E0F1753440016CF
:100680001378001613140015102000152010000018
:1006900000050089300802380249786814000045D6
:1006A00000680100000500680138010000050038FD
:1006B0000168010000F6E8DBCFC3B8AEA49B928AC4
:1006C000827B746E68625C57524E4945413E3A37B0
:1006D00034312E2C29272523211F1D1C1A191716EA
:1006E0001514131211100F0E0D0C0B0A0908070632
:1006F000F406F8060101F7030101FF030000000002
:10070000240027002A0000000000250028002B00FC
:10071000000000002300260029000404040404044F
:1007200004040202020202020303030303030102A0
:10073000040810204080010204081020010204086F
:100740001020000000070002010000030406000062
:100750000000000000000606B51B11241FBECFEFED
:10076000D8E0DEBFCDBF12E0A0E0B1E0E8E1FAE4FE
:1007700002C005900D92A632B107D9F715E0A6E2A6
:10078000B2E001C01D92AD3AB107E1F717E0CAE54A
:10079000D7E004C02297FE010E946E24C635D1071F
:1007A000C9F70E941B210C940A250C940000FC013F
:1007B00080910F01882389F52081422F552747FD1D
:1007C00050958281992787FD9095880F991F880FF2
:1007D000991F4817590789F42181422F552747FD52
:1007E00050958381992787FD9095880F991F880FD1
:1007F000991F4817590749F408954817590714F4E1
:100800002F5F01C0215020830895481759071CF419
:100810002F5F21830895215021830895982FFA0195
:100820008481882369F0DA01159614968C911497C7
:10083000882311F4FD0104C03A968481882341F491
:1008400080E5828383E0838381E084839083618376
:100850000895AF92BF92CF92DF92EF92FF920F93E3
:100860001F93CF93DF93BBEBEB2EB2E0FB2E0AEC92
:1008700012E0C0E0D0E0A82EBB24C62EDD24F70194
:1008800084818823F9F08081992787FD90958A15C6
:100890009B05C1F48181992787FD90958C159D0555
:1008A00089F41482FE01EE0FFF1FEE0FFF1FEC0F05
:1008B000FD1FE554FD4F4081518162817381848128
:1008C0000E94C104F80184818823F9F0808199276E
:1008D00087FD90958A159B05C1F48181992787FD35
:1008E00090958C159D0589F41482FE01EE0FFF1F73
:1008F000EE0FFF1FEC0FFD1FE653FD4F40815181AE
:100900006281738184810E94C104219685E090E018
:10091000E80EF91E0B5F1F4FC330D10509F0AFCFB2
:10092000DF91CF911F910F91FF90EF90DF90CF90CB
:10093000BF90AF9008951F9370E0282F30E085E1BD
:1009400090E0689FF001699FF00D789FF00D1124F1
:10095000E20FF31FE05FFE4F1081113059F08EE17E
:100960008083660F771F660F771F822F880F880F8F
:100970000E94290480E01150123008F481E01F9198
:100980000895EF92FF920F931F93DF93CF9300D0C0
:1009900000D00F92CDB7DEB7242F49835A836B83E3
:1009A0007C838D83E72E47FD2D5FF22EF594F59421
:1009B0006A8167FD6D5F062F0595059510E008C0FB
:1009C000812F8F0D602F0E949B04882369F41F5F85
:1009D0001E15B0F309C08F2D811B602F0E949B0450
:1009E000882379F41F5F01C010E01E15A0F309C031
:1009F000612F600F8F2D0E949B04882379F41F5F65
:100A000001C010E01E15A0F309C0602F611B8F2DDF
:100A10000E949B04882329F41F5F01C010E01E156B
:100A2000A0F30F900F900F900F900F90CF91DF9148
:100A30001F910F91FF90EF900895EF92FF920F9307
:100A40001F93CF93DF933CECE32E32E0F32E0DEBBC
:100A500012E0C0E0D0E0F80182818823C1F08081FB
:100A6000882389F41282FE01EE0FFF1FEE0FFF1F95
:100A7000EC0FFD1FE554FD4F408151816281738170
:100A800084810E94C104F801808181508083F70134
:100A900082818823C1F08081882389F41282FE013B
:100AA000EE0FFF1FEE0FFF1FEC0FFD1FE653FD4F74
:100AB000408151816281738184810E94C104F70168
:100AC000808181508083219685E090E0E80EF91EB8
:100AD0000B5F1F4FC330D10509F0BDCFDF91CF9120
:100AE0001F910F91FF90EF90089520E030E010C02B
:100AF000FC01E20FF31FE855FD4FE491ED930196E1
:100B000085319105A9F72B5E3F4F2C3F310531F020
:100B1000D901A05FBE4F80E090E0EACF089520E0C9
:100B200030E010C0FC01E20FF31FE455FE4FE491EA
:100B3000ED93019685319105A9F72B5E3F4F2C3F30
:100B4000310531F0D901A05FBE4F80E090E0EACFDF
:100B5000089520E030E010C0FC01E20FF31FE055E3
:100B6000FF4FE491ED93019685319105A9F72B5E36
:100B70003F4F2C3F310531F0D901A05FBE4F80E0DF
:100B800090E0EACF08958091D902813041F0813020
:100B900018F0823049F406C00E94750505C00E9415
:100BA0008F0502C00E94A9058091D9028F5F63E082
:100BB0000E94FC239093D902089584E08093AF02B1
:100BC0008093B00291E09093B1029093B20290931F
:100BD000B3028CE48093B50288E28093B60283E18D
:100BE0008093B7028AE08093B8029093B9020E9482
:100BF000C3051092BF021092CE021092C40210924E
:100C0000D3021092C9021092D8020895109277026E
:100C10001092760282E192E09093750280937402C2
:100C200008951F9311E037C08AE295E00E94531B9C
:100C30008B3089F08C301CF48A3069F505C0853121
:100C400089F08E3141F51DC08AE295E00E94531B68
:100C50008093AF0220C08AE295E00E94531B8093EC
:100C6000B00219C08AE295E00E94531BC19799F423
:100C70008091AF026091B0024BEB52E00E940E04F3
:100C80000AC08AE295E00E94531B1092B302C197FA
:100C900011F41093B3028AE295E00E944A1B892B5B
:100CA00019F681E08093AE021092AD021F91089573
:100CB000CF93DF93EC016115710519F420E030E06A
:100CC0000FC0DB010D900020E9F71197A61BB70BB1
:100CD000E881F9810280F381E02DAD0109959C0145
:100CE000C901DF91CF9108958AE08093DA02809163
:100CF000B5028093DB028BE08093DC028091B60228
:100D00008093DD0285E18093DE028091BA02882320
:100D100011F480E301C081E38093DF028EE18093D0
:100D2000E0028091B902882311F480E301C081E3DD
:100D30008093E10280910F01882389F081E0809304
:100D4000DA028093DB028093DC028093DD028093E1
:100D5000DE028093DF028093E0028093E1028091C3
:100D6000AC02882389F082E08093DA028093DB0270
:100D70008093DC028093DD028093DE028093DF02A9
:100D80008093E0028093E1028AE295E06AED72E0EE
:100D90000E94580608951F9310920F0110E016C08C
:100DA00061E070E080E090E00E94691F1F5F1431F5
:100DB00069F486E292E068E670E042E00E948D12FB
:100DC00081E08093AD0280930F0104C08091AE0258
:100DD000882331F31092AE021F9108950F931F9351
:100DE0000AE215E0C80162E070E00E94741CC801CC
:100DF00061E176E00E94AB1BC80164E776E00E94E7
:100E0000B01B1F910F9108950F931F938AE295E0F5
:100E100062E070E048E050E00E94511C882309F431
:100E200064C01092AD0210920F0101E056C08AE238
:100E300095E00E94531B182F8A3079F08B3034F4E0
:100E4000813099F1823009F03FC039C0853199F085
:100E50008E3101F18B30C1F507C08AE295E00E9426
:100E6000531B8093B50239C08AE295E00E94531B60
:100E70008093B60232C08AE295E00E94531BC1976C
:100E800061F58091B5026091B6024AEC52E00E9491
:100E90000E0423C08AE295E00E94531B1092B9020F
:100EA000C197D9F40093B90218C086E292E063EAD0
:100EB00070E042E00E948D1210930F010EC086E296
:100EC00092E066E970E004C086E292E065E870E0D6
:100ED00042E00E948D1200930F018AE295E00E9489
:100EE0004A1B892B09F0A3CF0CC086E292E062E78F
:100EF00070E042E00E948D1281E080930F018093A8
:100F0000AD021F910F9108958AE295E00E94551C51
:100F100008952F923F924F925F926F927F928F929D
:100F20009F92AF92BF92CF92DF92EF92FF920F9378
:100F30001F93DF93CF93CDB7DEB72A970FB6F89400
:100F4000DEBF0FBECDBF6624772440E050E060E0F6
:100F500070E0F1E04F2E512CB8C0A985BA851C91E4
:100F6000112309F494C0113049F484E792E06C2D08
:100F7000498124E004E00E94FF0C89C0133008F48A
:100F80007DC0A70196012C5F3F4F4F4F5F4FC701B8
:100F9000B6010E94A222062F6D817E818F819885E5
:100FA0002A813B814C81522D0E94A222043508F0F7
:100FB0005CC067FD5AC060330CF057C0909193023B
:100FC000923021F5862F859585958595992787FD02
:100FD0009095202F332727FD309544E550E0849FDE
:100FE000F001859FF00D949FF00D1124E20FF31F87
:100FF000EE51FD4F808190E0262F277002C095951D
:1010000087952A95E2F791E098279170462F4595AC
:1010100045954595202F332727FD309567709923F7
:1010200099F454E54502F0011124E20FF31FEE514B
:10103000FD4FC20102C0880F991F6A95E2F78095A3
:1010400020812823208311C084E54802F001112467
:10105000E20FF31FEE51FD4F920102C0220F331F2A
:101060006A95E2F78081822B8083812F81508230C4
:1010700009F480E0A985BA858C9309C06C2D6F5F57
:1010800084E792E0432D22E002E00E94350DE985DD
:10109000FA853196FA87E98784E090E0A0E0B0E035
:1010A000C80ED91EEA1EFB1E94E5C916D104E10440
:1010B000F10409F052CFA5E1B0E06A0E7B1EBCEF4F
:1010C0006B167104F9F0B501A40149834D835E8369
:1010D0006F837887E4E08E2E912CA12CB12C840EA6
:1010E000951EA61EB71E8A829B82AC822B2C342EA4
:1010F0003394F301E05FFE4FFA87E987CC24DD24C7
:1011000076012BCF2A960FB6F894DEBF0FBECDBF67
:10111000CF91DF911F910F91FF90EF90DF90CF90D3
:10112000BF90AF909F908F907F906F905F904F9007
:101130003F902F900895DF93CF9300D000D000D040
:10114000CDB7DEB7242F4983452F5A836B837C8329
:101150008D839E832E5F4E5F84E792E0622F22E0B4
:101160000E945E0D26960FB6F894DEBF0FBECDBF6F
:10117000CF91DF9108954091AF025091B0026091FC
:10118000B1027091B2028091B3029091B4020E94B8
:101190009B084091B5025091B6026091B7027091E0
:1011A000B8028091B9029091BA020E949B080895FA
:1011B000CF93DF93CBEBD2E08C81882379F08A81C7
:1011C00064E10E94FC23963048F068816E5F49819B
:1011D0004E5F84E792E021E00E94080F259682E0AE
:1011E000CA3CD80749F7CAECD2E08C81882379F051
:1011F0008A8164E10E94FC23963048F068816E5F2A
:1012000049814E5F84E792E021E00E94080F259615
:1012100082E0C93DD80749F7DF91CF910895CF9378
:10122000DF93EC0180910F01882309F0A5C01D8296
:101230002881332727FD30958A81992787FD90954E
:10124000880F991F880F991F2817390709F075C053
:101250002981332727FD30958B81992787FD90952C
:10126000880F991F880F991F2817390709F065C043
:1012700079C04A814F5F0AC080E392E060E041E0BC
:101280000E94BD0B8823B9F04A8141508B8190E0C8
:1012900025E130E0829FF001839FF00D929FF00DD9
:1012A0001124E40FF11DE05FFE4F808181508230F8
:1012B00060F14A832AC080E392E061E041E00E944D
:1012C000BD0B882319F05B8151500AC080E392E086
:1012D00063E041E00E94BD0B8823B9F05B815F5F52
:1012E000252F30E04A8185E190E0289FF001299F79
:1012F000F00D389FF00D1124E40FF11DE05FFE4F5B
:1013000080818150823008F05B8380E392E064E06A
:101310000E94B30B882389F08091AC02882329F0C6
:10132000888169814BEB52E004C0888169814AEC75
:1013300052E00E940E0481E08D838B8190E04A810F
:1013400025E130E0829FF001839FF00D929FF00D28
:101350001124E40FF11DE05FFE4F8081833060F0C7
:101360001C820AC080E392E062E041E00E94BD0B73
:10137000882309F07ECF80CFDF91CF9108958091AF
:10138000B302882321F08091B902882349F586E2CF
:1013900092E00E945A148823D1F38091B3028823EB
:1013A00029F484E792E062EB73E004C084E792E002
:1013B00064EA73E00E94542180E392E064E00E94BA
:1013C000B30B882369F480E392E065E00E94B30BDD
:1013D000882331F480E392E066E00E94B30BD5CF1E
:1013E000089586E292E069EC73E00E94D8170E94AB
:1013F000DD05089586E292E00E94DD170E94F10962
:1014000010923E020E9484070E94EE0608958AE22E
:1014100095E062E070E00E94401B8AE295E06AE09D
:101420000E94FD1B6091AF02772767FD70958AE2ED
:1014300095E00E94FD1B8AE295E06BE00E94FD1B97
:101440006091B002772767FD70958AE295E00E946F
:10145000FD1B8AE295E065E10E94FD1B8091B402CC
:10146000882319F460E370E002C061E370E08AE26F
:1014700095E00E94FD1B8AE295E06EE10E94FD1B53
:101480008091B302882319F460E071E002C062E049
:1014900071E08AE295E00E9458068AE295E00E9497
:1014A000401C08950E9404070E94070A08951F9394
:1014B00011E010930F0186E292E060EC73E042E0ED
:1014C0000E941315882319F0813059F405C0109239
:1014D000AD021093AC020BC01092AD021092AC02A0
:1014E00006C086E292E064EC73E00E94D817109286
:1014F0000F0186E292E00E945A14882341F180E3B2
:1015000092E066E00E94B30B882371F58091AC02F3
:10151000882339F08FEA92E00E940F090E94520A54
:1015200006C00E94CB0685EB92E00E940F098FEA6D
:1015300092E00E94D70385EB92E00E94D7030E94BD
:101540001D050E9489070E94BB080E94D80880914F
:10155000B302882321F08091B902882351F60E94BA
:10156000BF090E94DD05C5CF1F910895882319F496
:101570008CB5806202C08CB58F7D8CBD08959CB502
:10158000937F982B9CBD08952CB5382F33702C7FFA
:10159000322B3CBD2DB590E0959587959595879517
:1015A00081702E7F822B8DBD08958AE061E00E94BC
:1015B000B8208AE061E00E944C208CB580618CBD2F
:1015C0008CB580648CBD8DE061E00E944C208BE086
:1015D00061E00E944C200895FC0181E08083089521
:1015E00085E070E00E94EC1F08956F927F928F92C9
:1015F0009F92AF92BF92CF92DF92EF92FF920F93A2
:101600001F93CF93DF93EC0189819A818C0124E0B1
:10161000000F111F2A95E1F7081B190B85E10E94A5
:10162000CA1FBC01600F711F84E0769567958A958B
:10163000E1F77A8369838881882381F12E813F8154
:101640006217730710F4B90106C08885998586175B
:10165000970708F4BC0100D000D080E090E040E0A3
:1016600050E0E884F98400E010E0AD80BB24CC2495
:10167000DD246C80772488249924EDB7FEB761823D
:101680007282838294820E9437226B830F900F9024
:101690000F900F9085E070E00E94EC1FDF91CF91DA
:1016A0001F910F91FF90EF90DF90CF90BF90AF9080
:1016B0009F908F907F906F900895FC018CE39FE046
:1016C0009383828384E0818381E084870895CF932C
:1016D000DF93EC018C8590E08F719070892B69F518
:1016E00084E10E94CA1FAA2797FDA095BA2FBC01CA
:1016F000CD010E94EE2226EE3FE34EEC50E40E9424
:101700007A230E94C0229B01AC017B836A8361150E
:10171000710589F084E08983B901FE0120E08481AC
:1017200095816817790710F429830AC02F5F3296D4
:101730002430A9F702C08FEF89838C858F5F8C8757
:10174000DF91CF910895FC0188E0808389E0818357
:1017500087E0828386E0838384E0848382E08583DC
:1017600081E18683089520E0FC01E60FF11D878169
:10177000813009F421E0822F0895E62FF0E0423015
:1017800040F420E0E80FF91F878181508E3F88F4F4
:101790000FC0E80FF91F87818F3F11F420E009C0C7
:1017A00020E090E0642F70E00E940824019709F483
:1017B00021E0822F08950F931F93CF93DF93EC01C5
:1017C00010E00FEF888162E00E944C2088810E9427
:1017D000EB202F81892B19F42F5F2F8307C0222341
:1017E00049F02F3F11F41F8201C00F83888160E010
:1017F0000E944C201F5F2196173021F7DF91CF9177
:101800001F910F910895FC01742F643508F05DC09D
:1018100047FD5BC040330CF058C0878D823019F50E
:10182000842F859585958595992787FD9095462FD9
:10183000552747FD509524E530E0829FF001839FB6
:10184000F00D929FF00D1124E40FF51FEE51FD4FA6
:10185000808190E0272F277002C0959587952A9563
:10186000E2F780958170972F959595959595462FE0
:10187000552747FD5095272F27708823A1F4E4E5CD
:101880009E02F0011124E40FF51FEE51FD4F81E09F
:1018900090E002C0880F991F2A95E2F78095208179
:1018A000282320830895E4E59E02F0011124E40F2B
:1018B000F51FEE51FD4F81E090E002C0880F991FA7
:1018C0002A95E2F72081282B20830895FC01678F59
:1018D00060A30895FC01678F40A30895AF92BF9263
:1018E000CF92DF92EF92FF920F931F93CF93DF93EC
:1018F000EC01162FF42EE22EAA24402F552747FD87
:1019000050958F2D992787FD9095481B590B57FFB0
:1019100003C0509541955F4F2E2D332727FD3095FD
:10192000812F992787FD9095281B390B37FF03C01E
:10193000309521953F4F2417350744F4AA24A394EA
:101940008F2DF12E182F802F0E2DE82EE11634F456
:101950008E2DE12E182F802F0F2DF82EDE2CD11A70
:10196000202F332727FD30958F2D992787FD9095C0
:10197000281B390B37FF03C0309521953F4FB22EFE
:10198000F0161CF0CC24CA9402C0CC24C3948D2D34
:10199000D7FC8F5F082F059511C0AA2021F0CE013A
:1019A0006F2D412F03C0CE01612F4F2D0E94030CDC
:1019B0000B1907FF02C0FC0C0D0D1F5FE1166CF741
:1019C000DF91CF911F910F91FF90EF90DF90CF901B
:1019D000BF90AF9008950F93042F322F262F2150E0
:1019E000230F0E946E0C0F9108950F93362F042F32
:1019F0000150020F232F0E946E0C0F9108959F92A9
:101A0000AF92BF92CF92DF92EF92FF920F931F930C
:101A1000CF93DF936C01B62E942EA02EC0E0D0E0C1
:101A2000E62EFF24E7FCF094022F112707FD109506
:101A30000E0D1F1D06C0C601492D2A2D0E94F50C52
:101A400021966B2D6C0FCE018E0D9F1D8017910777
:101A500094F3DF91CF911F910F91FF90EF90DF9062
:101A6000CF90BF90AF909F900895CF92DF92EF926A
:101A7000FF920F931F937C01162FD42EC22E0E942B
:101A8000EB0C4D2D4150400FC701612F2C2D0E94B2
:101A9000EB0CC701612F4D2D202F0E94F50C11502A
:101AA0001C0DC701612F4D2D202F0E94F50C1F9199
:101AB0000F91FF90EF90DF90CF9008958F929F92BB
:101AC000AF92BF92CF92DF92EF92FF920F931F934C
:101AD000CF93DF93EC01B62EC42E122FAA24A39429
:101AE000A21A8EEF289F802C1124422F4C0DCE017C
:101AF0000E94030C4C2D411BCE016B2D0E94030C48
:101B0000612F6B0DCE014C2D0E94030C6B2D611BC0
:101B1000CE014C2D0E94030CD12EEE2483E0982E92
:101B200042C0A7FC04C0DA9482E0880EA80CE394BB
:101B3000A90CFE2CFB0C1D2D1C0DCE016F2D412F71
:101B40000E94030C0B2D0E19CE01602F412F0E9415
:101B5000030C1C2D1D19CE016F2D412F0E94030C6B
:101B6000CE01602F412F0E94030CFD2CFB0C1E2D7B
:101B70001C0DCE016F2D412F0E94030C0B2D0D1952
:101B8000CE01602F412F0E94030C1C2D1E19CE0187
:101B90006F2D412F0E94030CCE01602F412F0E9418
:101BA000030C82E0980EED140CF4BBCFDF91CF91C3
:101BB0001F910F91FF90EF90DF90CF90BF90AF906B
:101BC0009F908F9008952F923F925F926F927F9295
:101BD0008F929F92AF92BF92CF92DF92EF92FF923D
:101BE0000F931F93DF93CF9300D000D000D0CDB7D9
:101BF000DEB79E838D83C62ED42EEE24E394E21AA4
:101C00008EEF289F502C1124842E8A94962E9A941D
:101C1000A42EA394B62EB394F22E662423E0722E43
:101C200010E0C801847090709A838983F801E27093
:101C3000F070FC83EB8398E0292E312C2022312296
:101C40000170107054C0E7FC04C0FA94F2E05F0E1B
:101C5000E50C639489819A81892B71F04F2D4D0D8C
:101C60008D819E816B2D0E94030C6F2D6C0D8D81DB
:101C70009E814A2D0E94030CEB81FC81EF2B71F0B9
:101C80004D2D4F198D819E816B2D0E94030C6F2D60
:101C90006C0D8D819E81482D0E94030C211431040E
:101CA00071F06C2D6F198D819E814A2D0E94030C5D
:101CB0004F2D4D0D8D819E81692D0E94030C0115C4
:101CC000110571F06C2D6F198D819E81482D0E9438
:101CD000030C4D2D4F198D819E81692D0E94030C9F
:101CE000E70CF2E07F0E8A949A94A394B3946F1455
:101CF0000CF4A9CF26960FB6F894DEBF0FBECDBF69
:101D0000CF91DF911F910F91FF90EF90DF90CF90D7
:101D1000BF90AF909F908F907F906F905F903F901B
:101D20002F9008954F925F926F927F928F929F9221
:101D3000AF92BF92CF92DF92EF92FF920F931F93D9
:101D4000CF93DF93EC01A62E742E9E2DFF24F394E7
:101D5000F21A8EEF289F802C1124B42EBA9453E0EF
:101D6000C52ECE0CE22EDD2443E0942E10E031E0AF
:101D7000432E512C40225122692E63940270107020
:101D800034C0F7FC04C0EA9482E0880EF80CD394C7
:101D90004114510489F06D2D6A0D472D4E192E2DD9
:101DA000220F260DCE010E94F50C6E2D6A0DCE017C
:101DB0004B2D2C2D0E94F50C0115110589F06A2D73
:101DC0006D19472D4E192E2D220F260DCE010E9482
:101DD000F50C6A2D6E19CE014B2D2C2D0E94F50CA1
:101DE000F90C82E0980EBA94C80EDE1454F2DF911A
:101DF000CF911F910F91FF90EF90DF90CF90BF9008
:101E0000AF909F908F907F906F905F904F900895CC
:101E1000DF92EF92FF920F931F937C01062FD42E37
:101E2000122F421B220F2F5F0E94F50CC701602F5B
:101E30004D2D212F03E0EE240E94920E1F910F9151
:101E4000FF90EF90DF9008957F928F929F92AF92D4
:101E5000BF92CF92DF92EF92FF920F931F936C018C
:101E6000962EA42EF22E7E2C760E1EEFE19E102DC5
:101E70001124812E820E672D282D0E94EB0CB02E8E
:101E8000BA0CBA94C601672D4B2D282D0E94EB0C7D
:101E9000AE0C100FC601692D4A2D212F0E94F50CA2
:101EA000F90CFA94C6016F2D4A2D212F0E94F50CD2
:101EB000C601672D4A2D2E2D01E00E94E30DFE186C
:101EC000C6016F2D4A2D2E2D02E00E94E30DBE1893
:101ED000C6016F2D4B2D2E2D04E00E94E30DC6018F
:101EE000672D4B2D2E2D08E00E94E30D1F910F91C1
:101EF000FF90EF90DF90CF90BF90AF909F908F902A
:101F00007F9008958F929F92AF92BF92CF92DF926F
:101F1000EF92FF920F931F936C01162FA42E922E17
:101F2000F02EBE2C8E2C860E2EEFE29EE02C11247D
:101F30002E2D290D682D0E94FF0CAB0CFA94FE0C7F
:101F40001150190D1B19C601612F4A2D2B2D01E0CF
:101F5000EF2C0E94920EC601682D4A2D2B2D02E017
:101F60000E94920E1F910F91FF90EF90DF90CF9003
:101F7000BF90AF909F908F9008953F924F925F9245
:101F80006F927F928F929F92AF92BF92CF92DF9289
:101F9000EF92FF920F931F93CF93DF934C01362E56
:101FA000442EF901A490319654906F010894C11CFD
:101FB000D11C8A2D992787FD9095079668E070E0DF
:101FC0000E941C24E62EFF24E7FCF09400E0C0E011
:101FD000D0E060E8662E712C26C0E12FE595E595EE
:101FE000E595FF27E7FDF095EC0FFD1FEC0DFD1DBE
:101FF000E4912E2F30E0812F8770A30102C0559508
:1020000047958A95E2F724233523232B31F0612F5E
:10201000630DC4014B2D0E94030C1F5F1A15ECF2D7
:102020000F5FCE0DDF1D051524F410E0B02EB40CAB
:10203000F5CFDF91CF911F910F91FF90EF90DF903F
:10204000CF90BF90AF909F908F907F906F905F9058
:102050004F903F900895DC01FB0184918F5F1496AF
:102060008C931497319684918F5F15968C93159766
:1020700031965E96FC93EE935D9708953F924F9252
:102080005F926F927F928F929F92AF92BF92CF9208
:10209000DF92EF92FF920F931F93CF93DF93EC01A8
:1020A000862EA42E422F102F3F8C23E526170CF4EA
:1020B000ABC03FE23A150CF4A7C0C02EDD248C81E2
:1020C00090E001979C01C29EC001C39E900DD29EDC
:1020D000900D1124262F332727FD3095820F931F53
:1020E000181619060CF090C08D8190E09C01C29EDC
:1020F000C001C39E900DD29E900D11242A2D33272E
:1021000027FD3095820F931F181619060CF07CC01E
:102110009924442E55246DC09C0121503040421713
:10212000530711F460E00EC0429EC001439E900D23
:10213000529E900D1124840F951FED8DFE8DE80F9A
:10214000F91F64914C9DC0014D9D900D5C9D900DBB
:102150001124682C680EBB24792C780C3FC0E62E25
:10216000FF2460FF19C0113039F44B2D4A0DCE0108
:10217000672D0E94030C2EC02C9DC0012D9D900D3B
:102180003C9D900D11244A2D480FCE01662D212F24
:10219000012F0E94FF0C1EC098A18F8D9817D1F0BF
:1021A0009F8F113039F44B2D4A0DCE01672D0E94BF
:1021B000030C0FC02C9DC0012D9D900D3C9D900DDA
:1021C00011244A2D480FCE01662D212F012F0E9488
:1021D000FF0C3F8EF594E7946E2DB3942B2D33278F
:1021E00027FD30958D8190E0281739070CF4B7CF83
:1021F0009394492D552747FD50958C8190E04817C1
:1022000059070CF489CF3F8EDF91CF911F910F9129
:10221000FF90EF90DF90CF90BF90AF909F908F9006
:102220007F906F905F904F903F9008950F93CF9362
:10223000DF93EC01262F6A3049F48D819885899FC0
:10224000802D11249A85980F9A8726C06D3029F128
:1022500069854A8508850E943E109C816885969F05
:10226000402D11248985480F49878F818823A9F043
:10227000552747FD5095699F9001112484E590E012
:10228000821B930B8417950744F49D81699F902DC1
:1022900011248A85890F8A87198681E090E0DF9171
:1022A000CF910F9108951F93CF93DF93EC01162FD9
:1022B000F8948E8560E00E94B8208F8518161CF473
:1022C00060E00E94B8201EBD0DB407FEFDCF8EB5A4
:1022D0008F8518161CF461E00E94B8207894DF9175
:1022E000CF911F910895FF920F931F93CF93DF9388
:1022F000EC01FF2400E010E06F2D6064CE010E942D
:102300005311CE0160E80E9453118E8561E00E9456
:10231000B8208F8518161CF460E00E94B820F801E0
:10232000EE51FD4F90E080818EBD0DB407FEFDCFD4
:102330008EB59F5F31969435B1F78F8518161CF4D2
:1023400061E00E94B820F3940C5A1F4F86E0F81603
:1023500099F6CE0160E40E945311DF91CF911F9155
:102360000F91FF900895CF93DF93DC0188EF91E008
:10237000E2EEF2E0EF019C01199221503040E1F7CA
:1023800019961C9219971A961C92DF91CF91089575
:10239000EF920F93CF93DF93EC014D876C872E87DD
:1023A000E88A0F8781E088878F8F18A28F83CE01FC
:1023B0006BEE73E00E942B100E94D50A81E00E9410
:1023C000B60A85E00E94C40A8CE00E94BF0A8D858F
:1023D00061E00E944C208C8561E00E944C208E853B
:1023E00061E00E944C20888918161CF461E00E946C
:1023F0004C208F8518161CF461E00E944C208889BF
:1024000018166CF460E00E94B8206AE070E080E08A
:1024100090E00E94691F888961E00E94B820EC85E5
:102420002E2F332727FD3095F901E65EF84FE49112
:10243000F0E0EE0FFF1FEA5FF84F859194919C8BBF
:102440008B8B225D384FF90184918A8FED852E2F79
:10245000332727FD3095F901E65EF84FE491F0E06F
:10246000EE0FFF1FEA5FF84F859194919A8B898B4D
:10247000225D384FF9018491898FEF852E2F332704
:1024800027FD3095F901E65EF84FE491F0E0EE0F9C
:10249000FF1FEA5FF84F859194919E8B8D8B225D93
:1024A000384FF90184918B8FEE852E2F332727FD2E
:1024B0003095F901E65EF84FE491F0E0EE0FFF1F72
:1024C000EA5FF84F85919491988F8F8B225D384FFA
:1024D000F90184918C8FCE0161E20E945311CE01EB
:1024E00064E10E9453118B8587FF02C08FE78B87C1
:1024F0006B856068CE010E945311CE0160E20E949C
:102500005311CE016CE00E945311CE010E94731151
:10251000DF91CF910F91EF900895FC01ED57FF4FA0
:1025200061937193445F40830895CF93DF93DC01FF
:10253000E0E8F7E785919491ED01C75ADF4FAD01CF
:1025400041595F4F8150904C09F04EC0E6E9F7E7E2
:10255000E491E883E7E9F7E7E4911496EC931497A4
:10256000E8E9F7E7E4911596EC931597E9E9F7E7C1
:102570008591949117969C938E931697EBE9F7E7C4
:102580008591949119969C938E931897EDE9F7E7AE
:10259000E4919B96EC939B97EEE9F7E7E4919A968A
:1025A000EC939A97EFE9F7E7E491EA01E883E0EA30
:1025B000F7E7859194915D969C938E935C97E2EA00
:1025C000F7E7859194915F969C938E935E97E4EAEA
:1025D000F7E78591949191969C938E939097E6EA74
:1025E000F7E78591949132C08CE3888314961C920E
:1025F00014972FEF15962C93159780E293E017967A
:102600009C938E93169784ED93E019969C938E93EA
:10261000189781E09B968C939B979A968C939A97A8
:10262000FA0120838CEA9DE05D969C938E935C97E3
:102630008EED9DE05F969C938E935E9784E79EE07F
:1026400091969C938E9390978CE39FE093969C93A6
:102650008E939297DF91CF910895EF92FF920F930F
:102660001F93CF93DF937C018C01025B1F4FC80146
:102670000E94B311C80162E975E00E945421C801AB
:102680000E94731183E00E94C40A84E091E0EEEF9F
:10269000FFE3099584E590E0E80EF91EF70110824A
:1026A000C8016DE675E00E949F21C8010E94731168
:1026B000E701CA54D040CE010E94DB0BCE0164E09A
:1026C0000E94B30B882339F462E370E080E090E06D
:1026D0000E94691FF0CFDF91CF911F910F91FF9062
:1026E000EF9008950F931F93CF93DF93EC018C012C
:1026F000025B1F4FC80161E040E00E946A0CFE01CE
:10270000E95AFF4FCE5ADF4F85E59881891B8083B8
:1027100026961882C855D040698D613009F43EC0B4
:10272000613028F0888D653008F051C04BC0CE0173
:1027300085960E94E218CE0160E00E94F00AC8016E
:102740000E94B311CA5ADF4F81E08883C655D0403A
:10275000C8016EEC75E00E9454216A8D7B8DC80122
:102760004AE050E00E942622C8016AEB75E00E9410
:102770005421C8010E94731183B7817F846083BF95
:1027800083B7816083BF83B7816083BF889583B738
:102790008E7F83BF83B78E7F83BF1FC0C059DF4F3B
:1027A00088819981AA81BB818F709070A070B07070
:1027B0000897A105B10518F4C80167E00CC0C8016D
:1027C00068E709C0882349F06B5FC80104C088230B
:1027D00021F0C8016FE20E947721DF91CF911F9114
:1027E0000F910895AF92BF92CF92DF92EF92FF9236
:1027F0000F931F93CF93DF93EC01CB57DF4F88816B
:10280000C558D040882309F44AC08C3010F010E03D
:1028100002C01CE0181BCA5ADF4F81E08883C655EE
:10282000D0406EE4C62ED12CCC0EDD1EC60160E079
:102830000E94660C53E5A52EB12CAC0EBD1EF50111
:1028400000814DE2F42E4F2D401B410F0D5FC6015C
:1028500060E024E533E0E32E0E94820FC60161E0D0
:102860000E94660CF5010081F01AF10E0D5FC601A1
:1028700060E04F2D24E50E94240FC95ADF4F84E009
:102880008993F5018081181B115D1883AB966991BE
:102890007991C6010E945421888181508883DF91FB
:1028A000CF911F910F91FF90EF90DF90CF90BF904D
:1028B000AF900895AF92BF92CF92DF92EF92FF92C6
:1028C0000F931F93CF93DF93EC01EFE7AE2EB12C64
:1028D000A80EB91EF501E080F180028113810E94EB
:1028E000351FE61AF70A080B190B7EE7C72ED12C05
:1028F000CC0EDD1EF601808190E0A0E0B0E08E15E8
:102900009F05A007B10708F081C08E0106581F4F30
:10291000F80180819181A281B3810097A105B10561
:1029200009F474C00E94351FF6012081620F711DE9
:10293000811D911DF5016083718382839383FE0164
:10294000E059FF4F80819181A281B3810196A11D41
:10295000B11D80839183A283B383F8011082118219
:10296000128213820E94431FCA58DF4F6883798303
:102970008A839B83C657D040CE010E94F50ACE01C0
:102980000A960E94DB0BCE0148960E94670B81E0FD
:1029900032C08E010B5D1F4FC8010E943019C80163
:1029A0000E94A719C8010E948A1ACE010E94F21340
:1029B000CE010E9472138E01025B1F4FC8010E945C
:1029C0007311CC5ADF4F8881C455D040882319F445
:1029D000C8010E94B3110E94431FC658DF4F68838D
:1029E00079838A839B83249728813981621B730BA7
:1029F0007A936A9380E0DF91CF911F910F91FF90BE
:102A0000EF90DF90CF90BF90AF900895C658DF4F02
:102A100088819981AA81BB81CA57D0400097A105BE
:102A2000B10541F7B6CF2F923F924F925F926F92CE
:102A30007F928F929F92AF92BF92CF92DF92EF924E
:102A4000FF920F931F93DF93CF93CDB7DEB76297BB
:102A50000FB6F894DEBF0FBECDBF6C016C837D83D3
:102A60004B8324E530E0C20ED31EF60110822CEA1F
:102A70003FEFC20ED31E1AE0A12EB12CAC0CBD1C30
:102A8000B5E22B2E312C2C0C3D1CAEE44A2E512CE1
:102A90004C0C5D1C1A823FEF398310E0F0E37F2E6F
:102AA0006624A601495A5F4F5F834E83C601885A48
:102AB0009F4F99878887F601EA5AFF4FFB87EA877D
:102AC00096012B5A3F4F3D872C87E3E58E2E912CA4
:102AD0008C0C9D1C5B81452F50E05F874E878B815E
:102AE0008150888BC6010E945A148823D9F3C501EE
:102AF00064E00E94B30B882369F4C50165E00E947D
:102B0000B30B882339F4C50166E00E94B30B882318
:102B100009F4D3C0F4010081C50164E00E94B30B45
:102B2000882329F0C1010E94E71A1983CBC0C10193
:102B30000E94ED1AC7C0C50163E044E00E94BD0BCE
:102B4000882321F01F5FC1010E94F31AC50161E0D3
:102B500044E00E94BD0B882321F01150C1010E9466
:102B6000F31A812F992787FD90952E853F8582172F
:102B7000930711F410E002C017FD1889F401808159
:102B8000819F902D11248C5F682E691A28C0872D93
:102B9000992787FD9095262D332727FD3095821B99
:102BA000930B0297D4F4898162960FB6F894DEBF36
:102BB0000FBECDBFCF91DF911F910F91FF90EF908E
:102BC000DF90CF90BF90AF909F908F907F906F904D
:102BD0005F904F903F902F900895F1E0FA83862DFB
:102BE000992787FD9095272D332727FD3095820F54
:102BF000931F62E070E00E941C24762EEE81FF811C
:102C00001082E885F985608321E0EA85FB852083D1
:102C1000EC85FD8510822C813D81C9019A8B898BC1
:102C200000E0E12EFF24E7FCF09420C0802F90E02C
:102C30008E159F0569F423E0EE81FF812083F40166
:102C400080818E9D802D1124870DE885F9858083F4
:102C5000E989FA8965917491C2010E949F210F5FF1
:102C600029893A892E5F3F4F3A8B298B3B81031785
:102C7000E8F2C20160E00E94660CF40140814E9DC2
:102C8000402D11244150470DC20160E024E50E940F
:102C9000EB0CC20161E00E94660CF40100810E9D04
:102CA000402D11244250470D0D5FC20160E024E524
:102CB00073E0E72E0E94240F15CFFA81FF2309F05D
:102CC00066CF39CF802F90E0909581959F4F2E85CC
:102CD0003F85AC01249FC001259F900D349F900D2E
:102CE00011246EEF662E680E52CF2F923F924F92B4
:102CF0005F926F927F928F929F92AF92BF92CF928C
:102D0000DF92EF92FF920F931F93DF93CF93CDB794
:102D1000DEB72B970FB6F894DEBF0FBECDBF9B87F3
:102D20008A877A8369835C834B838C0101591F4FA7
:102D3000F8018081882309F422C18A859B858A5AFB
:102D40009F4F9B878A8781E0EA85FB85808312926B
:102D50001292E455F040FB87EA87108E9EE4E92E3C
:102D6000F12CEE0EFF1EC70161E00E94660C8AE0A6
:102D7000282E312C8A859B85280E391EB5E26B2EB4
:102D8000712C680E791EE981FA81F491FD83A7E523
:102D90008A2E912C880E991EF8E5CF2ED12CC80EC4
:102DA000D91EE2E54E2E512C480E591E8D5A9F4FCA
:102DB0009F838E8370E7A72EB12C8A859B85A80EF2
:102DC000B91E198708878A859B850E945A14882313
:102DD000D1F39D81992311F410E003C0EE81FF81AE
:102DE0001081C70160E040E02BE036E00E94BD0F9B
:102DF0008B819C81892B41F0145FC70160E0412FDA
:102E00002B813C810E94BD0FF40110828CE0F60101
:102E10008083C70169817A810E945421F201208157
:102E200030E0C901880F991F820F931F90958195FB
:102E30009F4F8D5AF4018083EE81FF81208130E025
:102E4000C901880F991F820F931F909581959F4FFD
:102E5000835DF6018083F501808184FF04C0C70192
:102E60006BE876E003C0C70167E876E00E949F2127
:102E7000F201208130E0C901880F991F820F931F52
:102E8000909581959F4F8D5AF4018083F601808142
:102E90008F5F8083EA85FB8582A5882321F0C701A7
:102EA00063E876E003C0C7016FE776E00E949F21E8
:102EB000F201808190E09C01220F331F280F391FFF
:102EC000309521953F4F2D5AF4012083F6018081E2
:102ED0008F5F8083C7016BE776E00E949F21C1016D
:102EE00065E00E94B30B882351F0EA85FB8562A55B
:102EF0006F5FC3010E94F91AC3010E94F31AC10156
:102F000064E00E94B30B882399F4E885F985608119
:102F1000262F30E040E050E0F50180819181A281D0
:102F2000B38182179307A407B50708F16F3FF9F043
:102F30008A859B8581599F4F9B878A878FEFEA857A
:102F4000FB858083EF56F040FB87EA87C30160E092
:102F50000E94D718C3010E94E71A81E0EA85FB8529
:102F6000808F0DC08A859B850E942D132CCFC101B7
:102F700066E00E94B30B882309F425CFF3CF2B968C
:102F80000FB6F894DEBF0FBECDBFCF91DF911F917A
:102F90000F91FF90EF90DF90CF90BF90AF909F90F8
:102FA0008F907F906F905F904F903F902F900895FB
:102FB00040E050E00E9475160895AF92BF92CF9204
:102FC000DF92EF920F93CF93DF936C018EE790E047
:102FD000C80ED91E82E3F601808381E090E0A0E074
:102FE000B0E0B293A293929382936F0185EF9FEF2B
:102FF000C80ED91E8FEFF601808381E99FEFC80EBE
:10300000D91EC6010E949512C6010E94EC0AC60193
:103010006FEF0E94F00A4AE0A42EB12CAC0CBD1C4C
:10302000C5010E94A30BC5010E94DB0BC601489697
:103030000E945D0BC601825B9F4F6DE04BE020E17B
:103040000FE03EE0E32E0E94C811E601A596CE01F6
:103050000E94061BC50165E00E94B30B882329F07E
:10306000CE0160E00E94F91A06C0CE0161E976E067
:1030700040E00E94E618DF91CF910F91EF90DF9032
:10308000CF90BF90AF9008950F93DC01002309F01B
:1030900069C0623009F443C0633030F4662359F0EC
:1030A000613009F05FC00DC0633009F444C0643082
:1030B00009F058C04CC04B3008F04AE056964C938B
:1030C00051C0842F90E0880F991F1F962D913C913D
:1030D0005097280F391FF9018591949190969C93F0
:1030E0008E935F97FC014591549114968C9114979F
:1030F000849F602D112491966C939197252F3327EF
:10310000862F90E02817390708F4652F14968C91C4
:103110001497689F802D112492968C9323C0149647
:103120008C911497489F802D112459968C93599710
:103130005A962C9317C014968C911497489F802D03
:1031400011245B968C935B975C962C930BC0149622
:103150008C911497489F802D11245D968C935D97D8
:103160005E962C930F910895FC01222371F4648BD9
:103170008481489F802D1124858B15A214A213A24F
:1031800081E0878B8093DB04108E0895FC01662319
:1031900069F4178A158A14A213A2108E1092DE0405
:1031A0001092DD041092DB041092B4000895CF93C6
:1031B000DF93EC01662319F40E94C6181982DF918F
:1031C000CF91089560E00E94D71808950F931F9340
:1031D000CF93DF93EC018B01442371F460E00E94F4
:1031E000D7181E870D871B8A1A8A81E0898389E098
:1031F0008E8B198E1B8E1D8EDF91CF911F910F919B
:103200000895CF93DF93EC01662339F588818823F5
:1032100021F18981882309F5898590E0880F991F1C
:10322000EF81F885E80FF91F859194912FEF8F3F7B
:10323000920711F4188211C09C8790E0880F991FA3
:10324000EA85FB85E80FF91F65917491CE0140E096
:103250000E94E61889858F5F8987DF91CF91089555
:1032600060E00E94011908950F93CF93DF93EC0162
:10327000662309F068C08981882309F464C08D89B8
:10328000882309F060C0EA89FB89EE0FFF1F4D8596
:103290005E85E40FF51F259134912115310509F064
:1032A00040C08989813031F41B8A1A8AFA0125913C
:1032B000349137C019828881882379F0CE0160E08B
:1032C0000E9401198A899B89880F991FED85FE85C7
:1032D000E80FF91F2591349124C0CE0160E00E94CF
:1032E000C61831C0E6E036952795EA95E1F76F708C
:1032F000422F4F7175E0369527957A95E1F7205169
:10330000CE0100E00E9444188A899B8901969B8B1C
:103310008A8B880F991FED85FE85E80FF91F25918F
:103320003491B901769567957695679520FDDACF4A
:103330006F73432FCE0120E00E94B4188A899B89C5
:1033400001969B8B8A8BDF91CF910F91089560E05E
:103350000E9434190895CF93DF93EC01662309F09E
:10336000D6C08F89882309F4D2C08D89882321F49F
:10337000CE010E94C618CBC081508D8B8DA18823B1
:1033800009F03BC08BA19CA10196880F991FEF8D7E
:10339000F8A1E80FF91F85919491282F27702EA38B
:1033A000AC0163E0569547956A95E1F79A01369529
:1033B0002795892F9927869586958FA32F738C81C2
:1033C000289F202D11242DA341704093DF048BA151
:1033D0009CA101969CA38BA329A130E0821793079F
:1033E00060F08AA1882329F0281B31093CA32BA374
:1033F00004C0CE0160E00E94C6188DA181508DA34B
:10340000988D9F5F988F2FA18C89280F8C85280F0E
:103410002A836B8D662369F0892F992787FD909504
:1034200070E00E941C248C8D869F802D1124820FB9
:103430008A838A8190E0CB966BE370E00E941C2423
:103440008A832E892B83698D662379F0888D77276F
:1034500067FD7095992787FD90950E941C248A8DA1
:10346000869F802D1124820F8B836D8D662399F0AA
:10347000888D992787FD909570E00E941C24CB01D0
:1034800062E070E00E941C249E8D899F802D112493
:103490009B81890F8B838B818A300CF089E087FDBB
:1034A00080E08B838C898F3309F41B82F894EA8146
:1034B000F0E0EB54F94FE491E093DC042D8130E02F
:1034C0008B81992787FD9095A901489F9001499F7D
:1034D000300D589F300D112488A590E0A901489F18
:1034E0009001499F300D589F300D11248EA19927CE
:1034F00087FD9095AC01249FC001259F900D349FBE
:10350000900D11248093DD048093DE047894DF9184
:10351000CF91089560E00E94AB1908956091DD0499
:10352000662381F18091DA048F5F8093DA049091B1
:10353000DC04891738F130E08091DB04882309F43A
:1035400031E03093DB041092DA048091DF048823A9
:10355000A9F080910C0223E4829FC0011124895BB1
:1035600080930C0290E070E00E9408248093DE04B7
:1035700005C08091DE048093B40008953323C9F719
:1035800080E0F9CF08951F920F920FB60F92112489
:103590002F933F934F935F936F937F938F939F935B
:1035A000AF93BF93EF93FF930E948E1AFF91EF9119
:1035B000BF91AF919F918F917F916F915F914F914B
:1035C0003F912F910F900FBE0F901F9018956DEAAD
:1035D00076E040E00E94E618089565EA76E040E073
:1035E0000E94E61808956FE976E040E00E94E61830
:1035F0000895FC01862F668170E06F5F7F4F9927E9
:1036000087FD90950E941C24858308950F93FC01EB
:1036100081E0848384E080A780EF96E0908B8787A9
:10362000CF0161E040E020E000E00E94441883E028
:1036300061E070E00E94EC1FE1EBF0E08081887FA8
:1036400081608083F89410928000E1E8F0E01082BD
:10365000109285001092840088E191E09093890097
:1036600080938800808188608083808181608083EE
:10367000EFE6F0E080818260808378940F91089576
:1036800081E0809325056093020510922305109236
:10369000240508952091010530E080910005281B44
:1036A0003109C9010895409100058091010548172D
:1036B00018F02FEF3FEF0AC0E42FF0E0E052FB4F8D
:1036C0008081282F30E04F5F40930005C9010895A5
:1036D000E091000580910105E81718F0EFEFFFEF8A
:1036E00006C0F0E0E052FB4F8081E82FF0E0CF0110
:1036F00008950895AC0120912805309129052115E0
:103700003105E1F090910005809101059817B0F026
:1037100090E008C0FA01EA0FFB1F8081A052BB4F66
:103720008C939F5FA92FB0E0A617B7079CF3109268
:10373000000560930105CB01F90109950895E09119
:103740002605F0912705309729F010922305109255
:103750002405099508957093290560932805089517
:103760007093270560932605089510922D051092F9
:103770002C0588EE93E0A0E0B0E080932E059093B6
:103780002F05A0933005B09331058AE192E0909324
:103790002B0580932A050895CF92DF92EF92FF9236
:1037A0000F931F93CF93DF937C016B018A0180916C
:1037B00025058823A1F0C0E0D0E00DC0D701ED9130
:1037C000FC91D601AC0FBD1F0190F081E02DC70127
:1037D0006C9109952196C017D10780F304C0CB01E5
:1037E000642F0E94191DC801DF91CF911F910F9185
:1037F000FF90EF90DF90CF900895DF93CF930F92DB
:10380000CDB7DEB7FC016983809125058823C9F017
:1038100080912405803238F081E090E093838283A8
:1038200020E030E015C080912305E82FF0E0ED5F47
:10383000FA4F998190838F5F8093230580932405AD
:1038400005C0CE01019661E00E94191D21E030E023
:10385000C9010F90CF91DF9108950F93062F8091AA
:10386000020563E075E04091240521E00E94C41C3C
:103870001092230510922405109225050F910895AA
:1038800061E00E942D1C0895413208F040E2862F2D
:1038900060EE74E00E947B1C10920005809301058D
:1038A000089521E00E94441C089510920005109292
:1038B000010510922305109224050E94CF1E089541
:1038C0000F931F938C01862F0E94771C8FE99BE139
:1038D0000E94391D8AE79BE10E94341DC8010E94A5
:1038E000551C1F910F9108950E94601C0895880F28
:1038F0008093BA000895382F413210F040E042C062
:10390000809136058823E1F791E090933605209366
:1039100038058FEF8093A30510925E0541504093C8
:103920005F054F5F9093370580913705330F832BE9
:103930008093370580913905813041F41092390523
:10394000809137058093BB0085EC01C085EE8093A4
:10395000BC00809136058130E1F380915E058417CB
:1039600010F440915E0520E030E00AC0FB01E20F58
:10397000F31FD901A25CBA4F8C9180832F5F3F4F18
:103980002417A0F3842F08950F931F93582F122FFD
:10399000413210F081E04AC0809136058823E1F77A
:1039A00082E080933605009338058FEF8093A3055E
:1039B00010925E0540935F05AEE3B5E0FB0102C0E7
:1039C00081918D938E2F861B8417D0F3109237052B
:1039D00080913705550F852B8093370580913905E8
:1039E000813041F410923905809137058093BB00F6
:1039F00085EC01C085EE8093BC00112321F08091FD
:103A000036058230E1F38091A3058F3F11F480E009
:103A10000DC08091A305803211F482E007C080912F
:103A2000A305803311F084E001C083E01F910F9162
:103A30000895482F613210F081E008958091360595
:103A4000843011F082E0089560938105A0E6B5E02E
:103A5000842F9C01F90102C081918D938E2F841BCC
:103A60008617D0F380E0089590933D0580933C0540
:103A7000089590933B0580933A0508951F920F9205
:103A80000FB60F9211242F933F934F935F936F9331
:103A90007F938F939F93AF93BF93EF93FF93809107
:103AA000B90090E0887F90708036910509F4F2C0EB
:103AB00081369105CCF58832910509F47BC08932B5
:103AC0009105B4F48031910509F46FC081319105FD
:103AD0003CF4009709F447C1089709F04FC165C04D
:103AE0008831910509F466C0809709F047C182C00A
:103AF0008034910509F4A4C08134910544F48033E5
:103B0000910509F482C0C89709F038C189C0803591
:103B1000910509F489C08835910509F496C0883467
:103B2000910509F02BC1AEC08839910509F413C184
:103B300089399105ECF48837910509F4ABC08937D0
:103B400091054CF48836910509F4A4C0803791059D
:103B500009F014C19FC08838910509F4FCC0803970
:103B6000910509F49DC08038910509F007C198C0FE
:103B7000803B910509F4C6C0813B91054CF4803A25
:103B8000910509F49FC0883A910509F0F7C0BAC0C1
:103B9000803C910509F4E3C0883C910509F4DFC03D
:103BA000883B910509F0EAC0C2C080913705809337
:103BB000BB00CFC090915E0580915F05981768F4B7
:103BC00090915E05E92FF0E0E25CFA4F80818093EE
:103BD000BB009F5F90935E05BCC080913805882331
:103BE00009F44BC085ED8093BC008091BC0084FD3E
:103BF000FCCFC2C080E28093A30585ED8093BC001A
:103C00008091BC0084FDFCCFB7C080E38093A30506
:103C100085ED8093BC008091BC0084FDFCCFACC0DE
:103C200088E38093A3059BC080915E059091BB00C3
:103C3000E82FF0E0E25CFA4F90838F5F80935E059F
:103C400090915E0580915F0582C080915E059091A4
:103C5000BB00E82FF0E0E25CFA4F90838F5F809327
:103C60005E0580913805882341F085ED8093BC0086
:103C70008091BC0084FDFCCF7FC081E0809339053A
:103C800084EA6EC085ED8093BC008091BC0084FD09
:103C9000FCCF72C083E0809336051092A20559C014
:103CA0008091A205803208F056C08091A2059091C3
:103CB000BB00E82FF0E0EE57FA4F90838F5F8093C0
:103CC000A20547C08091A205803230F4E091A205A0
:103CD000F0E0EE57FA4F108285ED8093BC008091A2
:103CE000BC0084FDFCCF109236056091A205E091E6
:103CF0003C05F0913D0582E895E070E00995109251
:103D0000A2052DC084E080933605109280051092A4
:103D10008105E0913A05F0913B0509958091810577
:103D2000882329F481E080938105109260059091A9
:103D30008005E92FF0E0E05AFA4F80818093BB00C4
:103D40009F5F9093800590918005809181059817E1
:103D500010F485EC01C085E88093BC000FC085ECB1
:103D60008093BC0009C01092A30585ED8093BC0030
:103D70008091BC0084FDFCCF10923605FF91EF913D
:103D8000BF91AF919F918F917F916F915F914F9173
:103D90003F912F910F900FBE0F901F90189510928A
:103DA000360581E0809338051092390582E161E0A3
:103DB0000E94B82083E161E00E94B820E9EBF0E0C6
:103DC00080818E7F808380818D7F808388E4809353
:103DD000B80085E48093BC0008951F920F920FB63F
:103DE0000F9211242F933F938F939F93AF93BF9381
:103DF0008091A8059091A905A091AA05B091AB0565
:103E00003091AC050196A11DB11D232F2D5F2D37DB
:103E100020F02D570196A11DB11D2093AC05809374
:103E2000A8059093A905A093AA05B093AB0580912E
:103E3000A4059091A505A091A605B091A7050196AE
:103E4000A11DB11D8093A4059093A505A093A6057F
:103E5000B093A705BF91AF919F918F913F912F9103
:103E60000F900FBE0F901F9018958FB7F894209168
:103E7000A8053091A9054091AA055091AB058FBFC7
:103E8000B901CA0108959FB7F8942091A405309113
:103E9000A5054091A6055091A70586B5A89B06C02B
:103EA0008F3F21F02F5F3F4F4F4F5F4F9FBF542FEA
:103EB000432F322F2227280F311D411D511D82E033
:103EC000220F331F441F551F8A95D1F7B901CA012C
:103ED0000895EF92FF920F931F93CF93DF937B018F
:103EE0008C010E94431FEB010EC00E94431F6C1BFC
:103EF0007D0B685E7340C8F30894E108F10801097E
:103F00001109C851DC4FE114F1040105110569F7ED
:103F1000DF91CF911F910F91FF90EF9008957894CA
:103F200084B5826084BD84B5816084BD85B58260BE
:103F300085BD85B5816085BDEEE6F0E0808181605C
:103F40008083E1E8F0E0108280818260808380815C
:103F500081608083E0E8F0E0808181608083E1EB34
:103F6000F0E0808184608083E0EBF0E0808181601C
:103F70008083EAE7F0E080818460808380818260D2
:103F800080838081816080838081806880831092BB
:103F9000C1000895982F8E3008F09E509770809140
:103FA0000D028295880F880F807C892B80937C007E
:103FB00080917A00806480937A0080917A0086FDF7
:103FC000FCCF2091780040917900942F80E030E080
:103FD000282B392BC90108951F93CF93DF93182FF6
:103FE000EB0161E00E944C20209709F44AC0CF3FCA
:103FF000D10509F449C0E12FF0E0EE5BF84F849160
:104000008330C1F0843028F4813051F08230B1F532
:104010000CC0863019F1873049F1843079F514C02D
:1040200084B5806884BDC7BD33C084B5806284BD5B
:10403000C8BD2EC080918000806880938000D0939E
:104040008900C093880024C08091800080628093A2
:104050008000D0938B00C0938A001AC08091B0007A
:1040600080688093B000C093B30012C08091B0000C
:1040700080628093B000C093B4000AC0C038D105FC
:104080001CF4812F60E002C0812F61E00E94B82003
:10409000DF91CF911F910895CF93DF93482F50E088
:1040A000CA01825D984FFC013491465E584FFA0177
:1040B0008491882369F190E0880F991FFC01E450F6
:1040C000F94FA591B491FC01EA5FF84FC591D491E5
:1040D000662351F42FB7F8948C91932F90958923F0
:1040E0008C93888189230BC0623061F42FB7F894D8
:1040F0008C91932F909589238C938881832B88832F
:104100002FBF06C09FB7F8948C91832B8C939FBFD1
:10411000DF91CF910895833071F0843028F481309D
:10412000A1F0823021F514C08630B1F08730D1F093
:104130008430E9F404C0809180008F7703C08091BF
:1041400080008F7D80938000089584B58F7702C0B2
:1041500084B58F7D84BD08958091B0008F77809362
:10416000B00008958091B0008F7D8093B0000895D5
:10417000FF920F931F93F62E482F50E0CA018E5BDB
:10418000984FFC012491CA01825D984FFC01149163
:10419000465E584FFA0104910023C9F0222319F01A
:1041A000822F0E948B20E02FF0E0EE0FFF1FEA5FCE
:1041B000F84FA591B4919FB7F894FF2021F48C910A
:1041C0001095812302C08C91812B8C939FBF1F91EE
:1041D0000F91FF9008950F931F93482F50E0CA014D
:1041E0008E5B984FFC012491CA01825D984FFC01BF
:1041F0000491465E584FFA011491112319F420E0FE
:1042000030E015C0222319F0822F0E948B20812FCD
:1042100090E0880F991F805F984FFC01A591B491A1
:104220008C9120E030E0802311F021E030E0C901E2
:104230001F910F910895CF93DF930E948F1F0E94CB
:10424000FA09C0E0D0E00E94570A2097E1F30E94EB
:104250000000F9CFCF92DF92EF92FF920F931F935E
:10426000CF93DF937C016B018A01C0E0D0E00FC0E7
:10427000D6016D916D01D701ED91FC910190F08116
:10428000E02DC7010995C80FD91F01501040011535
:10429000110571F7CE01DF91CF911F910F91FF9022
:1042A000EF90DF90CF900895EF92FF920F931F93BE
:1042B000CF93DF937C018B01C0E0D0E0F8010F5F6A
:1042C0001F4F6491662359F0D701ED91FC91019045
:1042D000F081E02DC7010995C80FD91FEFCFCE019E
:1042E000DF91CF911F910F91FF90EF900895DC0126
:1042F000ED91FC910190F081E02D09950895EF92E8
:10430000FF920F931F938C01DC01ED91FC910190C2
:10431000F081E02D6DE009957C01D801ED91FC91D3
:104320000190F081E02DC8016AE009959C012E0DF5
:104330003F1DC9011F910F91FF90EF900895EF92DB
:10434000FF920F931F937C010E9454218C01C7019F
:104350000E947F219C01200F311FC9011F910F91E5
:10436000FF90EF9008954F925F927F928F929F926D
:10437000AF92BF92CF92DF92EF92FF920F931F9373
:10438000DF93CF93CDB7DEB7A1970FB6F894DEBF1A
:104390000FBECDBF2C01742ECB01223008F42AE0D1
:1043A00019A231E2C32ED12CCC0EDD1E822E99240F
:1043B000AA24BB24672D752FA50194010E942F24E8
:1043C00079018A01C801B701A50194010E94DD238A
:1043D000472D461B0894C108D1084A3014F4405DAB
:1043E00001C0495CF6014083E114F10401051105A7
:1043F00021F07E2C5F2DC801DDCFC201B6010E94E5
:104400005806A1960FB6F894DEBF0FBECDBFCF9170
:10441000DF911F910F91FF90EF90DF90CF90BF90B1
:10442000AF909F908F907F905F904F900895DC01A8
:104430002115310541F4ED91FC910190F081E02DC1
:10444000642F099508950E94B3210895EF92FF9279
:104450000F931F939A017B0100E010E0B801A701C0
:104460000E9417221F910F91FF90EF9008952F92B5
:104470003F924F925F926F927F928F929F92AF92F4
:10448000BF92CF92DF92EF92FF920F931F93DF9331
:10449000CF93CDB7DEB73B014C0119012A016D89DD
:1044A0007E898F89988D6A197B098C099D09621A0A
:1044B000730A840A950AA40193010E94DD23E2187D
:1044C000F30804091509A80197010E9451242A0D37
:1044D0003B1D4C1D5D1DB901CA01CF91DF911F919C
:1044E0000F91FF90EF90DF90CF90BF90AF909F9093
:1044F0008F907F906F905F904F903F902F90089596
:10450000EF92FF920F931F937B018C016115710550
:104510008105910529F420E030E040E050E00BC037
:104520000E94C524A80197010E945124AC01CB012F
:10453000DA019C01AD01B901CA011F910F91FF90F1
:10454000EF900895EF92FF920F931F937B018C01E0
:10455000621773078407950764F4261B370B480B13
:10456000590BCA01B9010E948022E60EF71E081FEE
:10457000191FB701C8011F910F91FF90EF90089587
:1045800098D088F09F5790F0B92F9927B751A0F095
:10459000D1F0660F771F881F991F1AF0BA95C9F7D7
:1045A00012C0B13081F09FD0B1E008959CC0672F58
:1045B000782F8827B85F39F0B93FCCF38695779587
:1045C0006795B395D9F73EF4909580957095619570
:1045D0007F4F8F4F9F4F0895E89409C097FB3EF49B
:1045E00090958095709561957F4F8F4F9F4F992340
:1045F000A9F0F92F96E9BB279395F69587957795BE
:104600006795B795F111F8CFFAF4BB0F11F460FF7D
:104610001BC06F5F7F4F8F4F9F4F16C0882311F0D5
:1046200096E911C0772321F09EE8872F762F05C0E9
:10463000662371F096E8862F70E060E02AF09A9584
:10464000660F771F881FDAF7880F9695879597F979
:10465000089597F99F6780E870E060E008959FEF04
:1046600080EC089500240A94161617061806090609
:10467000089500240A9412161306140605060895D8
:10468000092E0394000C11F4882352F0BB0F40F460
:10469000BF2B11F460FF04C06F5F7F4F8F4F9F4FA0
:1046A000089557FD9058440F551F59F05F3F71F022
:1046B0004795880F97FB991F61F09F3F79F0879589
:1046C0000895121613061406551FF2CF4695F1DF12
:1046D00008C0161617061806991FF1CF86957105A2
:1046E000610508940895E894BB2766277727CB01D6
:1046F00097F908950BD0C4CFB5DF28F0BADF18F0D2
:10470000952309F0A6CFABCF1124EECFCADFA0F3DB
:10471000959FD1F3950F50E0551F629FF001729F56
:10472000BB27F00DB11D639FAA27F00DB11DAA1F75
:10473000649F6627B00DA11D661F829F2227B00DC2
:10474000A11D621F739FB00DA11D621F839FA00D4D
:10475000611D221F749F3327A00D611D231F849F9D
:10476000600D211D822F762F6A2F11249F575040F4
:104770008AF0E1F088234AF0EE0FFF1FBB1F661F8F
:10478000771F881F91505040A9F79E3F510570F048
:1047900060CFAACF5F3FECF3983EDCF38695779528
:1047A0006795B795F795E7959F5FC1F7FE2B880F43
:1047B000911D9695879597F90895629FD001739FF3
:1047C000F001829FE00DF11D649FE00DF11D929FAD
:1047D000F00D839FF00D749FF00D659FF00D9927EC
:1047E000729FB00DE11DF91F639FB00DE11DF91F10
:1047F000BD01CF0111240895991B79E004C0991FD0
:10480000961708F0961B881F7A95C9F7809508952A
:10481000AA1BBB1B51E107C0AA1FBB1FA617B707E6
:1048200010F0A61BB70B881F991F5A95A9F7809502
:104830009095BC01CD01089597FB092E07260AD05B
:1048400077FD04D0E5DF06D000201AF4709561955D
:104850007F4F0895F6F7909581959F4F0895A1E2B7
:104860001A2EAA1BBB1BFD010DC0AA1FBB1FEE1FEA
:10487000FF1FA217B307E407F50720F0A21BB30B35
:10488000E40BF50B661F771F881F991F1A9469F7B1
:1048900060957095809590959B01AC01BD01CF010D
:1048A000089597FB092E05260ED057FD04D0D7DFBB
:1048B0000AD0001C38F450954095309521953F4F13
:1048C0004F4F5F4F0895F6F79095809570956195DD
:1048D0007F4F8F4F9F4F0895EE0FFF1F0590F4916C
:1048E000E02D0994A0E0B0E0E8E7F4E20C94DB24CA
:1048F000EC01A880B980CA80DB80A114B104C10496
:10490000D10441F484E2A82E89EDB82E8BE5C82E9F
:1049100087E0D82EC601B5012DE133EF41E050E02C
:104920000E94512427EA31E440E050E00E94DD2358
:104930007B018C01C601B5012DE133EF41E050E070
:104940000E945124CA01B9012CEE34EF4FEF5FEF02
:104950000E94DD236E0D7F1D801F911F97FF04C0F5
:104960006150704080409048688379838A839B833C
:104970009B01AC015F77B901CA01CDB7DEB7EAE0B0
:104980000C94F7240E94722408958BE091E00E9419
:104990007224089560930B0170930C0180930D01B4
:1049A00090930E0108952F923F924F925F926F92D3
:1049B0007F928F929F92AF92BF92CF92DF92EF92AF
:1049C000FF920F931F93CF93DF93CDB7DEB7CA1B30
:1049D000DB0B0FB6F894DEBF0FBECDBF09942A885B
:1049E000398848885F846E847D848C849B84AA8403
:1049F000B984C884DF80EE80FD800C811B81AA8190
:104A0000B981CE0FD11D0FB6F894DEBF0FBECDBF5A
:084A1000ED010895F894FFCFB9
:104A1800300031004C4F4144455200010000000174
:104A2800010101010101010101010101010101016E
:104A3800010101010101000000020202020202025A
:104A4800020202020202000000010100020102014A
:104A5800000000000001020202020201020001013E
:104A68000202020202020202020202020202000220
:104A78000202020101020201020201020202020212
:104A8800020102000102020201010201000000000D
:104A980001020202020202020002020202010102F3
:104AA80002020200020202020202010000000001EA
:104AB80002020101020201020001020202020202D4
:104AC80001020201020202010102020202000202C4
:104AD80002020202020202020202020201010002B2
:104AE80001020201020201000000000002020102AC
:104AF8000001010000000202020202020202020298
:104B0800020202000000010101010101010101018D
:104B1800010101010101010101010101010100007F
:104B2800000016112A2100000000FD1BCC1B4A1BA7
:064B3800531B681B791BF2
:00000001FF
