:100000000C9451040C9479040C9479040C947904A4
:100010000C9479040C9479040C9479040C9479046C
:100020000C9479040C9479040C9479040C941C209D
:100030000C9479040C9479040C9479040C9479044C
:100040000C9446240C9479040C9479040C9479044F
:100050000C9479040C9479040C9479040C9479042C
:100060000C9497220C9479044E6F206D6173746523
:100070007200536C61766520646973636F6E6E65A0
:10008000637465640057726F6E6720736C61766588
:1000900020646174610031206D6173746572206D3C
:1000A000617800536C6176652070617573656400DA
:1000B0000101010101010101010101010101010130
:1000C000010101010101000000020202020202021C
:1000D000020202020202000000010100020102010C
:1000E0000000000000010202020202010200010100
:1000F00002020202020202020202020202020002E2
:1001000002020201010202010202010202020202D3
:1001100002010200010202020101020100000000CE
:1001200001020202020202020002020202010102B4
:1001300002020200020202020202010000000001AB
:100140000202010102020102000102020202020295
:100150000102020102020201010202020200020285
:100160000202020202020202020202020101000273
:10017000010202010202010000000000020201026D
:100180000001010000000202020202020202020259
:10019000020202000000010101010101010101014F
:1001A000010101010101010101010101010101013F
:1001B000010101010101010101010101010101012F
:1001C0000101000000020202020202020202020217
:1001D000020200000001010001020102010201020D
:1001E00001020102010201020100010102020202F8
:1001F00002020202020202020202020202020201E0
:1002000001020102010201020102010201020102D6
:1002100001020102010102010202020202020202C3
:1002200002010202020202020201010202020202B1
:1002300002020102020202020202020201020101A2
:100240000201020102010201020102010201020196
:100250000201020101020202020202020202020281
:100260000202020202020202010100010201020175
:10027000020102010201020102010201000101006A
:100280000000020202020202020202020202020054
:100290000000010101010101010101010101010150
:1002A000010101010101010101010101010101013E
:1002B0000101010101010101010101010101000030
:1002C0000002020202020202020202020202000014
:1002D0000001010002020202020202020202020204
:1002E00002020202020001010202020202020202F2
:1002F00002020202020202020202020101020202E0
:1003000001020202020101010202020201020202D2
:1003100001010202020202020202010000020202C4
:1003200002020202020101020202020202020200B1
:1003300000010202020202020202010102020201A3
:100340000202020201010102020202010202020192
:10035000010202020202020202020202020202027E
:100360000202020201010002020202020202020271
:100370000202020202020202000101000000020267
:100380000202020202020202020202000000010155
:10039000010101010101010101010101010101014D
:1003A000010101010101010101010101010101013D
:1003B000010101010101010101010000000102022E
:1003C0000202020202020202020100000001010018
:1003D0000102020201020201010102020102020203
:1003E00001000101000202020202020202020202F4
:1003F00002020202020200010101020201020102E4
:1004000002010101020202020102020101010202D3
:1004100002020202020202000002020201020102C2
:1004200001010101020102010202020000020202B6
:1004300002020202020201010102020102010202A1
:100440000101010202020201020202010100020294
:10045000020202020202020202020202020202007E
:100460000101000102020201020201010102020176
:100470000202020100010100000001020202020268
:100480000202020202020100000001010101010159
:10049000010101010101010101010101010101014C
:1004A000080420C030A047414D45204F56455221F9
:1004B0000008057088D8A8D8080570A8F8F870500A
:1004C0007265737320616E79206B657900506C6181
:1004D00079657220312057494E2100506C61796551
:1004E0007220322057494E2100594F55204C4F4F12
:1004F00053452100594F552057494E21000A0517F1
:10050000052505426F6D626572005369676C652051
:10051000706C6179657200486F737420286D617327
:1005200074657229004A6F696E2028736C61766564
:10053000290003053F213F1208120A100A0E1C0E63
:100540000C1E0C141A14161F161E131E1E1B1E1E24
:100550001F1E3F213F3A2F3A173D173F213F181FDB
:1005600002040A041F0E04040E1F0A1F0A0E0E1FA7
:1005700004110E2E252E2F2A2E262929021F0208AD
:100580001F08150E04040E150E15151B151B040669
:1005900004040C040000000017000300031F0A1FDE
:1005A00016371A1904130A153A000300000E111128
:1005B0000E000A040A040E040030000404040010B3
:1005C000001804031F111F121F101D151711151FEE
:1005D00007041F17151D1F151D01011F1F151F17CC
:1005E000151F000A00003200040A110A0A0A110A43
:1005F000040115020E11171E051E1F150A0E110A01
:100600001F110E1F15111F05010E111D1F041F11B3
:100610001F1108100F1F041B1F10101F061F1E04A0
:100620000F0E110E1F09060E112E1F051A121509A5
:10063000011F011F101F0F180F1F0C1F1B041B038E
:100640001C03191513001F11030418111F000201C8
:10065000022020200001020C121E1F120C0C12128C
:100660000C121F0C1A14041E05242A1E1F021C142F
:100670001D1020201D1F0814111F101E041E1E0215
:100680001C0C120C3E0A040C123E1E040214160A24
:10069000020F120E101E0E100E1E081E120C122635
:1006A000281E322A26041E21001F00211E040102DA
:1006B000013F213F0A4E6F20534420636172642042
:1006C0006F720A6E6F204C4F414445522E48455878
:1006D0000A0A153A45786974001D20466C617368F2
:1006E000696E670A20206C6F616465722E2E2E0A77
:1006F0000A444F4E2754205455524E204F4646210F
:10070000006D560A0A504C454153450A5455524E05
:10071000204F4646004C4F572042415454455259B1
:100720000A00177361766500166261636B001574C9
:10073000797065000A0A0A153A6F6B617920163ADA
:100740006564697400596F7520656E7465726564BF
:100750000A00540A03E181867F3E186D830F0F0E55
:100760000183866033186DC3198F1803C38E6033FD
:10077000186DE330CF1803C39E603630CDE360CFF1
:100780003006C79E7E3E30CDB360CF300CC6F660DB
:100790003330D9B660CF33CFCCF66061B0DB1E60AA
:1007A000CF30D86CE6C061B0DB1E618F19986CC683
:1007B000C063B19B0E330F0FB078C6FF7E1F1B06C0
:1007C0001E0F17534400161378001613140015104B
:1007D00020001520100000000500893008023802B2
:1007E00049786814000045006801000005006801B0
:1007F000380100000500380168010000F6E8DBCF91
:10080000C3B8AEA49B928A827B746E68625C5752B6
:100810004E4945413E3A3734312E2C292725232194
:100820001F1D1C1A1917161514131211100F0E0D77
:100830000C0B0A090807063B083F080101F70301F2
:1008400001FF0300000000240027002A0000000030
:1008500000250028002B00000000002300260029AE
:100860000004040404040404040202020202020359
:100870000303030303010204081020408001020463
:1008800008102001020408102000000007000201E7
:1008900000000304060000000000000000007D07C7
:1008A0000E2111241FBECFEFD8E0DEBFCDBF12E076
:1008B000A0E0B1E0EAECF4E502C005900D92A632AA
:1008C000B107D9F715E0A6E2B2E001C01D92A83D3C
:1008D000B107E1F718E0C2EAD8E004C02297FE01B0
:1008E0000E94C729CE39D107C9F70E9474260C94FB
:1008F000632A0C94000084E08093B3028093B402D6
:1009000081E08093B5028093B6028093B802109282
:10091000BA0208958CE48093BB0288E28093BC0203
:1009200083E18093BD028AE08093BE0281E08093E0
:10093000C0021092C202089584E08093C30288E24C
:100940008093C40291E09093C5028AE08093C6022E
:100950009093C8029093CA0208958CE48093CB02CE
:1009600084E08093CC0283E18093CD0281E0809388
:10097000CE028093D0028093D2020895CF93DF936A
:10098000982FE3EDF2E0C1EFD2E0A2EEB2E0848175
:10099000882371F0808187FD8D5F85958595891706
:1009A00039F4818187FD8D5F85958595861781F165
:1009B00014968C911497882381F08C9187FD8D5F1C
:1009C00085958595891749F411968C91119787FD26
:1009D0008D5F859585958617D9F08C81882371F078
:1009E000888187FD8D5F85958595891739F4898183
:1009F00087FD8D5F85958595861751F035962596EF
:100A0000159682E0E23EF80709F0C1CF80E001C010
:100A100081E0DF91CF910895FC018581882389F1E0
:100A20002081422F552747FD50958281992787FDC8
:100A30009095880F991F880F991F4817590789F4B7
:100A40002181422F552747FD50958381992787FDA6
:100A50009095880F991F880F991F4817590749F4D7
:100A600008954817590714F42F5F01C021502083BF
:100A70000895481759071CF42F5F218308952150CA
:100A800021830895982FFA018481882369F0DA017F
:100A9000159614968C911497882311F4FD0104C0C7
:100AA0003A968481882349F480E58283809100030B
:100AB000838381E084839083618308950F931F93E0
:100AC000082F162F0E94BE04882311F040E015C0A5
:100AD00040E0212F30E085E190E0289FF001299F40
:100AE000F00D389FF00D1124E00FF11DE05FFE4F77
:100AF00080818150823008F041E0842F1F910F9156
:100B000008958F929F92AF92BF92CF92DF92EF9211
:100B1000FF920F931F93CF93DF9303EDC02E02E05C
:100B2000D02E11EFE12E12E0F12E02EE12E0C0E025
:100B3000D0E0882E9924A62EBB24F6018481882338
:100B4000F9F08081992787FD909588159905C1F462
:100B50008181992787FD90958A159B0589F41482D8
:100B6000FE01EE0FFF1FEE0FFF1FEC0FFD1FED52FA
:100B7000FD4F408151816281738184810E944606CC
:100B8000F80184818823F9F08081992787FD909569
:100B900088159905C1F48181992787FD90958A155B
:100BA0009B0589F41482FE01EE0FFF1FEE0FFF1F5D
:100BB000EC0FFD1FEE51FD4F408151816281738129
:100BC00084810E944606F70184818823F9F08081A0
:100BD000992787FD909588159905C1F481819927FA
:100BE00087FD90958A159B0589F41482FE01EE0F0E
:100BF000FF1FEE0FFF1FEC0FFD1FEF50FD4F408159
:100C000051816281738184810E944606219685E02C
:100C100090E0C80ED91EE80EF91E0B5F1F4FC330BF
:100C2000D10509F08ACFDF91CF911F910F91FF90ED
:100C3000EF90DF90CF90BF90AF909F908F900895EE
:100C40001F9370E0282F30E085E190E0689FF0016D
:100C5000699FF00D789FF00D1124E20FF31FE05F04
:100C6000FE4F1081113059F084E18083660F771FA9
:100C7000660F771F822F880F880F0E94810580E002
:100C80001150123008F481E01F910895EF92FF9205
:100C90000F931F93DF93CF9300D000D00F92CDB767
:100CA000DEB7342F4983252F5A836B837C838D8352
:100CB000E72E82E08093AC0283E08093AD0247FD93
:100CC0003D5FF32EF594F59427FD2D5F022F0595DA
:100CD000059510E00AC0812F8F0D602F0E9420061D
:100CE000882311F010E00EC01F5F1E15A0F3FACF8D
:100CF0008F2D811B602F0E942006882311F010E0A9
:100D00000EC01F5F1E15A0F3FACF612F600F8F2D4D
:100D10000E942006882311F010E00CC01F5F1E15F2
:100D2000A0F3FACF602F611B8F2D0E94200688232D
:100D300019F41F5F1E15B0F30F900F900F900F90D6
:100D40000F90CF91DF911F910F91FF90EF90089539
:100D5000CF92DF92EF92FF920F931F93CF93DF9387
:100D600053EFC52E52E0D52E44EEE42E42E0F42E91
:100D700005ED12E0C0E0D0E0F80182818823C1F0E7
:100D80008081882389F41282FE01EE0FFF1FEE0F8F
:100D9000FF1FEC0FFD1FED52FD4F4081518162811D
:100DA000738184810E944606F8018081815080838E
:100DB000F70182818823C1F08081882389F412821F
:100DC000FE01EE0FFF1FEE0FFF1FEC0FFD1FEE5198
:100DD000FD4F408151816281738184810E9446066A
:100DE000F701808181508083F60182818823C1F0E0
:100DF0008081882389F41282FE01EE0FFF1FEE0F1F
:100E0000FF1FEC0FFD1FEF50FD4F408151816281AC
:100E1000738184810E944606F6018081815080831F
:100E2000219685E090E0C80ED91EE80EF91E0B5FF2
:100E30001F4FC330D10509F09FCFDF91CF911F9194
:100E40000F91FF90EF90DF90CF900895BC0120E0CC
:100E500030E00BC084918D934F5F31964531D1F7CF
:100E60002B5E3F4F2C3F310541F0FB01E20FF31F9A
:100E7000D901A05FBE4F40E0EDCF08958091B2024E
:100E8000813051F0813028F0823049F0833071F4A4
:100E900009C080EB90E008C08CEA91E005C088EAC8
:100EA00092E002C084EA93E00E9426078091B20299
:100EB0008F5F83708093B20208950E947B040E942A
:100EC0008A040E949C040E94AD040E943E0783E0B5
:100ED000809300031092D7021092E6021092F5025E
:100EE0001092DC021092EB021092FA021092E102D0
:100EF0001092F0021092FF02089510927702109261
:100F0000760282E192E090937502809374020895D4
:100F10001F9311E0ABC085E595E00E94AC208F30B7
:100F200009F47BC0803194F48C3009F461C08D30B9
:100F300034F48A30E1F08B3009F098C01FC08D3056
:100F400009F45DC08E3009F091C060C0873109F4AA
:100F500076C0883134F48531C1F0863109F086C01D
:100F600063C08E3149F1883209F080C031C085E517
:100F700095E00E94AC208093B50278C085E595E0AD
:100F80000E94AC208093B60271C085E595E00E9476
:100F9000AC20C19709F06AC08091B5026091B60299
:100FA000772767FD7095660F771F660F771F880F8D
:100FB000880F43ED52E058C085E595E00E94AC20D3
:100FC0001092B802C19709F051C01093B8024EC0F8
:100FD00085E595E00E94AC20982F8091B202891798
:100FE00009F444C091509093B2020E943E073EC063
:100FF00085E595E00E94AC208093C50237C085E569
:1010000095E00E94AC208093C60230C085E595E053
:101010000E94AC208093CD0229C085E595E00E9416
:10102000AC208093CE0222C085E595E00E94AC20E2
:10103000C197E1F48091C5026091C6020AC085E5BE
:1010400095E00E94AC20C19789F48091CD02609117
:10105000CE02772767FD7095660F771F660F771FA3
:10106000880F880F41EF52E00E94420585E595E028
:101070000E94A320892B09F04ECF81E08093B0021B
:101080001092AF021F910895CF93DF93EC01611589
:10109000710519F420E030E00FC0DB010D90002055
:1010A000E9F71197A61BB70BE881F9810280F3815C
:1010B000E02DAD0109959C01C901DF91CF91089503
:1010C0008AE0809305038091BD02809306038BE044
:1010D000809307038091BE028093080385E180938B
:1010E00009038091C102882311F480E301C081E3E8
:1010F00080930A038EE180930B038091C0028823C2
:1011000011F480E301C081E380930C0380910F010F
:10111000882389F081E08093050380930603809300
:101120000703809308038093090380930A03809345
:101130000B0380930C038091AE02882389F082E038
:10114000809305038093060380930703809308032D
:101150008093090380930A0380930B0380930C030D
:1011600085E595E065E073E00E94440808951F93CB
:1011700010920F0110E016C061E070E080E090E096
:101180000E94C2241F5F143169F486E292E068E68F
:1011900070E042E00E94E61781E08093AF02809306
:1011A0000F0104C08091B002882331F31092B00285
:1011B0001F9108950F931F9305E515E0C80162E0A4
:1011C00070E00E94CD21C80168E877E00E94042108
:1011D000C80160E678E00E9409211F910F910895EF
:1011E00085E595E062E070E00E94992085E595E054
:1011F0006AE00E9456216091B502772767FD7095DD
:1012000085E595E00E94562185E595E06BE00E941A
:1012100056216091B602772767FD709585E595E0C8
:101220000E94562185E595E065E10E945621809156
:10123000B902882319F460E370E002C061E370E052
:1012400085E595E00E94562185E595E06EE10E94D6
:1012500056218091B802882319F460E071E002C041
:1012600062E071E085E595E00E94440885E595E03F
:1012700068E20E94562185E595E06091B2020E94E5
:10128000562185E595E06CE00E9456216091C502EB
:10129000772767FD709585E595E00E94562185E5E5
:1012A00095E06DE00E9456216091C602772767FDA8
:1012B000709585E595E00E94562185E595E06EE004
:1012C0000E9456216091CD02772767FD709585E5D4
:1012D00095E00E94562185E595E06FE00E94562139
:1012E0006091CE02772767FD709585E595E00E94B5
:1012F000562185E595E066E10E9456218091C9025C
:10130000882319F460E370E002C061E370E085E5D2
:1013100095E00E94562185E595E067E10E945621FF
:101320008091D102882319F460E370E002C061E388
:1013300070E085E595E00E94562185E595E00E94E4
:10134000992108950F931F9385E595E062E070E081
:1013500048E050E00E94AA21882309F46FC010924F
:10136000AF0210920F0101E061C085E595E00E9497
:10137000AC20182F8A3089F08B303CF4813009F48E
:101380003DC0823009F049C043C08531A1F08E31A3
:1013900051F18B3009F041C007C085E595E00E940E
:1013A000AC208093BD0242C085E595E00E94AC2050
:1013B0008093BE023BC085E595E00E94AC20C197BA
:1013C000A9F58091BD026091BE02772767FD7095F7
:1013D000660F771F660F771F880F880F42EE52E067
:1013E0000E94420523C085E595E00E94AC20109242
:1013F000C002C197D9F40093C00218C086E292E0FF
:1014000063EA70E042E00E94E61710930F010EC0FD
:1014100086E292E066E970E004C086E292E065E868
:1014200070E042E00E94E61700930F0185E595E029
:101430000E94A320892B09F098CF0CC086E292E08D
:1014400062E770E042E00E94E61781E080930F01BE
:101450008093AF021F910F9108950E94A2090E94EC
:10146000F008089585E595E00E94AE210895DF9388
:10147000CF93CDB7DEB728970FB6F894DEBF0FBE77
:10148000CDBFF22F29833A834B835C836D837E83A8
:101490008F8398876F2F432F772369F0992329F43F
:1014A00084E792E021EB34E004C084E792E028EB8B
:1014B00034E00E94161528960FB6F894DEBF0FBED2
:1014C000CDBFCF91DF9108952091B3023091B40246
:1014D0004091B5025091B6026091B7027091B80286
:1014E0008091B9029091BA020E94370A8091B102AC
:1014F000882391F42091BB023091BC024091BD023F
:101500005091BE026091BF027091C0028091C102F1
:101510009091C2020E94370A2091C3023091C40206
:101520004091C5025091C6026091C7027091C802F5
:101530008091C9029091CA020E94370A2091CB0281
:101540003091CC024091CD025091CE026091CF02F9
:101550007091D0028091D1029091D2020E94370AFC
:1015600008951F93142F0E94BE04882379F060E031
:1015700070E080E090E02AE030E040E050E00E943F
:10158000FB276B5C7F4F611B71090AC060E070E054
:1015900080E090E02AE030E040E050E00E94FB274D
:1015A000CB011F9108959F92AF92BF92CF92DF928D
:1015B000EF92FF920F931F93CF93DF93C82ED62EF7
:1015C000962E85E1689F50011124EC2C00E010E07C
:1015D000FF24E501C05FDE4FFE01EE0DF11D8081AD
:1015E0008150823030F4EC2CFF24E501C05FDE4FE7
:1015F0000DC08E2D6D2D4F2D0E94B10A080F191FA1
:10160000F394E39483E0F81639F7EDCFFE01EE0D85
:10161000F11D80818150823040F4ED2CFF24CC2DCF
:10162000D0E085E1A82EB12C0DC08E2D6D2D4F2D53
:101630000E94B10A080F191FF394EA9483E0F81688
:1016400029F7EBCF8E2D90E08A9DF0018B9DF00D58
:101650009A9DF00D1124EC0FFD1FE05FFE4F80817D
:101660008150823028F4FF24B5E1AB2EB12C0DC09F
:101670008C2D6E2D4F2D0E94B10A080F191FF39467
:10168000E39483E0F816F1F6EECF892D90E08A9D81
:10169000F0018B9DF00D9A9DF00D1124EC0FFD1FB4
:1016A000E05FFE4F80818150823060F08C2D692D8B
:1016B0004F2D0E94B10A080F191FF3949A9483E0EA
:1016C000F81619F7C801DF91CF911F910F91FF9084
:1016D000EF90DF90CF90BF90AF909F9008950F93C1
:1016E0001F93CF93DF938C01EB018FE097E2F8011A
:1016F0009183808393838283958384839783868376
:101700004A816B816F5F262F30E085E190E0289F52
:10171000F001299FF00D389FF00D1124E40FF11D09
:10172000E05FFE4F8081882331F4842F0E94D30A2A
:10173000F801918380834A814F5F6B81262F30E0CF
:1017400085E190E0289FF001299FF00D389FF00D72
:101750001124E40FF11DE05FFE4F8081882331F4F6
:10176000842F0E94D30AF801938382834A816B817C
:101770006150262F30E085E190E0289FF001299FFD
:10178000F00D389FF00D1124E40FF11DE05FFE4FC6
:101790008081882331F4842F0E94D30AF801958335
:1017A00084834A8141506B81262F30E085E190E0AF
:1017B000289FF001299FF00D389FF00D1124E40FB0
:1017C000F11DE05FFE4F8081882331F4842F0E9459
:1017D000D30AF80197838683DF91CF911F910F91F0
:1017E0000895CF92DF92EF92FF920F931F93DF93B2
:1017F000CF93CDB7DEB728970FB6F894DEBF0FBEF4
:10180000CDBF29833A834B835C836D837E838F8333
:101810009887042F152F16160CF46BC0D42EDA946B
:101820008D2D652F0E94D30AC3970CF062C0E02E65
:10183000E3948E2D612F0E94D30AC3970CF059C0F8
:10184000F12EFA94802F6F2D0E94D30AC3970CF0CB
:1018500050C0C12EC394802F6C2D0E94D30AC39711
:101860000CF047C060E070E080E090E02EE130E0F6
:1018700040E050E00E94FB2761157105810591054C
:10188000D1F185E1189FB0011124605F7E4FFB010B
:10189000ED0DF11D8081823071F1FB01EE0DF11D26
:1018A0008081823041F1402F50E08F2D90E065E142
:1018B00070E0869FF001879FF00D969FF00D112438
:1018C000E40FF51FE05FFE4F80818230A1F020E041
:1018D0008C2D90E0869FF001879FF00D969FF00D74
:1018E0001124E40FF51FE05FFE4F8081823021F468
:1018F00002C020E001C021E0822F28960FB6F894A4
:10190000DEBF0FBECDBFCF91DF911F910F91FF9032
:10191000EF90DF90CF900895EF92FF920F931F9377
:10192000DF93CF93CDB7DEB728970FB6F894DEBF1D
:101930000FBECDBF7C01FC018581882309F4D0C096
:1019400016822081332727FD30958281992787FDD4
:101950009095880F991F880F991F2817390709F04C
:10196000A9C02181332727FD30958381992787FDE1
:101970009095880F991F880F991F2817390709F02C
:1019800099C08E010F5F1F4FC801B7010E946F0BF6
:10199000F80106E910E08FE097E240E050E0608156
:1019A00071816817790714F0BC0101C08A014F5F8B
:1019B0005F4F32964430510511F0CB01F0CF6333C5
:1019C000710544F0F701828163810E94D30AC297B6
:1019D0000CF470C00130110589F0023011051CF4BF
:1019E000012B41F03FC00230110561F003301105B9
:1019F000C9F521C0F70153815F5F07C0F70142813C
:101A00004F5F1CC0F70153815150252F30E04281B8
:101A100085E190E0289FF001299FF00D389FF00D9F
:101A20001124E40FF11DE05FFE4F80818823D1F483
:101A3000F701538317C0F70142814150838190E041
:101A400025E130E0829FF001839FF00D929FF00D21
:101A50001124E40FF11DE05FFE4F8081882311F413
:101A6000F7014283F70120813181428153816481F2
:101A70007581868197810E94F10B8823A9F0F70177
:101A800082816381772767FD7095660F771F660FE8
:101A9000771F880F880F41EF52E00E94420581E0D6
:101AA000F701868384E105C0F7018481181614F4D8
:101AB00081508483F701838190E0428125E130E009
:101AC000829FF001839FF00D929FF00D1124E40F8F
:101AD000F11DE05FFE4F8081833010F0F701158229
:101AE00028960FB6F894DEBF0FBECDBFCF91DF9121
:101AF0001F910F91FF90EF90089583EC92E00E9468
:101B00008C0C8BEC92E00E948C0C08950F931F9329
:101B10008091AD02882309F459C081508093AD02B1
:101B200000910103109102032091AC0230E066277E
:101B30007727621B730B882777FD8095982F2F5F7F
:101B40003F4F442737FD4095542F0E94FB27060F37
:101B5000171F1093020300930103009103031091D8
:101B600004032091AC0230E066277727621B730BD9
:101B7000882777FD8095982F2F5F3F4F442737FDAB
:101B80004095542F0E94FB27060F171F1093040344
:101B9000009303031091290220912B02269526958C
:101BA0008091AC02289F90011124442737FD409575
:101BB000542F60E070E080E090E00E94FB27161B4D
:101BC00086E292E0612F0E94CE1008C010920203BC
:101BD0001092010310920403109203031F910F91BE
:101BE0000895CF92DF92EF92FF920F931F93CF93BE
:101BF000DF930E94860DEE24FF24DD243BC0088184
:101C0000002359F1013079F480910103612F681BA1
:101C1000809103034D2D481B84E792E024E004E00B
:101C20000E94DD121AC0033078F084E792E0612F41
:101C30004D2D20EA34E00E941615802F815082300D
:101C400009F480E0888309C0612F6F5F84E792E028
:101C50004C2D22E002E00E94131321961C5F1435E4
:101C600071F685E190E0E80EF91E94E0D90E80E36C
:101C7000D81639F0CD2CC394E701C05FDE4F10E0D9
:101C8000BECFDF91CF911F910F91FF90EF90DF902A
:101C9000CF900895EF92FF920F931F93CF93DF930E
:101CA000C3EDD2E061EFE62E62E0F62E02EE12E026
:101CB0008C81882379F08A8164E10E9455299630CD
:101CC00048F068816E5F49814E5F84E792E021E0D1
:101CD0000E946114F8018481882379F0828164E193
:101CE0000E945529963048F060816E5F41814E5FB9
:101CF00084E792E021E00E946114F7018481882347
:101D000079F0828164E10E945529963048F0608123
:101D10006E5F41814E5F84E792E021E00E94611492
:101D2000259685E090E0E80EF91E0B5F1F4F92E0CC
:101D3000C23ED90709F0BCCFDF91CF911F910F911F
:101D4000FF90EF900895EF92FF920F931F9310E092
:101D5000E4E5EE2E7CE0F72E86E292E00E94B319D5
:101D60008823D1F30E94F10D0E94640A0E944A0E5A
:101D700084E792E060E00E94441284E792E060E031
:101D800040E0212F00E30E94DD126E2D611B84E7ED
:101D900092E040E0212F0E94DD1284E792E061E0B2
:101DA00040E00E944812F0927D0281E080937E0222
:101DB00084E792E066EA74E00E94AD261E5F1E335F
:101DC00059F61F910F91FF90EF900895CF93DF93F5
:101DD000EC018D81882309F4B1C080910F01882323
:101DE00009F0ACC01E822881332727FD30958A81F7
:101DF000992787FD9095880F991F880F991F28179D
:101E0000390709F052C02981332727FD30958B818E
:101E1000992787FD9095880F991F880F991F28177C
:101E2000390709F042C080C08A818F5F6B810E94B0
:101E30005E058823D1F18A818F5F11C080E392E033
:101E400060E041E00E949B11882359F08A81815013
:101E50006B810E945E05882341F18A8181508A83CB
:101E600024C080E392E061E041E00E949B1188235E
:101E700051F06B8161508A810E945E058823A9F030
:101E80008B81815011C080E392E063E041E00E94C9
:101E90009B11882351F06B816F5F8A810E945E05E0
:101EA000882319F08B818F5F8B8380E392E064E05D
:101EB0000E949111882319F18091AE029A816B8161
:101EC000882369F0772767FD7095660F771F660F87
:101ED000771F892F880F880F43ED52E00CC07727BA
:101EE00067FD7095660F771F660F771F892F880F24
:101EF000880F42EE52E00E94420581E08E838B8182
:101F000090E04A8125E130E0829FF001839FF00D4F
:101F1000929FF00D1124E40FF11DE05FFE4F8081D0
:101F2000833060F01D820AC080E392E062E041E00D
:101F30000E949B11882309F077CF80CFDF91CF914A
:101F400008951F930E94A30E11E086E292E00E9482
:101F5000B3198823E1F18091B102882371F0809157
:101F6000B802882329F084E792E064EF74E012C09D
:101F700084E792E069EE74E00DC08091B802882396
:101F800029F484E792E06BED74E004C084E792E00A
:101F90006DEC74E00E94F82684E792E06FEB74E049
:101FA0000E94AD2680E392E064E00E9491118823B4
:101FB00099F480E392E065E00E949111882361F436
:101FC00080E392E066E00E949111882329F4109347
:101FD000B8021093C002B9CF1F91089586E292E033
:101FE00063E075E00E94311D0E945D071092B2020D
:101FF00008951F9311E010930F0186E292E06DEFB8
:1020000074E043E00E946C1A813069F0823091F0F4
:102010008823B9F410920F011093AF021093AE020F
:102020001093B10210C010920F011092AF02809372
:10203000AE0209C010920F011092AF021092AE02D0
:1020400002C00E94EE0F86E292E00E94B31988233C
:1020500009F43FC080E392E066E00E94911188237A
:1020600009F053C083EB92E00E940C058091B1020D
:10207000882321F48BEB92E00E940C0583EC92E024
:102080000E940C058BEC92E00E940C058091AE0240
:10209000882369F083EB92E00E94E60E0E947D0D9A
:1020A0008091B102882369F40E942D0A0AC08BEB4B
:1020B00092E00E94E60E8091B102882311F40E9402
:1020C000B7080E94A8060E94F10D0E94640A0E94AF
:1020D0004A0E8091B802882399F08091C00288232B
:1020E00079F08091B102882309F4ADCF8091C802C4
:1020F000882309F0A8CF8091D002882309F0A3CFCC
:102100000E94A10F0E945D079ECF1F91089586E255
:1021100092E00E94361D0E94EE0F10923E020E9435
:10212000320A0E94DA080895882319F48CB5806277
:1021300002C08CB58F7D8CBD08959CB5937F982B84
:102140009CBD08952CB5382F33702C7F322B3CBDAD
:102150002DB590E0959587959595879581702E7F03
:10216000822B8DBD08958AE061E00E9411268AE0ED
:1021700061E00E94A5258CB580618CBD8CB5806422
:102180008CBD8DE061E00E94A5258BE061E00E949E
:10219000A5250895FC0181E08083089585E070E025
:1021A0000E94452508956F927F928F929F92AF92E1
:1021B000BF92CF92DF92EF92FF920F931F93CF9334
:1021C000DF93EC0189819A818C0124E0000F111FBB
:1021D0002A95E1F7081B190B85E10E942325BC0114
:1021E000600F711F84E0769567958A95E1F77A8391
:1021F00069838881882381F12E813F81621773076B
:1022000010F4B90106C0888599858617970708F4E8
:10221000BC0100D000D080E090E040E050E0E884D5
:10222000F98400E010E0AD80BB24CC24DD246C8078
:10223000772488249924EDB7FEB761827282838265
:1022400094820E9490276B830F900F900F900F90B5
:1022500085E070E00E944525DF91CF911F910F919D
:10226000FF90EF90DF90CF90BF90AF909F908F90B6
:102270007F906F900895FC018CE39FE093838283AD
:1022800084E0818381E084870895CF93DF93EC011C
:102290008C8590E08F719070892B69F584E10E94A4
:1022A0002325AA2797FDA095BA2FBC01CD010E9436
:1022B000472826EE3FE34EEC50E40E94D3280E94CC
:1022C00019289B01AC017B836A836115710589F034
:1022D00084E08983B901FE0120E08481958168173B
:1022E000790710F429830AC02F5F32962430A9F7AA
:1022F00002C08FEF89838C858F5F8C87DF91CF91B0
:102300000895FC0188E0808389E0818387E08283EF
:1023100086E0838384E0848382E0858381E1868311
:10232000089520E0FC01E60FF11D8781813009F45A
:1023300021E0822F0895E62FF0E0423040F420E0C3
:10234000E80FF91F878181508E3F88F40FC0E80F96
:10235000F91F87818F3F11F420E009C020E090E051
:10236000642F70E00E946129019709F421E0822F17
:1023700008950F931F93CF93DF93EC0110E00FEFBD
:10238000888162E00E94A52588810E9444262F81D1
:10239000892B19F42F5F2F8307C0222349F02F3F89
:1023A00011F41F8201C00F83888160E00E94A5257F
:1023B0001F5F2196173021F7DF91CF911F910F9169
:1023C0000895FC01742F643508F05DC047FD5BC0C3
:1023D00040330CF058C0878D823019F5842F8595D5
:1023E00085958595992787FD9095462F552747FD1B
:1023F000509524E530E0829FF001839FF00D929F7D
:10240000F00D1124E40FF51FE35FFC4F808190E095
:10241000272F277002C0959587952A95E2F780951A
:102420008170972F959595959595462F552747FD42
:102430005095272F27708823A1F4E4E59E02F00130
:102440001124E40FF51FE35FFC4F81E090E002C030
:10245000880F991F2A95E2F78095208128232083F1
:102460000895E4E59E02F0011124E40FF51FE35FF7
:10247000FC4F81E090E002C0880F991F2A95E2F797
:102480002081282B20830895FC01678F60A3089585
:10249000FC01678F40A30895AF92BF92CF92DF9265
:1024A000EF92FF920F931F93CF93DF93EC01162FC0
:1024B000F42EE22EAA24402F552747FD50958F2D4C
:1024C000992787FD9095481B590B57FF03C05095DE
:1024D00041955F4F2E2D332727FD3095812F99276A
:1024E00087FD9095281B390B37FF03C03095219548
:1024F0003F4F2417350744F4AA24A3948F2DF12EBF
:10250000182F802F0E2DE82EE11634F48E2DE12E9B
:10251000182F802F0F2DF82EDE2CD11A202F3327C5
:1025200027FD30958F2D992787FD9095281B390B16
:1025300037FF03C0309521953F4FB22EF0161CF0A7
:10254000CC24CA9402C0CC24C3948D2DD7FC8F5FB9
:10255000082F059511C0AA2021F0CE016F2D412F23
:1025600003C0CE01612F4F2D0E94E1110B1907FF0F
:1025700002C0FC0C0D0D1F5FE1166CF7DF91CF91CF
:102580001F910F91FF90EF90DF90CF90BF90AF9091
:1025900008950F93042F322F262F2150230F0E94CE
:1025A0004C120F9108950F93362F042F0150020FF4
:1025B000232F0E944C120F9108959F92AF92BF92C9
:1025C000CF92DF92EF92FF920F931F93CF93DF93FF
:1025D0006C01B62E942EA02EC0E0D0E0E62EFF2493
:1025E000E7FCF094022F112707FD10950E0D1F1D1B
:1025F00006C0C601492D2A2D0E94D31221966B2DAB
:102600006C0FCE018E0D9F1D8017910794F3DF9103
:10261000CF911F910F91FF90EF90DF90CF90BF90DF
:10262000AF909F900895CF92DF92EF92FF920F9319
:102630001F937C01162FD42EC22E0E94C9124D2D3D
:102640004150400FC701612F2C2D0E94C912C701B4
:10265000612F4D2D202F0E94D31211501C0DC70148
:10266000612F4D2D202F0E94D3121F910F91FF90AB
:10267000EF90DF90CF9008952F923F925F926F92EC
:102680007F928F929F92AF92BF92CF92DF92EF9202
:10269000FF920F931F93DF93CF9300D000D000D011
:1026A000CDB7DEB79E838D83C62ED42EEE24E39461
:1026B000E21A8EEF289F502C1124842E8A94962E95
:1026C0009A94A42EA394B62EB394F22E662423E0FB
:1026D000722E10E0C801847090709A838983F8018B
:1026E000E270F070FC83EB8398E0292E312C2022DD
:1026F00031220170107054C0E7FC04C0FA94F2E07B
:102700005F0EE50C639489819A81892B71F04F2DBE
:102710004D0D8D819E816B2D0E94E1116F2D6C0DF1
:102720008D819E814A2D0E94E111EB81FC81EF2B6E
:1027300071F04D2D4F198D819E816B2D0E94E111FD
:102740006F2D6C0D8D819E81482D0E94E111211409
:10275000310471F06C2D6F198D819E814A2D0E947C
:10276000E1114F2D4D0D8D819E81692D0E94E1114A
:102770000115110571F06C2D6F198D819E81482D09
:102780000E94E1114D2D4F198D819E81692D0E946E
:10279000E111E70CF2E07F0E8A949A94A394B3942B
:1027A0006F140CF4A9CF26960FB6F894DEBF0FBEB7
:1027B000CDBFCF91DF911F910F91FF90EF90DF90F0
:1027C000CF90BF90AF909F908F907F906F905F90D1
:1027D0003F902F9008954F925F926F927F928F92C9
:1027E0009F92AF92BF92CF92DF92EF92FF920F93A0
:1027F0001F93CF93DF93EC01A62E742E9E2DFF2402
:10280000F394F21A8EEF289F802C1124B42EBA94E0
:1028100053E0C52ECE0CE22EDD2443E0942E10E0D2
:1028200031E0432E512C40225122692E63940270D4
:10283000107034C0F7FC04C0EA9482E0880EF80CF3
:10284000D3944114510489F06D2D6A0D472D4E1912
:102850002E2D220F260DCE010E94D3126E2D6A0D51
:10286000CE014B2D2C2D0E94D3120115110589F09C
:102870006A2D6D19472D4E192E2D220F260DCE01D2
:102880000E94D3126A2D6E19CE014B2D2C2D0E9461
:10289000D312F90C82E0980EBA94C80EDE1454F2EA
:1028A000DF91CF911F910F91FF90EF90DF90CF902C
:1028B000BF90AF909F908F907F906F905F904F9060
:1028C0000895DF92EF92FF920F931F937C01062FE2
:1028D000D42E122F421B220F2F5F0E94D312C7014A
:1028E000602F4D2D212F03E0EE240E94EB131F914A
:1028F0000F91FF90EF90DF9008957F928F929F92BB
:10290000AF92BF92CF92DF92EF92FF920F931F93FD
:102910006C01962EA42EF22E7E2C760E1EEFE19EDA
:10292000102D1124812E820E672D282D0E94C91290
:10293000B02EBA0CBA94C601672D4B2D282D0E94DB
:10294000C912AE0C100FC601692D4A2D212F0E940D
:10295000D312F90CFA94C6016F2D4A2D212F0E9433
:10296000D312C601672D4A2D2E2D01E00E943C1383
:10297000FE18C6016F2D4A2D2E2D02E00E943C1339
:10298000BE18C6016F2D4B2D2E2D04E00E943C1366
:10299000C601672D4B2D2E2D08E00E943C131F9180
:1029A0000F91FF90EF90DF90CF90BF90AF909F90EE
:1029B0008F907F9008958F929F92AF92BF92CF9207
:1029C000DF92EF92FF920F931F936C01162FA42EAC
:1029D000922EF02EBE2C8E2C860E2EEFE29EE02C38
:1029E00011242E2D290D682D0E94DD12AB0CFA94B6
:1029F000FE0C1150190D1B19C601612F4A2D2B2DEC
:102A000001E0EF2C0E94EB13C601682D4A2D2B2DFF
:102A100002E00E94EB131F910F91FF90EF90DF9067
:102A2000CF90BF90AF909F908F9008953F924F921C
:102A30005F926F927F928F929F92AF92BF92CF924E
:102A4000DF92EF92FF920F931F93CF93DF934C018E
:102A5000362E442EF901A490319654906F010894BB
:102A6000C11CD11C8A2D992787FD9095079668E097
:102A700070E00E947529E62EFF24E7FCF09400E048
:102A8000C0E0D0E060E8662E712C26C0E12FE5950D
:102A9000E595E595FF27E7FDF095EC0FFD1FEC0DA3
:102AA000FD1DE4912E2F30E0812F8770A30102C01D
:102AB000559547958A95E2F724233523232B31F04A
:102AC000612F630DC4014B2D0E94E1111F5F1A1588
:102AD000ECF20F5FCE0DDF1D051524F410E0B02ED3
:102AE000B40CF5CFDF91CF911F910F91FF90EF9034
:102AF000DF90CF90BF90AF909F908F907F906F901E
:102B00005F904F903F900895DC01FB0184918F5FAF
:102B100014968C931497319684918F5F15968C93AD
:102B2000159731965E96FC93EE935D9708953F92CC
:102B30004F925F926F927F928F929F92AF92BF92CD
:102B4000CF92DF92EF92FF920F931F93CF93DF9379
:102B5000EC01862EA42E422F102F3F8C23E5261742
:102B60000CF4ABC03FE23A150CF4A7C0C02EDD2434
:102B70008C8190E001979C01C29EC001C39E900D84
:102B8000D29E900D1124262F332727FD3095820FDA
:102B9000931F181619060CF090C08D8190E09C01CF
:102BA000C29EC001C39E900DD29E900D11242A2D6D
:102BB000332727FD3095820F931F181619060CF046
:102BC0007CC09924442E55246DC09C012150304076
:102BD0004217530711F460E00EC0429EC001439EAD
:102BE000900D529E900D1124840F951FED8DFE8D3A
:102BF000E80FF91F64914C9DC0014D9D900D5C9DA7
:102C0000900D1124682C680EBB24792C780C3FC0E1
:102C1000E62EFF2460FF19C0113039F44B2D4A0D08
:102C2000CE01672D0E94E1112EC02C9DC0012D9D6B
:102C3000900D3C9D900D11244A2D480FCE01662D1C
:102C4000212F012F0E94DD121EC098A18F8D981791
:102C5000D1F09F8F113039F44B2D4A0DCE01672DE5
:102C60000E94E1110FC02C9DC0012D9D900D3C9D37
:102C7000900D11244A2D480FCE01662D212F012FD2
:102C80000E94DD123F8EF594E7946E2DB3942B2DA8
:102C9000332727FD30958D8190E0281739070CF4F4
:102CA000B7CF9394492D552747FD50958C8190E0DF
:102CB000481759070CF489CF3F8EDF91CF911F91B0
:102CC0000F91FF90EF90DF90CF90BF90AF909F90CB
:102CD0008F907F906F905F904F903F9008950F93EB
:102CE000CF93DF93EC01262F6A3049F48D819885CC
:102CF000899F802D11249A85980F9A8726C06D3060
:102D000029F169854A8508850E9497159C81688507
:102D1000969F402D11248985480F49878F818823EC
:102D2000A9F0552747FD5095699F9001112484E52E
:102D300090E0821B930B8417950744F49D81699F53
:102D4000902D11248A85890F8A87198681E090E069
:102D5000DF91CF910F9108951F93CF93DF93EC01F3
:102D6000162FF8948E8560E00E9411268F85181624
:102D70001CF460E00E9411261EBD0DB407FEFDCFBD
:102D80008EB58F8518161CF461E00E941126789488
:102D9000DF91CF911F910895FF920F931F93CF93CF
:102DA000DF93EC01FF2400E010E06F2D6064CE01A2
:102DB0000E94AC16CE0160E80E94AC168E8561E0E0
:102DC0000E9411268F8518161CF460E00E941126BF
:102DD000F801E35FFC4F90E080818EBD0DB407FEEB
:102DE000FDCF8EB59F5F31969435B1F78F8518165C
:102DF0001CF461E00E941126F3940C5A1F4F86E0E8
:102E0000F81699F6CE0160E40E94AC16DF91CF91DE
:102E10001F910F91FF900895CF93DF93DC0188EF0E
:102E200091E0EDE0F3E0EF019C0119922150304078
:102E3000E1F719961C9219971A961C92DF91CF917F
:102E40000895EF920F93CF93DF93EC014D876C873A
:102E50002E87E88A0F8781E088878F8F18A28F835B
:102E6000CE0162E375E00E9484150E94B31081E0F8
:102E70000E94941085E00E94A2108CE00E949D1098
:102E80008D8561E00E94A5258C8561E00E94A525C5
:102E90008E8561E00E94A525888918161CF461E0E2
:102EA0000E94A5258F8518161CF461E00E94A525B7
:102EB000888918166CF460E00E9411266AE070E0C0
:102EC00080E090E00E94C224888961E00E9411267F
:102ED000EC852E2F332727FD3095F901EF59F74F59
:102EE000E491F0E0EE0FFF1FE35BF74F85919491C3
:102EF0009C8B8B8B2B58374FF90184918A8FED85F2
:102F00002E2F332727FD3095F901EF59F74FE49124
:102F1000F0E0EE0FFF1FE35BF74F859194919A8BE2
:102F2000898B2B58374FF9018491898FEF852E2F8C
:102F3000332727FD3095F901EF59F74FE491F0E081
:102F4000EE0FFF1FE35BF74F859194919E8B8D8B66
:102F50002B58374FF90184918B8FEE852E2F332715
:102F600027FD3095F901EF59F74FE491F0E0EE0FAE
:102F7000FF1FE35BF74F85919491988F8F8B2B58B0
:102F8000374FF90184918C8FCE0161E20E94AC161B
:102F9000CE0164E10E94AC168B8587FF02C08FE7EB
:102FA0008B876B856068CE010E94AC16CE0160E213
:102FB0000E94AC16CE016CE00E94AC16CE010E94BD
:102FC000CC16DF91CF910F91EF900895FC01ED5752
:102FD000FF4F61937193445F40830895CF93DF93D4
:102FE000DC01E0E8F7E785919491ED01C75ADF4FE6
:102FF000AD0141595F4F8150904C09F04EC0E6E958
:10300000F7E7E491E883E7E9F7E7E4911496EC93B6
:103010001497E8E9F7E7E4911596EC931597E9E939
:10302000F7E78591949117969C938E931697EBE909
:10303000F7E78591949119969C938E931897EDE9F3
:10304000F7E7E4919B96EC939B97EEE9F7E7E49121
:103050009A96EC939A97EFE9F7E7E491EA01E8830F
:10306000E0EAF7E7859194915D969C938E935C9747
:10307000E2EAF7E7859194915F969C938E935E9731
:10308000E4EAF7E78591949191969C938E939097BB
:10309000E6EAF7E78591949132C08CE38883149631
:1030A0001C9214972FEF15962C93159780E293E0BE
:1030B00017969C938E93169784ED93E019969C93A4
:1030C0008E93189781E09B968C939B979A968C93FE
:1030D0009A97FA0120838CEA9DE05D969C938E93EB
:1030E0005C978EED9DE05F969C938E935E9784E750
:1030F0009EE091969C938E9390978CE39FE093969D
:103100009C938E939297DF91CF910895EF92FF92C7
:103110000F931F93CF93DF937C018C01025B1F4FB2
:10312000C8010E940C17C80169ED76E00E94AD2627
:10313000C8010E94CC1683E00E94A21084E091E0B6
:10314000EEEFFFE3099584E590E0E80EF91EF70144
:103150001082C80164EB76E00E94F826C8010E9444
:10316000CC16E701CA54D040CE010E94B911CE015D
:1031700064E00E949111882339F462E370E080E0FA
:1031800090E00E94C224F0CFDF91CF911F910F9168
:10319000FF90EF9008950F931F93CF93DF93EC016F
:1031A0008C01025B1F4FC80161E040E00E944812A1
:1031B000FE01E95AFF4FCE5ADF4F85E59881891B02
:1031C000808326961882C855D040698D613009F4F5
:1031D0003EC0613028F0888D653008F051C04BC08A
:1031E000CE0185960E943B1ECE0160E00E94CE106B
:1031F000C8010E940C17CA5ADF4F81E08883C65568
:10320000D040C80165E177E00E94AD266A8D7B8DD4
:10321000C8014AE050E00E947F27C80161E077E0E2
:103220000E94AD26C8010E94CC1683B7817F8460BE
:1032300083BF83B7816083BF83B7816083BF889575
:1032400083B78E7F83BF83B78E7F83BF1FC0C05974
:10325000DF4F88819981AA81BB818F709070A070A7
:10326000B0700897A105B10518F4C80167E00CC05B
:10327000C80168E709C0882349F06B5FC80104C032
:10328000882321F0C8016FE20E94D026DF91CF9100
:103290001F910F910895AF92BF92CF92DF92EF925C
:1032A000FF920F931F93CF93DF93EC01CB57DF4F28
:1032B0008881C558D040882309F44AC08C3010F06A
:1032C00010E002C01CE0181BCA5ADF4F81E088835F
:1032D000C655D0406EE4C62ED12CCC0EDD1EC601E4
:1032E00060E00E94441253E5A52EB12CAC0EBD1E29
:1032F000F50100814DE2F42E4F2D401B410F0D5F73
:10330000C60160E024E533E0E32E0E94DB14C60131
:1033100061E00E944412F5010081F01AF10E0D5F88
:10332000C60160E04F2D24E50E947D14C95ADF4F8D
:1033300084E08993F5018081181B115D1883AB9699
:1033400069917991C6010E94AD2688818150888358
:10335000DF91CF911F910F91FF90EF90DF90CF9071
:10336000BF90AF900895AF92BF92CF92DF92EF924D
:10337000FF920F931F93CF93DF93EC01EFE7AE2EF5
:10338000B12CA80EB91EF501E080F18002811381F5
:103390000E948E24E61AF70A080B190B7EE7C72E47
:1033A000D12CCC0EDD1EF601808190E0A0E0B0E0D3
:1033B0008E159F05A007B10708F081C08E01065841
:1033C0001F4FF80180819181A281B3810097A105EF
:1033D000B10509F474C00E948E24F6012081620FA9
:1033E000711D811D911DF50160837183828393831B
:1033F000FE01E059FF4F80819181A281B381019646
:10340000A11DB11D80839183A283B383F801108233
:103410001182128213820E949C24CA58DF4F688353
:1034200079838A839B83C657D040CE010E94D310F4
:10343000CE010A960E94B911CE0148960E9445110C
:1034400081E032C08E010B5D1F4FC8010E94891EB2
:10345000C8010E94001FC8010E94E31FCE010E9404
:103460004B19CE010E94CB188E01025B1F4FC80181
:103470000E94CC16CC5ADF4F8881C455D040882397
:1034800019F4C8010E940C170E949C24C658DF4FF3
:10349000688379838A839B83249728813981621B7F
:1034A000730B7A936A9380E0DF91CF911F910F9114
:1034B000FF90EF90DF90CF90BF90AF900895C658E7
:1034C000DF4F88819981AA81BB81CA57D04000977C
:1034D000A105B10541F7B6CF2F923F924F925F926F
:1034E0006F927F928F929F92AF92BF92CF92DF9214
:1034F000EF92FF920F931F93DF93CF93CDB7DEB779
:1035000062970FB6F894DEBF0FBECDBF6C016C831F
:103510007D834B8324E530E0C20ED31EF60110827A
:103520002CEA3FEFC20ED31E1AE0A12EB12CAC0C38
:10353000BD1CB5E22B2E312C2C0C3D1CAEE44A2ECA
:10354000512C4C0C5D1C1A823FEF398310E0F0E3E4
:103550007F2E6624A601495A5F4F5F834E83C601C2
:10356000885A9F4F99878887F601EA5AFF4FFB8751
:10357000EA8796012B5A3F4F3D872C87E3E58E2E35
:10358000912C8C0C9D1C5B81452F50E05F874E87F2
:103590008B818150888BC6010E94B3198823D9F38F
:1035A000C50164E00E949111882369F4C50165E0BA
:1035B0000E949111882339F4C50166E00E9491119F
:1035C000882309F4D3C0F4010081C50164E00E949E
:1035D0009111882329F0C1010E9440201983CBC09A
:1035E000C1010E944620C7C0C50163E044E00E94BB
:1035F0009B11882321F01F5FC1010E944C20C5014F
:1036000061E044E00E949B11882321F01150C10128
:103610000E944C20812F992787FD90952E853F850C
:103620008217930711F410E002C017FD1889F40106
:103630008081819F902D11248C5F682E691A28C08B
:10364000872D992787FD9095262D332727FD3095C7
:10365000821B930B0297D4F4898162960FB6F8947B
:10366000DEBF0FBECDBFCF91DF911F910F91FF90B5
:10367000EF90DF90CF90BF90AF909F908F907F9012
:103680006F905F904F903F902F900895F1E0FA83F4
:10369000862D992787FD9095272D332727FD309577
:1036A000820F931F62E070E00E947529762EEE81F2
:1036B000FF811082E885F985608321E0EA85FB853A
:1036C0002083EC85FD8510822C813D81C9019A8B78
:1036D000898B00E0E12EFF24E7FCF09420C0802FCE
:1036E00090E08E159F0569F423E0EE81FF81208331
:1036F000F40180818E9D802D1124870DE885F98548
:103700008083E989FA8965917491C2010E94F82643
:103710000F5F29893A892E5F3F4F3A8B298B3B8176
:103720000317E8F2C20160E00E944412F4014081F4
:103730004E9D402D11244150470DC20160E024E50B
:103740000E94C912C20161E00E944412F40100818A
:103750000E9D402D11244250470D0D5FC20160E0C7
:1037600024E573E0E72E0E947D1415CFFA81FF2334
:1037700009F066CF39CF802F90E0909581959F4FCB
:103780002E853F85AC01249FC001259F900D349F5D
:10379000900D11246EEF662E680E52CF2F923F923D
:1037A0004F925F926F927F928F929F92AF92BF9251
:1037B000CF92DF92EF92FF920F931F93DF93CF93FD
:1037C000CDB7DEB72B970FB6F894DEBF0FBECDBFD7
:1037D0009B878A877A8369835C834B838C01015939
:1037E0001F4FF8018081882309F422C18A859B85B7
:1037F0008A5A9F4F9B878A8781E0EA85FB85808371
:1038000012921292E455F040FB87EA87108E9EE4F4
:10381000E92EF12CEE0EFF1EC70161E00E9444125A
:103820008AE0282E312C8A859B85280E391EB5E228
:103830006B2E712C680E791EE981FA81F491FD835B
:10384000A7E58A2E912C880E991EF8E5CF2ED12C53
:10385000C80ED91EE2E54E2E512C480E591E8D5A27
:103860009F4F9F838E8370E7A72EB12C8A859B85FF
:10387000A80EB91E198708878A859B850E94B319EF
:103880008823D1F39D81992311F410E003C0EE81C8
:10389000FF811081C70160E040E022E537E00E942F
:1038A00016158B819C81892B41F0145FC70160E064
:1038B000412F2B813C810E941615F40110828CE06F
:1038C000F6018083C70169817A810E94AD26F201E9
:1038D000208130E0C901880F991F820F931F9095B6
:1038E00081959F4F8D5AF4018083EE81FF81208165
:1038F00030E0C901880F991F820F931F9095819521
:103900009F4F835DF6018083F501808184FF04C0B1
:10391000C70162ED77E003C0C7016EEC77E00E945B
:10392000F826F201208130E0C901880F991F820F2B
:10393000931F909581959F4F8D5AF4018083F601D6
:1039400080818F5F8083EA85FB8582A5882321F0B3
:10395000C7016AEC77E003C0C70166EC77E00E941C
:10396000F826F201808190E09C01220F331F280F7E
:10397000391F309521953F4F2D5AF4012083F601D0
:1039800080818F5F8083C70162EC77E00E94F82618
:10399000C10165E00E949111882351F0EA85FB8501
:1039A00062A56F5FC3010E945220C3010E944C2098
:1039B000C10164E00E949111882399F4E885F9859A
:1039C0006081262F30E040E050E0F5018081918158
:1039D000A281B38182179307A407B50708F16F3F4F
:1039E000F9F08A859B8581599F4F9B878A878FEF46
:1039F000EA85FB858083EF56F040FB87EA87C301A9
:103A000060E00E94301EC3010E94402081E0EA85F0
:103A1000FB85808F0DC08A859B850E9486182CCFE0
:103A2000C10166E00E949111882309F425CFF3CFEC
:103A30002B960FB6F894DEBF0FBECDBFCF91DF91AE
:103A40001F910F91FF90EF90DF90CF90BF90AF90BC
:103A50009F908F907F906F905F904F903F902F90AE
:103A6000089540E050E00E94CE1B0895AF92BF92AF
:103A7000CF92DF92EF920F93CF93DF936C018EE79B
:103A800090E0C80ED91E82E3F601808381E090E0C9
:103A9000A0E0B0E0B293A293929382936F0185EF7E
:103AA0009FEFC80ED91E8FEFF601808381E99FEF4B
:103AB000C80ED91EC6010E94EE17C6010E94CA1088
:103AC000C6016FEF0E94CE104AE0A42EB12CAC0CC0
:103AD000BD1CC5010E948111C5010E94B911C6011A
:103AE00048960E943B11C601825B9F4F6DE04BE000
:103AF00020E10FE03EE0E32E0E942117E601A596AB
:103B0000CE010E945F20C50165E00E9491118823CB
:103B100029F0CE0160E00E94522006C0CE0168ED7F
:103B200077E040E00E943F1EDF91CF910F91EF9030
:103B3000DF90CF90BF90AF9008950F93DC010023EA
:103B400009F069C0623009F443C0633030F4662381
:103B500059F0613009F05FC00DC0633009F444C012
:103B6000643009F058C04CC04B3008F04AE056961B
:103B70004C9351C0842F90E0880F991F1F962D9170
:103B80003C915097280F391FF90185919491909697
:103B90009C938E935F97FC014591549114968C9160
:103BA0001497849F602D112491966C939197252FE3
:103BB0003327862F90E02817390708F4652F1496CD
:103BC0008C911497689F802D112492968C9323C01A
:103BD00014968C911497489F802D112459968C939C
:103BE00059975A962C9317C014968C911497489F06
:103BF000802D11245B968C935B975C962C930BC065
:103C000014968C911497489F802D11245D968C9367
:103C10005D975E962C930F910895FC01222371F419
:103C2000648B8481489F802D1124858B15A214A25A
:103C300013A281E0878B80930605108E0895FC0106
:103C4000662369F4178A158A14A213A2108E1092A3
:103C5000090510920805109206051092B400089507
:103C6000CF93DF93EC01662319F40E941F1E198283
:103C7000DF91CF91089560E00E94301E08950F9368
:103C80001F93CF93DF93EC018B01442371F460E029
:103C90000E94301E1E870D871B8A1A8A81E0898345
:103CA00089E08E8B198E1B8E1D8EDF91CF911F9117
:103CB0000F910895CF93DF93EC01662339F5888146
:103CC000882321F18981882309F5898590E0880F6F
:103CD000991FEF81F885E80FF91F859194912FEFD7
:103CE0008F3F920711F4188211C09C8790E0880FD3
:103CF000991FEA85FB85E80FF91F65917491CE0144
:103D000040E00E943F1E89858F5F8987DF91CF91B8
:103D1000089560E00E945A1E08950F93CF93DF9399
:103D2000EC01662309F068C08981882309F464C026
:103D30008D89882309F060C0EA89FB89EE0FFF1F97
:103D40004D855E85E40FF51F2591349121153105D0
:103D500009F040C08989813031F41B8A1A8AFA013E
:103D60002591349137C019828881882379F0CE015A
:103D700060E00E945A1E8A899B89880F991FED85F1
:103D8000FE85E80FF91F2591349124C0CE0160E033
:103D90000E941F1E31C0E6E036952795EA95E1F7AF
:103DA0006F70422F4F7175E0369527957A95E1F740
:103DB0002051CE0100E00E949D1D8A899B890196B9
:103DC0009B8B8A8B880F991FED85FE85E80FF91F65
:103DD00025913491B901769567957695679520FD83
:103DE000DACF6F73432FCE0120E00E940D1E8A8927
:103DF0009B8901969B8B8A8BDF91CF910F910895C0
:103E000060E00E948D1E0895CF93DF93EC0166233E
:103E100009F0D6C08F89882309F4D2C08D89882300
:103E200021F4CE010E941F1ECBC081508D8B8DA12D
:103E3000882309F03BC08BA19CA10196880F991F94
:103E4000EF8DF8A1E80FF91F85919491282F277025
:103E50002EA3AC0163E0569547956A95E1F79A0168
:103E600036952795892F9927869586958FA32F7349
:103E70008C81289F202D11242DA3417040930A0589
:103E80008BA19CA101969CA38BA329A130E0821752
:103E9000930760F08AA1882329F0281B31093CA3ED
:103EA0002BA304C0CE0160E00E941F1E8DA1815093
:103EB0008DA3988D9F5F988F2FA18C89280F8C855B
:103EC000280F2A836B8D662369F0892F992787FD38
:103ED000909570E00E9475298C8D869F802D11240D
:103EE000820F8A838A8190E0CB966BE370E00E9418
:103EF00075298A832E892B83698D662379F0888DB5
:103F0000772767FD7095992787FD90950E94752901
:103F10008A8D869F802D1124820F8B836D8D662361
:103F200099F0888D992787FD909570E00E947529FA
:103F3000CB0162E070E00E9475299E8D899F802DE3
:103F400011249B81890F8B838B818A300CF089E04F
:103F500087FD80E08B838C898F3309F41B82F89472
:103F6000EA81F0E0E450F84FE491E09307052D81F9
:103F700030E08B81992787FD9095A901489F90019A
:103F8000499F300D589F300D112488A590E0A9015C
:103F9000489F9001499F300D589F300D11248EA1EC
:103FA000992787FD9095AC01249FC001259F900D16
:103FB000349F900D1124809308058093090578940F
:103FC000DF91CF91089560E00E94041F08956091F1
:103FD0000805662381F1809105058F5F80930505B3
:103FE00090910705891738F130E080910605882304
:103FF00009F431E0309306051092050580910A0519
:104000008823A9F080910C0223E4829FC00111242F
:10401000895B80930C0290E070E00E94612980939C
:10402000090505C0809109058093B40008953323E4
:10403000C9F780E0F9CF08951F920F920FB60F9243
:1040400011242F933F934F935F936F937F938F939D
:104050009F93AF93BF93EF93FF930E94E71FFF914E
:10406000EF91BF91AF919F918F917F916F915F91F0
:104070004F913F912F910F900FBE0F901F90189569
:1040800064EF77E040E00E943F1E08956CEE77E019
:1040900040E00E943F1E089566EE77E040E00E94F7
:1040A0003F1E0895FC01862F668170E06F5F7F4F91
:1040B000992787FD90950E947529858308950F9310
:1040C000FC0181E0848384E080A787E398E0908B03
:1040D0008787CF0161E040E020E000E00E949D1D65
:1040E00083E061E070E00E944525E1EBF0E0808133
:1040F000887F81608083F89410928000E1E8F0E08E
:104100001082109285001092840088E191E09093D3
:1041100089008093880080818860808380818160AD
:104120008083EFE6F0E080818260808378940F9155
:10413000089581E08093500560932D0510924E05FF
:1041400010924F05089520912C0530E080912B05A9
:10415000281B3109C901089540912B0580912C0538
:10416000481718F02FEF3FEF0AC0E42FF0E0E55FAB
:10417000FA4F8081282F30E04F5F40932B05C90113
:104180000895E0912B0580912C05E81718F0EFEFCA
:10419000FFEF06C0F0E0E55FFA4F8081E82FF0E026
:1041A000CF0108950895AC01209153053091540535
:1041B00021153105E1F090912B0580912C05981780
:1041C000B0F090E008C0FA01EA0FFB1F8081A55F04
:1041D000BA4F8C939F5FA92FB0E0A617B7079CF347
:1041E00010922B0560932C05CB01F90109950895D8
:1041F000E0915105F0915205309729F010924E054B
:1042000010924F05099508957093540560935305D6
:1042100008957093520560935105089510925805C2
:104220001092570588EE93E0A0E0B0E08093590526
:1042300090935A05A0935B05B0935C058AE192E0E8
:1042400090935605809355050895CF92DF92EF9293
:10425000FF920F931F93CF93DF937C016B018A0131
:10426000809150058823A1F0C0E0D0E00DC0D701B7
:10427000ED91FC91D601AC0FBD1F0190F081E02DB6
:10428000C7016C9109952196C017D10780F304C02E
:10429000CB01642F0E947222C801DF91CF911F9140
:1042A0000F91FF90EF90DF90CF900895DF93CF9321
:1042B0000F92CDB7DEB7FC0169838091500588234A
:1042C000C9F080914F05803238F081E090E093830F
:1042D000828320E030E015C080914E05E82FF0E0A9
:1042E000E25DFA4F998190838F5F80934E058093B2
:1042F0004F0505C0CE01019661E00E94722221E0C7
:1043000030E0C9010F90CF91DF9108950F93062FF0
:1043100080912D056EE275E040914F0521E00E94ED
:104320001D2210924E0510924F05109250050F91CC
:10433000089561E00E9486210895413208F040E22C
:10434000862F6BE075E00E94D42110922B0580939C
:104350002C05089521E00E949D21089510922B05BF
:1043600010922C0510924E0510924F050E942824A1
:1043700008950F931F938C01862F0E94D02188EF00
:1043800090E20E94922283ED90E20E948D22C80169
:104390000E94AE211F910F9108950E94B9210895A6
:1043A000880F8093BA000895382F413210F040E012
:1043B00042C0809161058823E1F791E09093610507
:1043C000209363058FEF8093CE05109289054150AD
:1043D00040938A054F5F9093620580916205330F89
:1043E000832B8093620580916405813041F41092A3
:1043F0006405809162058093BB0085EC01C085EE69
:104400008093BC00809161058130E1F38091890542
:10441000841710F44091890520E030E00AC0FB01C8
:10442000E20FF31FD901A759BA4F8C9180832F5FF8
:104430003F4F2417A0F3842F08950F931F93582FF5
:10444000122F413210F081E04AC08091610588232B
:10445000E1F782E080936105009363058FEF80931D
:10446000CE051092890540938A05A9E6B5E0FB01C7
:1044700002C081918D938E2F861B8417D0F31092EA
:10448000620580916205550F852B809362058091AE
:104490006405813041F41092640580916205809337
:1044A000BB0085EC01C085EE8093BC00112321F098
:1044B000809161058230E1F38091CE058F3F11F448
:1044C00080E00DC08091CE05803211F482E007C0FB
:1044D0008091CE05803311F084E001C083E01F910C
:1044E0000F910895482F613210F081E00895809176
:1044F0006105843011F082E008956093AC05ABE86B
:10450000B5E0842F9C01F90102C081918D938E2F1B
:10451000841B8617D0F380E00895909368058093FC
:1045200067050895909366058093650508951F9229
:104530000F920FB60F9211242F933F934F935F93D7
:104540006F937F938F939F93AF93BF93EF93FF935B
:104550008091B90090E0887F90708036910509F4D1
:10456000F2C081369105CCF58832910509F47BC003
:1045700089329105B4F48031910509F46FC081311D
:1045800091053CF4009709F447C1089709F04FC121
:1045900065C08831910509F466C0809709F047C16C
:1045A00082C08034910509F4A4C08134910544F49B
:1045B0008033910509F482C0C89709F038C189C0D9
:1045C0008035910509F489C08835910509F496C0B4
:1045D0008834910509F02BC1AEC08839910509F4E2
:1045E00013C189399105ECF48837910509F4ABC002
:1045F000893791054CF48836910509F4A4C08037B9
:10460000910509F014C19FC08838910509F4FCC0D8
:104610008039910509F49DC08038910509F007C1E2
:1046200098C0803B910509F4C6C0813B91054CF4CC
:10463000803A910509F49FC0883A910509F0F7C0C6
:10464000BAC0803C910509F4E3C0883C910509F4A7
:10465000DFC0883B910509F0EAC0C2C080916205C5
:104660008093BB00CFC09091890580918A059817EF
:1046700068F490918905E92FF0E0E759FA4F8081BD
:104680008093BB009F5F90938905BCC080916305B8
:10469000882309F44BC085ED8093BC008091BC0059
:1046A00084FDFCCFC2C080E28093CE0585ED80936F
:1046B000BC008091BC0084FDFCCFB7C080E3809338
:1046C000CE0585ED8093BC008091BC0084FDFCCFBD
:1046D000ACC088E38093CE059BC080918905909102
:1046E000BB00E82FF0E0E759FA4F90838F5F80938B
:1046F00089059091890580918A0582C080918905FC
:104700009091BB00E82FF0E0E759FA4F90838F5F5C
:104710008093890580916305882341F085ED80931E
:10472000BC008091BC0084FDFCCF7FC081E0809301
:10473000640584EA6EC085ED8093BC008091BC0066
:1047400084FDFCCF72C083E0809361051092CD059B
:1047500059C08091CD05803208F056C08091CD05BA
:104760009091BB00E82FF0E0E355FA4F90838F5F04
:104770008093CD0547C08091CD05803230F4E09123
:10478000CD05F0E0E355FA4F108285ED8093BC0033
:104790008091BC0084FDFCCF109261056091CD0535
:1047A000E0916705F09168058DEA95E070E0099564
:1047B0001092CD052DC084E0809361051092AB0569
:1047C0001092AC05E0916505F09166050995809120
:1047D000AC05882329F481E08093AC0510928B0509
:1047E0009091AB05E92FF0E0E557FA4F8081809377
:1047F000BB009F5F9093AB059091AB058091AC059A
:10480000981710F485EC01C085E88093BC000FC0B8
:1048100085EC8093BC0009C01092CE0585ED809395
:10482000BC008091BC0084FDFCCF10926105FF911B
:10483000EF91BF91AF919F918F917F916F915F9118
:104840004F913F912F910F900FBE0F901F90189591
:104850001092610581E0809363051092640582E106
:1048600061E00E94112683E161E00E941126E9EBDC
:10487000F0E080818E7F808380818D7F808388E4DB
:104880008093B80085E48093BC0008951F920F9236
:104890000FB60F9211242F933F938F939F93AF9353
:1048A000BF938091D3059091D405A091D505B09187
:1048B000D6053091D7050196A11DB11D232F2D5F7F
:1048C0002D3720F02D570196A11DB11D2093D7053E
:1048D0008093D3059093D405A093D505B093D605C6
:1048E0008091CF059091D005A091D105B091D205CE
:1048F0000196A11DB11D8093CF059093D005A09383
:10490000D105B093D205BF91AF919F918F913F9107
:104910002F910F900FBE0F901F9018958FB7F8949E
:104920002091D3053091D4054091D5055091D605FD
:104930008FBFB901CA0108959FB7F8942091CF05A0
:104940003091D0054091D1055091D20586B5A89BF4
:1049500006C08F3F21F02F5F3F4F4F4F5F4F9FBFEC
:10496000542F432F322F2227280F311D411D511D57
:1049700082E0220F331F441F551F8A95D1F7B901DA
:10498000CA010895EF92FF920F931F93CF93DF9385
:104990007B018C010E949C24EB010EC00E949C2490
:1049A0006C1B7D0B685E7340C8F30894E108F10846
:1049B00001091109C851DC4FE114F1040105110589
:1049C00069F7DF91CF911F910F91FF90EF900895BC
:1049D000789484B5826084BD84B5816084BD85B5DA
:1049E000826085BD85B5816085BDEEE6F0E08081A1
:1049F00081608083E1E8F0E01082808182608083C2
:104A0000808181608083E0E8F0E080818160808344
:104A1000E1EBF0E0808184608083E0EBF0E0808176
:104A200081608083EAE7F0E0808184608083808118
:104A300082608083808181608083808180688083C0
:104A40001092C1000895982F8E3008F09E509770F4
:104A500080910D028295880F880F807C892B80932E
:104A60007C0080917A00806480937A0080917A0043
:104A700086FDFCCF2091780040917900942F80E052
:104A800030E0282B392BC90108951F93CF93DF9372
:104A9000182FEB0161E00E94A525209709F44AC078
:104AA000CF3FD10509F449C0E12FF0E0E757F74FB8
:104AB00084918330C1F0843028F4813051F0823009
:104AC000B1F50CC0863019F1873049F1843079F5A1
:104AD00014C084B5806884BDC7BD33C084B580620E
:104AE00084BDC8BD2EC08091800080688093800006
:104AF000D0938900C093880024C080918000806298
:104B000080938000D0938B00C0938A001AC080915C
:104B1000B00080688093B000C093B30012C0809151
:104B2000B00080628093B000C093B4000AC0C03867
:104B3000D1051CF4812F60E002C0812F61E00E944A
:104B40001126DF91CF911F910895CF93DF93482FC6
:104B500050E0CA018B58974FFC0134914F59574F81
:104B6000FA018491882369F190E0880F991FFC0174
:104B7000ED5BF74FA591B491FC01E35BF74FC59155
:104B8000D491662351F42FB7F8948C91932F90957C
:104B900089238C93888189230BC0623061F42FB7FD
:104BA000F8948C91932F909589238C938881832BF3
:104BB00088832FBF06C09FB7F8948C91832B8C936A
:104BC0009FBFDF91CF910895833071F0843028F436
:104BD0008130A1F0823021F514C08630B1F08730E9
:104BE000D1F08430E9F404C0809180008F7703C055
:104BF000809180008F7D80938000089584B58F77A9
:104C000002C084B58F7D84BD08958091B0008F77F8
:104C10008093B00008958091B0008F7D8093B000A4
:104C20000895FF920F931F93F62E482F50E0CA016C
:104C30008757974FFC012491CA018B58974FFC016D
:104C400014914F59574FFA0104910023C9F02223C0
:104C500019F0822F0E94E425E02FF0E0EE0FFF1FF5
:104C6000E35BF74FA591B4919FB7F894FF2021F42F
:104C70008C911095812302C08C91812B8C939FBFC6
:104C80001F910F91FF9008950F931F93482F50E0AD
:104C9000CA018757974FFC012491CA018B58974F3F
:104CA000FC0104914F59574FFA011491112319F443
:104CB00020E030E015C0222319F0822F0E94E42565
:104CC000812F90E0880F991F895A974FFC01A59179
:104CD000B4918C9120E030E0802311F021E030E0AD
:104CE000C9011F910F910895CF93DF930E94E8248B
:104CF0000E948710C0E0D0E00E94F90F2097E1F3F6
:104D00000E940000F9CFCF92DF92EF92FF920F93B3
:104D10001F93CF93DF937C016B018A01C0E0D0E049
:104D20000FC0D6016D916D01D701ED91FC910190FD
:104D3000F081E02DC7010995C80FD91F015010401F
:104D40000115110571F7CE01DF91CF911F910F91E0
:104D5000FF90EF90DF90CF900895EF92FF920F9326
:104D60001F93CF93DF937C018B01C0E0D0E0F8016B
:104D70000F5F1F4F6491662359F0D701ED91FC91AD
:104D80000190F081E02DC7010995C80FD91FEFCF21
:104D9000CE01DF91CF911F910F91FF90EF90089579
:104DA000DC01ED91FC910190F081E02D09950895D1
:104DB000EF92FF920F931F938C01DC01ED91FC9118
:104DC0000190F081E02D6DE009957C01D801ED9115
:104DD000FC910190F081E02DC8016AE009959C01E9
:104DE0002E0D3F1DC9011F910F91FF90EF90089567
:104DF000EF92FF920F931F937C010E94AD268C01CE
:104E0000C7010E94D8269C01200F311FC9011F91A4
:104E10000F91FF90EF9008954F925F927F928F9243
:104E20009F92AF92BF92CF92DF92EF92FF920F9339
:104E30001F93DF93CF93CDB7DEB7A1970FB6F8944A
:104E4000DEBF0FBECDBF2C01742ECB01223008F483
:104E50002AE019A231E2C32ED12CCC0EDD1E822E07
:104E60009924AA24BB24672D752FA50194010E94C3
:104E7000882979018A01C801B701A50194010E941E
:104E80003629472D461B0894C108D1084A3014F42E
:104E9000405D01C0495CF6014083E114F104010565
:104EA000110521F07E2C5F2DC801DDCFC201B601B6
:104EB0000E944408A1960FB6F894DEBF0FBECDBF86
:104EC000CF91DF911F910F91FF90EF90DF90CF90E6
:104ED000BF90AF909F908F907F905F904F9008957C
:104EE000DC012115310541F4ED91FC910190F08137
:104EF000E02D642F099508950E940C270895EF92E4
:104F0000FF920F931F939A017B0100E010E0B8011C
:104F1000A7010E9470271F910F91FF90EF900895B5
:104F20002F923F924F925F926F927F928F929F92B9
:104F3000AF92BF92CF92DF92EF92FF920F931F93A7
:104F4000DF93CF93CDB7DEB73B014C0119012A01A6
:104F50006D897E898F89988D6A197B098C099D09D5
:104F6000621A730A840A950AA40193010E943629E1
:104F7000E218F30804091509A80197010E94AA295B
:104F80002A0D3B1D4C1D5D1DB901CA01CF91DF915A
:104F90001F910F91FF90EF90DF90CF90BF90AF9057
:104FA0009F908F907F906F905F904F903F902F9049
:104FB0000895EF92FF920F931F937B018C0161156F
:104FC00071058105910529F420E030E040E050E0D2
:104FD0000BC00E941E2AA80197010E94AA29AC01B9
:104FE000CB01DA019C01AD01B901CA011F910F91FA
:104FF000FF90EF900895EF92FF920F931F937B0124
:105000008C01621773078407950764F4261B370B1E
:10501000480B590BCA01B9010E94D927E60EF71EA9
:10502000081F191FB701C8011F910F91FF90EF9042
:10503000089598D088F09F5790F0B92F9927B751CD
:10504000A0F0D1F0660F771F881F991F1AF0BA954C
:10505000C9F712C0B13081F09FD0B1E008959CC073
:10506000672F782F8827B85F39F0B93FCCF3869542
:1050700077956795B395D9F73EF49095809570959F
:1050800061957F4F8F4F9F4F0895E89409C097FB1C
:105090003EF490958095709561957F4F8F4F9F4F0F
:1050A0009923A9F0F92F96E9BB279395F695879553
:1050B00077956795B795F111F8CFFAF4BB0F11F416
:1050C00060FF1BC06F5F7F4F8F4F9F4F16C08823BD
:1050D00011F096E911C0772321F09EE8872F762FF3
:1050E00005C0662371F096E8862F70E060E02AF034
:1050F0009A95660F771F881FDAF7880F9695879520
:1051000097F9089597F99F6780E870E060E0089547
:105110009FEF80EC089500240A94161617061806CF
:105120000906089500240A941216130614060506AB
:105130000895092E0394000C11F4882352F0BB0F3C
:1051400040F4BF2B11F460FF04C06F5F7F4F8F4F9F
:105150009F4F089557FD9058440F551F59F05F3FDA
:1051600071F04795880F97FB991F61F09F3F79F089
:1051700087950895121613061406551FF2CF46950B
:10518000F1DF08C0161617061806991FF1CF86958D
:105190007105610508940895E894BB276627772771
:1051A000CB0197F908950BD0C4CFB5DF28F0BADF53
:1051B00018F0952309F0A6CFABCF1124EECFCADFAC
:1051C000A0F3959FD1F3950F50E0551F629FF0011A
:1051D000729FBB27F00DB11D639FAA27F00DB11D73
:1051E000AA1F649F6627B00DA11D661F829F2227FC
:1051F000B00DA11D621F739FB00DA11D621F839F83
:10520000A00D611D221F749F3327A00D611D231F58
:10521000849F600D211D822F762F6A2F11249F57A6
:1052200050408AF0E1F088234AF0EE0FFF1FBB1FC9
:10523000661F771F881F91505040A9F79E3F510568
:1052400070F060CFAACF5F3FECF3983EDCF3869519
:1052500077956795B795F795E7959F5FC1F7FE2B13
:10526000880F911D9695879597F90895629FD001B3
:10527000739FF001829FE00DF11D649FE00DF11D11
:10528000929FF00D839FF00D749FF00D659FF00DC0
:105290009927729FB00DE11DF91F639FB00DE11DAD
:1052A000F91FBD01CF0111240895991B79E004C0B5
:1052B000991F961708F0961B881F7A95C9F7809555
:1052C0000895AA1BBB1B51E107C0AA1FBB1FA6174D
:1052D000B70710F0A61BB70B881F991F5A95A9F79F
:1052E00080959095BC01CD01089597FB092E072666
:1052F0000AD077FD04D0E5DF06D000201AF47095BF
:1053000061957F4F0895F6F7909581959F4F089589
:10531000A1E21A2EAA1BBB1BFD010DC0AA1FBB1FB9
:10532000EE1FFF1FA217B307E407F50720F0A21B2B
:10533000B30BE40BF50B661F771F881F991F1A9498
:1053400069F760957095809590959B01AC01BD01C2
:10535000CF01089597FB092E05260ED057FD04D0E6
:10536000D7DF0AD0001C38F4509540953095219530
:105370003F4F4F4F5F4F0895F6F79095809570958A
:1053800061957F4F8F4F9F4F0895EE0FFF1F059040
:10539000F491E02D0994A0E0B0E0E1EDF9E20C9485
:1053A000342AEC01A880B980CA80DB80A114B10442
:1053B000C104D10441F484E2A82E89EDB82E8BE516
:1053C000C82E87E0D82EC601B5012DE133EF41E0AC
:1053D00050E00E94AA2927EA31E440E050E00E9410
:1053E00036297B018C01C601B5012DE133EF41E087
:1053F00050E00E94AA29CA01B9012CEE34EF4FEF08
:105400005FEF0E9436296E0D7F1D801F911F97FF51
:1054100004C06150704080409048688379838A83DB
:105420009B839B01AC015F77B901CA01CDB7DEB7A1
:10543000EAE00C94502A0E94CB2908958BE091E079
:105440000E94CB29089560930B0170930C01809307
:105450000D0190930E0108952F923F924F925F920B
:105460006F927F928F929F92AF92BF92CF92DF9274
:10547000EF92FF920F931F93CF93DF93CDB7DEB7D9
:10548000CA1BDB0B0FB6F894DEBF0FBECDBF09946D
:105490002A88398848885F846E847D848C849B84C4
:1054A000AA84B984C884DF80EE80FD800C811B81D2
:1054B000AA81B981CE0FD11D0FB6F894DEBF0FBE01
:0A54C000CDBFED010895F894FFCF71
:1054CA00300031004C4F41444552000100000001B8
:1054DA0001010101010101010101010101010101B2
:1054EA00010101010101000000020202020202029E
:1054FA00020202020202000000010100020102018E
:10550A000000000000010202020202010200010181
:10551A000202020202020202020202020202000263
:10552A000202020101020201020201020202020255
:10553A000201020001020202010102010000000050
:10554A000102020202020202000202020201010236
:10555A00020202000202020202020100000000012D
:10556A000202010102020102000102020202020217
:10557A000102020102020201010202020200020207
:10558A0002020202020202020202020201010002F5
:10559A0001020201020201000000000002020102EF
:1055AA0000010100000002020202020202020202DB
:1055BA0002020200000001010101010101010101D1
:1055CA0001010101010101010101010101010000C3
:1055DA0000006F1683260000000056212521A32013
:0655EA00AC20C120D2201C
:00000001FF
